:020000040800F2
:1000000000800120010500083902000845020008AF
:100010004D020008550200085D02000800000000C3
:100020000000000000000000000000006502000861
:1000300071020008000000007D020008890200082B
:100040004905000849050008490500084905000858
:100050004905000849050008490500084905000848
:100060004905000849050008490500084905000838
:100070004905000849050008490500084905000828
:100080004905000849050008490500084905000818
:100090004905000849050008490500084905000808
:1000A00049050008490500084905000849050008F8
:1000B00049050008490500084905000849050008E8
:1000C00049050008490500084905000849050008D8
:1000D00049050008490500084905000849050008C8
:1000E00049050008490500084905000849050008B8
:1000F00049050008490500084905000849050008A8
:100100004905000849050008490500084905000897
:100110004905000849050008490500084905000887
:100120004905000849050008490500084905000877
:1001300000000000000000000000000000000000BF
:1001400000000000000000000000000000000000AF
:10015000000000000000000000000000000000009F
:10016000000000000000000000000000000000008F
:10017000000000000000000000000000000000007F
:10018000000000000000000000000000000000006F
:10019000000000000000000000000000000000005F
:1001A000000000000000000000000000000000004F
:1001B000000000000000000000000000000000003F
:1001C000000000000000000000000000000000002F
:1001D000000000000000000000000000000000001F
:0401E0005FF8E0F1F3
:1001E40010B5054C237833B9044B13B1044800E02F
:1001F40000BF0123237010BD000000200000000098
:1002040098050008064B10B51BB10648064900E0E6
:1002140000BF0648036813B1054B03B1984710BDEE
:1002240000000000980500080400002000000020E1
:100234000000000080B400AFBD4680BC7047C046DB
:1002440080B400AFFEE7C04680B400AFFEE7C0460E
:1002540080B400AFFEE7C04680B400AFFEE7C046FE
:1002640080B400AFBD4680BC7047C04680B400AFC8
:10027400BD4680BC7047C04680B400AFBD4680BC5C
:100284007047C04680B400AFBD4680BC7047C046CE
:1002940080B483B000AF4FF000037B607B6803F150
:1002A40001037B60FAE7C04680B500AF41F200036A
:1002B400C4F2020341F20002C4F20202126842F0E4
:1002C40001021A6041F20002C4F2020241F2000388
:1002D400C4F20203596840F20003CFF6FF0301EAB7
:1002E4000303536041F20003C4F2020341F200022B
:1002F400C4F20202126822F0847222F480321A607C
:1003040041F20003C4F2020341F20002C4F2020209
:10031400126822F480221A6041F20003C4F202033C
:1003240041F20002C4F20202526822F4FE025A6050
:1003340041F20003C4F202034FF41F029A6000F07A
:1003440003F8BD4680BDC04680B500AF00F002F89A
:10035400BD4680BD80B483B000AF4FF000037B6026
:100364004FF000033B6041F20003C4F2020341F288
:100374000002C4F20202126842F480321A6041F2AE
:100384000003C4F202031B6803F400333B607B6880
:1003940003F101037B603B68002B03D17B68B3F559
:1003A400A06FECD141F20003C4F202031B6803F412
:1003B4000033002B03D04FF001033B6002E04FF009
:1003C40000033B603B68012B40F0928042F2000343
:1003D400C4F2020342F20002C4F20202126842F0C2
:1003E40010021A6042F20003C4F2020342F2000255
:1003F400C4F20202126822F003021A6042F20003FD
:10040400C4F2020342F20002C4F20202126842F091
:1004140002021A6041F20003C4F2020341F2000234
:10042400C4F2020252685A6041F20003C4F20203A9
:1004340041F20002C4F2020252685A6041F200031F
:10044400C4F2020341F20002C4F20202526842F40E
:1004540080625A6041F20003C4F2020341F20002D6
:10046400C4F20202526822F47C125A6041F2000380
:10047400C4F2020341F20002C4F20202526842F4DE
:10048400E8125A6041F20003C4F2020341F200028E
:10049400C4F20202126842F080721A6041F2000350
:1004A400C4F202031B6803F00073002BF6D041F280
:1004B4000003C4F2020341F20002C4F202025268D1
:1004C40022F003025A6041F20003C4F2020341F233
:1004D4000002C4F20202526842F002025A6041F27F
:1004E4000003C4F202035B6803F00C03082BF6D18B
:1004F40007F10C07BD4680BC7047C046002103E0ED
:100504000B4B5B58435004310A480B4B42189A4238
:10051400F6D30A4A02E0002342F8043B084B9A420D
:10052400F9D3FFF7C1FE00F00FF8FFF7B1FE7047F3
:10053400B805000800000020000000200000002092
:100544001C000020FEE7000070B50E4D0E4E002486
:10055400761BB61003E055F8243001349847B442B2
:10056400F9D300F017F8094E094B0024F61A1D467A
:10057400B61003E055F8243001349847B442F9D357
:1005840070BDC046B0050008B0050008B4050008F9
:10059400B0050008F8B5C046F8BC08BC9E467047D4
:0C05A400F8B5C046F8BC08BC9E46704785
:0405B0000902000834
:0405B400E501000855
:0400000508000501E9
:00000001FF
