:020000040800F2
:10000000600B002089CF00089DBA0008C9BA00081B
:10001000EBBA0008EDBA0008EFBA000800000000D3
:10002000000000000000000000000000D9D300081C
:10003000F1BA000800000000E1D3000805600008E4
:10004000E9D30008EDD30008F1D30008F5D3000888
:10005000F9D30008FDD3000801D4000805D4000836
:1000600009D400088D02000811D4000815D4000836
:1000700019D400081DD4000821D4000825D4000894
:1000800029D400082DD4000831D4000835D4000844
:1000900039D400083DD4000841D40008C10200084A
:1000A00049D400084DD4000851D4000855D40008A4
:1000B00059D400085DD4000861D4000865D4000854
:1000C00069D400086DD4000871D4000875D4000804
:1000D00079D400087DD40008B373000885D40008E3
:1000E000A70200088DD4000891D4000895D4000818
:1000F00099D400089DD40008A1D40008A5D4000814
:10010000A9D40008ADD4000891A40008D75C000869
:10011000B9D40008BDD40008C1D40008C5D4000873
:10012000C9D40008CDD40008D1D40008D5D4000823
:10013000D9D40008DDD40008E1D40008E5D40008D3
:10014000E9D40008EDD40008F1D40008F5D4000883
:10015000F9D40008FDD4000801D5000805D5000831
:1001600009D500080DD5000811D5000815D50008DF
:1001700019D500081DD5000821D5000825D500088F
:1001800029D5000838B5040001219DA004F09AFF8C
:100190009CA50021280004F095FF0421280004F00C
:1001A00091FF0021280004F08DFF0921280004F0B0
:1001B00089FF04F0F1FF31BD70B5DFF8A44A0020DB
:1001C00020700025DFF89C6A00203060012000F0DC
:1001D00019F82078002805D1DFF88C0A854201D271
:1001E0006D1CF6E72078012803D13068401C306090
:1001F000F8E7002000F006F83168DFF8340D04F06D
:1002000061FF70BD18B585B004000020DFF85C1AEE
:1002100008700121042005F053F901214FF48040BA
:1002200005F06AF903A805F03EFA4020039000208B
:100230008DF8100000208DF8130003A9DFF8740C6E
:1002400005F0CCF90621022005F076FA01A805F0A8
:10025000DCFA4020019000208DF808000C208DF879
:1002600009008DF80A4001A805F092FA17208DF8D0
:10027000000000208DF8010000208DF802008DF8AC
:100280000340684605F0ECFA06B010BD80B505F0F5
:1002900023FB0120DFF8D4190870402005F0D1FAC3
:1002A00005F020FB01BD80B505F016FB0120DFF84D
:1002B000BC190870402005F0C4FA05F013FB01BD1D
:1002C00080B505F009FB402005F0A8FA00281DD0F4
:1002D0000120DFF898190870DFF884090178491CBB
:1002E0000170DFF88C09007801280CD1DFF884094F
:1002F0000188012905D1DFF84C0D0188491C0180D6
:1003000001E001210180402005F09BFA05F0EAFAA6
:1003100001BD3EB50400002000900025684605F0B0
:10032000F0FB01A805F0DCFBDFF8180B04F0BAFEC7
:10033000019804F0B7FE0099DFF80C0B04F0C2FE40
:100340002900DFF8040D04F0BDFE04F025FF37BDE1
:1003500030B585B00400012000900120019004A870
:1003600005F0BEFB684605F0CCFB01A805F0C9FB13
:1003700004980078412808D0422809D043280AD0A0
:1003800044280BD046280CD00EE0DFF82C5B10E0A0
:10039000DFF8285B0DE0DFF81C5B0AE0DFF8205B8C
:1003A00007E0DFF8205B04E0DFF8A00C04F07AFE41
:1003B00023E00121009881400091009802900020E4
:1003C0008DF80E0001208DF80C0000208DF80F0034
:1003D00002208DF80D0002A9280005F0FFF8019811
:1003E000002805D0009989B2280005F068F904E0DA
:1003F000009989B2280005F064F905B030BD00000D
:10040000200000002E000000F8B5A2B00400DFF8C4
:10041000240B0078012806D0DFF81C0B04F042FE04
:1004200004F0BAFE26E10026DFF8100B04F03AFED5
:1004300004F0B2FE04F0B0FEDFF8040B04F032FE6C
:1004400004F0AAFEDFF8FC5A287800904FF4FA7303
:1004500001AA5821522005F09BFC01AFF988DFF872
:10046000580B04F03EFEF88843F61001884204D091
:10047000761CDFF8480B04F015FE04F08DFE04F046
:100480008BFE7988DFF8380B04F02BFE04F084FE35
:10049000B988DFF8300B04F024FE04F07DFE04F090
:1004A0007BFEBDF80C10DFF8200B04F01AFE04F000
:1004B00073FE04F071FEDFF8140B04F0F3FDDFF8B7
:1004C000100B04F0EFFD04F067FE04F065FE02215E
:1004D0003E2005F016FD0121322005F012FD28789E
:1004E00000904FF4FA7301AA3221322005F050FC3B
:1004F0007988DFF85C0B04F0F4FD7888012804D1DA
:10050000DFF8500B04F0CEFD04E0DFF84C0B04F0F4
:10051000C9FD761C04F040FE04F03EFE00213620AA
:1005200005F0EFFC0121372005F0EBFC2878009066
:100530004FF4FA7301AA3621362005F029FC798898
:10054000DFF8180B04F0CDFD7888B0F5807F04D17A
:10055000DFF8000B04F0A6FD04E0DFF8FC0A04F06D
:10056000A1FD761C04F018FE04F016FE05213820CB
:1005700005F0C7FC0221392005F0C3FC2878009063
:100580004FF4FA7301AA3821382005F001FC79886C
:10059000DFF8CC0A04F0A5FD788840F205218842F6
:1005A00004D1DFF8B00A04F07DFD04E0DFF8A80A0A
:1005B00004F078FD761C04F0EFFD04F0EDFD04215D
:1005C000342005F09EFC287800904FF4FA7301AABD
:1005D0003421342005F0DCFB7988DFF8880A04F048
:1005E00080FD7888042804D1DFF8680A04F05AFDF9
:1005F00004E0DFF8640A04F055FD761C04F0CCFD3D
:1006000004F0CAFD0421352005F07BFC4FF47A701C
:1006100005F009FD287800904FF4FA7301AA3C21F7
:100620003C2005F0B5FB7988DFF83C0A04F059FD61
:10063000B878C00604D4DFF8340A04F033FD04E0CF
:10064000DFF82C0A04F02EFD761C04F0A5FD04F062
:10065000A3FD3000C0B2002804D1DFF8180A04F06E
:1006600021FD03E0DFF8DC0C04F01CFD04F094FD38
:1006700004F092FD23B0F0BD2DE9F14FAAB0DFF8F0
:10068000B4080078012806D0DFF8AC0804F00AFDB1
:1006900004F082FDDCE206A8DFF8DC190A680260DB
:1006A00005A8DFF8D8190A6802603E20DFF8401B71
:1006B0000870DFF8400B10210170DFF8341B097857
:1006C00000784118481EDFF8301B0870DFF8280B4F
:1006D0000178491CDFF8180B0078091A022091FBF9
:1006E000F0F0DFF8181B08705FF0010B5FF0000AF4
:1006F00003A8DFF80C1BD1E90023C0E90023032085
:10070000029002A805F0FDF903A805F0FAF904A883
:1007100005F0F7F94FF6DD700299814202D34FF6EA
:10072000DC7102910399814202D34FF6DC7103918F
:100730000499814202D34FF6DC7004900020DFF868
:100740002C1508700A26032003F0B2FF012002F0E6
:10075000D1FFC82005F067FC08A8842105F086FCBD
:10076000962308AA5621562005F075FB4FF4FA701F
:1007700005F059FC0120FFF745FDC82005F053FCAA
:10078000DFF8800A04F08EFC04F006FDDFF8780A3A
:10079000012101804FF40041DFF8702A118004210B
:1007A00001804FF4FA6005F03EFCDFF8640A04F0C3
:1007B00079FC04F0F1FCDFF85C5A012028804FF44A
:1007C0007A7005F030FC0420288004F0E5FCDFF8A6
:1007D000480A04F067FC04F0DFFC4FF4FA7005F0FF
:1007E00022FC02F0C5FF002542F210700790DFF8EE
:1007F0002C0A04F057FC04F0CFFC4FF4FA7005F01B
:1008000012FC04F0C9FCDFF8180A04F04BFC04F0F9
:10081000C3FC4FF4FA7005F006FC0020DFF84C141E
:1008200008705FF00009B9F1640F80F2AA80DFF868
:100830003C1408780028FAD000200870DFF8148BE8
:10084000DFF800070078009069234246DFF8A80926
:100850000178DFF89C09007805F09AFA761C3000E0
:10086000C0B20A28C0F28780002006000127DFF806
:100870008C090078401C87427BDA012F05D138F8BB
:100880001710CCA004F02DFC71E0052F34DA38F9F4
:10089000170000B205F00AFC05F01AFCDFF8B82AD0
:1008A000DFF8B83A05F038FC05F008FD0400200038
:1008B000002105F037FD02D8CEA004F0F3FB2000A4
:1008C00005F042FD40B205F054FD8DF804009DF89E
:1008D00004000A2803DAC8A004F0E4FB06E09DF84F
:1008E0000400642802DAC3A004F0DCFB0422210027
:1008F000C1A004F005FC3AE0082F1DDA38F9170012
:1009000000B205F0D3FB05F0E3FBDFF8542ADFF873
:10091000543A05F001FC05F0D1FC04002000002150
:1009200005F000FD02D8B3A004F0BCFB04222100B6
:10093000C9A004F0E5FB1AE00422009238F9170080
:1009400000B205F0B3FB05F0C3FBDFF81C2ADFF8AB
:100950001C3A05F0E1FB0022DFF8143A05F00EFD29
:1009600005F0ACFC0100009ABBA004F0C9FB7F1CA1
:100970007DE704F011FC012005F055FB19F1010998
:1009800051E70020ADF80600BDF806000299B0EB73
:10099000410F80F041811BF1010B5846C0B2022883
:1009A00001DB0020834604F0F7FB5846C0B2002864
:1009B00005D10399DFF8BC0904F084FB04E0049935
:1009C000DFF8B40904F07EFBBDF80610491CDFF81F
:1009D000AC0904F077FB02984100A0A004F072FB80
:1009E000DFF89C0904F05EFB4FF4FA7005F01BFB86
:1009F00005A85946C9B230F8113006A85946C9B2FF
:100A000030F8112003A85946C9B250F8211089B214
:100A10005846C0B202F08AFF0020944908705FF087
:100A20000009B9F1640F80F2F180904F3878002806
:100A30003DD16D1C012005F0F6FA0798A842F4D2CA
:100A40005846C0B200281FD1DFF8940A04F02AFBF0
:100A500004F0A2FBDFF88C0A04F024FB322005F03E
:100A6000E2FA012002F046FE322005F0DCFABDF881
:100A70001430BDF818200121002002F057FF4FF478
:100A8000FA6005F0D0FA0CE0DFF85C0A04F00AFB2B
:100A9000322005F0C8FA012002F02CFE322005F0C9
:100AA000C2FA04F079FB04F077FB1AF1010A002086
:100AB000387000200500DFF89C88DFF88804007893
:100AC000009069234246DFF830070178DFF82007FD
:100AD000007805F05DF9761C3000C0B20A28C0F23B
:100AE0008F80002006000127DFF810070078401CE7
:100AF000874280F28380012F05D138F817102DA08E
:100B000004F0EFFA73E0052F34DA38F9170000B279
:100B100005F0CCFA05F0DCFADFF83C28DFF83C38C9
:100B200005F0FAFA05F0CAFB04002000002105F0E8
:100B3000F9FB02D82FA004F0B5FA200005F004FC60
:100B400040B205F016FC8DF804009DF804000A2858
:100B500003DA29A004F0A6FA06E09DF80400642850
:100B600002DA24A004F09EFA0422210022A004F05C
:100B7000C7FA3CE0082F1FDA38F9170000B205F079
:100B800095FA05F0A5FADFF8D827DFF8D83705F091
:100B9000C3FA05F093FB04002000002105F0C2FB1E
:100BA00002D814A004F07EFA042221002AA004F046
:100BB000A7FA1CE0000000000422009238F9170098
:100BC00000B205F073FA05F083FADFF89C27DFF82E
:100BD0009C3705F0A1FA0022DFF8943705F0CEFB30
:100BE00005F06CFB0100009A1BA004F089FA7F1C41
:100BF0007AE700BF200000002020000004F0CCFABB
:100C0000012005F010FA19F101090AE7BDF8060004
:100C1000401CADF80600B7E604F0BEFADFF8980A0B
:100C200004F040FA5146DFF8940A04F04BFABFA0F2
:100C300004F038FA04F0B0FA04F0AEFA4FF4FA70A7
:100C400005F0F1F9022003F033FD0020FFF7DAFA96
:100C50002BB0BDE8F08F0000202020002F00000006
:100C60005A0700200C0700208096980059070020A2
:100C70005B070020520700202DE9F14FC4B0AD48BA
:100C80000078012805D0AC4804F00CFA04F084FA8E
:100C9000D5E004A84FF4807105F0E8F900240025A0
:100CA00000260020ADF8040000275FF000090A20AC
:100CB00002900520039002A804F023FF03A804F08B
:100CC00020FFDFF8FC0904F0EDF904F065FA04F008
:100CD00063FA022003F0ECFCC82002F0C1FEDFF84A
:100CE000DC1B08605FF000080298804580F08E8071
:100CF000DFF8509299F800000090962304AA56213C
:100D0000562005F045F80DF1100ABAF80200ADF8CA
:100D10000400BDF8040043F61001884267D10421A5
:100D2000352005F0EEF800200700039805F07BF968
:100D300040F2A91B99F8000000905B4604AA3421F8
:100D4000342005F025F8BAF8020005007F1C68057C
:100D500003D540F2DC508742E7D399F800000090B9
:100D60005B4604AA3C213C2005F012F8BAF80200C8
:100D7000060040F2DC50874201D2B0061CD5641C4C
:100D800018F10101DFF83C0904F09CF93C21DFF87F
:100D9000380904F0A6F9310089B2DFF8300904F00F
:100DA000A0F93900DFF8280904F08CF95FA004F0FD
:100DB00079F904F0F1F915E018F10101DFF80409FF
:100DC00004F080F93900DFF80C0904F07BF93100F8
:100DD00089B2DFF8040904F084F954A004F062F940
:100DE00004F0DAF94FF4FA7005F01DF90BE0641C19
:100DF0004146DFF8A00A04F065F9DFF89C0A04F028
:100E000051F904F0C9F918F101086DE704F0C4F9CB
:100E10000299DFF8B80A04F055F92100C9B2DFF8E9
:100E2000B00A04F04FF9DFF8AC0A04F03BF904F023
:100E3000B3F9022002F014FEDFF8801A086045B012
:100E4000BDE8F08FE4D10008ECD1000810B5040033
:100E500038480078012805D0374804F023F904F019
:100E60009BF926E0DFF888133E200870DFF8840342
:100E700010220270DFF880230B780078C318581E08
:100E800010701278521C0878121A022092FBF0F0AF
:100E9000DA490870DFF8400A04606420DFF81C1AA1
:100EA0000860DFF8381ADFF8600C05F056FB00F038
:100EB000E7F810BD000802400000024000040240B4
:100EC000000C02400014024010B5040019480078DC
:100ED000012805D0184804F0E5F804F05DF924E095
:100EE000C3493F200870C34814220270C24A0B78DD
:100EF0000078C318581E10701278521C0878121A05
:100F0000022092FBF0F0BD4908700120DFF8C819FB
:100F100008600A20DFF8A4190860DFF8C019DFF8BC
:100F2000E80B05F01AFB00F0ABF810BD290000003B
:100F300018CE0008CB00002010CA00082CCA0008F8
:100F400048CA0008CC00002038B50400DFF890093A
:100F50000078012806D0DFF88C0904F0A3F804F02B
:100F60001BF928E0A24941200870A2481E22027005
:100F7000A14A0B780078C318581E10701278521CC2
:100F80000878121A022092FBF0F09C490870DFF8F2
:100F900048090A210160DFF824590221296004F080
:100FA000B0FD280004F0ADFD8FA1DFF85C0B05F06B
:100FB000D4FA00F065F831BDD0CB00083CC400087D
:100FC000D8CC0008ECCC0008E8CB000860C40008CE
:100FD00028C8000838B50400DFF8040900780128A3
:100FE00006D0DFF8000904F05DF804F0D5F828E039
:100FF0007F49422008707F48182202707E4A0B7891
:101000000078C318581E10701278521C0878121AF3
:10101000022092FBF0F079490870DFF8BC080A2141
:101020000160DFF898580221296004F06AFD280069
:1010300004F067FD6DA1DFF8D00A05F08EFA00F02C
:101040001FF831BD4A070020F4D1000828CE00085F
:1010500048C8000884C4000814BD000864CA000819
:1010600080CA000894BE0008A4C00008CCC00008D4
:1010700068C800089CCA00089CD30008A0D30008D8
:101080002DE9F843DFF83448206802F0E9FC2060DD
:10109000206805F06DFA05F01BF802000B00002037
:1010A000DFF8681A05F072FA0022DFF8643A05F0FA
:1010B00033F80022DFF85C3A05F060F905F08AFBAE
:1010C00005000120FFF79EF8DFF84C6A3078002811
:1010D00009D02368DFF800080268454801784748CE
:1010E000007802F027FD0027DFF8EC87D8F8000031
:1010F00087426DD2DFF8240A0078002805D0DFF897
:10110000200A0078002804D1F9E7280080B204F012
:101110008AFF0020DFF8081A0870DFF83882DFF84D
:10112000040A007800906923424633480178304829
:10113000007804F02DFE3078002847D0DFF8C899F9
:101140004946DFF8980705F063FB002803D14046C5
:1011500002F038FD3AE049467BA005F059FB002833
:1011600003D1404602F0CCFD30E049461EA005F018
:101170004FFB002803D1404602F056FE26E04946C8
:101180001AA005F045FB002803D1404602F0C8FE36
:101190001CE049466DA005F03BFB002803D140460A
:1011A00002F0D4FF12E0494669A005F031FB0028A7
:1011B00003D1404603F068F808E04946C2A005F0B4
:1011C00027FB002802D1404603F0F8F87F1C8BE78C
:1011D0000020FFF717F80A20C8F80000642002F08A
:1011E0003FFC2060BDE8F1837330000073310000E4
:1011F000C7000020C8000020560700205707002025
:10120000FCD10008ECBE00081A1002401800024091
:1012100094BB00081810024088C8000800CC0008E1
:10122000A8C400082DE9F14F82B0DFF8B4060078B9
:10123000012806D0DFF8AC0603F034FF03F0ACFF62
:101240007DE000245FF0180B18208DF80400DFF813
:101250008886404604F055FCDFF8B8AA504604F0F2
:1012600050FC022003F024FADFF8AC9899F8000053
:1012700000280AD0DFF844060368D8F80020594651
:10128000C9B22000C0B202F055FC0025D8F8000019
:10129000854254D22F4EDFF88C08007800909623B8
:1012A00032009DF804105846C0B204F071FD99F860
:1012B000000000283BD0681C0A2803D283A003F05A
:1012C000F1FE0DE0681C642803D281A003F0EAFE61
:1012D00006E0681CB0F57A7F02D27EA003F0E2FE41
:1012E000691C7DA003F0EEFE7CA003F0DBFE01276D
:1012F0002000C0B2401C874219DA0422009236F95D
:10130000170000B204F0D2FE04F0E2FE164A174BBA
:1013100004F002FF0022164B05F030F804F0CEFF77
:101320000100009A6AA003F0EBFE7F1CE0E703F0E7
:1013300033FFDAF8000004F076FE6D1CA6E7BDE886
:10134000F78F0000C0BE0008663100006131000068
:1013500061320000FC0300207B14AE47E17A743F49
:10136000FCA9F1D24D62303F764B5CF069B7B23FD9
:1013700000003F4038CE000848CE0008CCC400082A
:1013800004D200082DE9F14F82B0DFF8540500784F
:10139000012806D0DFF84C0503F084FE03F0FCFEC4
:1013A00090E000255FF00A0B0E208DF804009DF8F8
:1013B0000410891C5846C0B2091A022091FBF0F9AA
:1013C000DFF81485404604F09CFBDFF8480904F080
:1013D00098FB022003F06CF9DFF83CA79AF80000B4
:1013E00000280AD0DFF8D4040368D8F80020594652
:1013F000C9B24846C0B202F09DFB0025D8F80000F3
:1014000085425FD2DFF81069DFF818070078009096
:10141000962332009DF804105846C0B204F0B8FC80
:101420009AF80000002844D0681C0A2803D227A09C
:1014300003F038FE0DE0681C642803D224A003F0FA
:1014400031FE06E0681CB0F57A7F02D221A003F0DD
:1014500029FE691C20A003F035FEDFF8900A03F096
:1014600021FE01274846C0B2401C87421EDA36F9E9
:10147000170000B204F01AFE04F02AFEDFF8702A0A
:10148000DFF8703A04F048FE04F018FF0400200072
:10149000002104F047FF02D80EA003F003FE04224F
:1014A00021000BA003F02CFE7F1CDBE77EA003F0E5
:1014B000F9FD03F071FEDFF85C08006804F0B3FD8D
:1014C0006D1C9BE7BDE8F78F6E31000020202000E7
:1014D0002020000020000000000000003A20200032
:1014E000F0C40008F4C0000814C500082DE9F14F4D
:1014F00082B0DFF8EC030078012806D0DFF8E403BF
:1015000003F0D0FD03F048FECBE004208DF804008A
:1015100006208DF806009DF804109DF8060041187D
:10152000481E8DF805009DF80510491C9DF8040023
:10153000091A022091FBF0FBDFF89C830A20C8F80F
:101540000000DFF8784302202060404604F0D9FA1A
:10155000200004F0D6FA206802F082FA206003200E
:1015600003F0A6F80120FEF74DFEDFF8AC05007889
:10157000002808D02368D8F800209DF804105846A9
:10158000C0B202F0D7FA0025D8F8000085427BD21D
:10159000DFF88C1508780028FAD000200870DFF8F2
:1015A0007867DFF8800500780090962332009DF878
:1015B00005109DF8040004F0EBFBDFF85C050078F3
:1015C00000285CD0681C0A2803D238A003F06AFD0A
:1015D0000DE0681C642803D235A003F063FD06E02B
:1015E000681CB0F57A7F02D2A9A003F05BFD691CEC
:1015F00030A003F067FDDFF8F40803F053FD012786
:101600005846C0B2401C874234DA36F9170000B29F
:1016100004F04CFD04F05CFDDFF8602ADFF8603A6E
:1016200004F07AFD04F04AFE81464846002104F0A9
:1016300079FE02D896A003F035FD484604F084FEFA
:1016400040B204F096FE82465046C0B20A2803DA41
:1016500017A003F027FD06E05046C0B2642802DA66
:101660008BA003F01FFD0422494611A003F048FDA2
:101670007F1CC5E70CA003F015FD03F08DFD0120D4
:1016800004F0D1FC6D1C7FE70020FEF7BBFD0220BB
:1016900003F00EF80A20C8F80000022002F0E0F97A
:1016A0002060BDE8F78F0000203E000020202000D1
:1016B0002020000000000000A8C8000818CC000886
:1016C000C8C8000898CF000858CE00080CD20008FF
:1016D00000CD0008B8CA0008ACBC00082DE9F14FE5
:1016E00082B07F480078012805D07E4803F0DAFCFC
:1016F00003F052FDC9E000255FF0040B0E208DF8C9
:1017000004009DF80410891C5846C0B2091A022032
:1017100091FBF0FADFF8C091484604F0F2F9DFF8E7
:10172000F40504F0EEF9022002F0C2FFDFF8E8034E
:101730000078002809D061480368D9F8002059468C
:10174000C9B25046C0B202F0F5F90025D9F8000040
:10175000854280F09A80DFF8C065DFF8C803007822
:101760000090962332009DF804105846C0B204F051
:101770000FFBDFF8A4030078002800F07F80681CCE
:101780000A2803D24EA003F08DFC0DE0681C6428EB
:1017900003D24CA003F086FC06E0681CB0F57A7F0B
:1017A00002D23BA003F07EFC691C47A003F08AFC38
:1017B000DFF8380703F076FC01275046C0B2401C22
:1017C000874256DA042F33DA36F9170000B204F0F4
:1017D0006DFC04F07DFCDFF8A428DFF8A43804F0E9
:1017E0009BFC04F06BFD04002000002104F09AFD36
:1017F00002D827A003F056FC200004F0A5FD40B25B
:1018000004F0B7FD80464046C0B20A2803DA2DA096
:1018100003F048FC06E04046C0B2642802DA1CA08F
:1018200003F040FC0422210026A003F069FC1EE026
:10183000072F1CDA36F9170000B204F037FC04F069
:1018400047FCDFF8AC26DFF8AC3604F065FC04F0AA
:1018500035FD04002000002104F064FD02D80CA036
:1018600003F020FC0422210016A003F049FC7F1C99
:10187000A3E7A4A003F016FC03F08EFCDFF89404A9
:10188000006804F0D0FB6D1C60E7BDE8F78F000036
:101890002000000068CE000844BD000838B50400F0
:1018A000DFF8805C4FF40041280003F00AFF00BF1E
:1018B0004FF40041280003F002FF31BD0800002072
:1018C00020202000202000000000000030CC000874
:1018D00078CE0008A4CF00080000002014D2000831
:1018E000CB00002010CA00082DE9F14FC4B0DFF88A
:1018F000F0080078012806D0DFF8E80803F0D2FBF2
:1019000003F04AFCFBE004A84FF4807104F0AEFB46
:101910000026002700200390012001900120029062
:10192000002400255FF0010803A804F0EAF801A8EC
:1019300004F0E7F802A804F0E4F8DDF80C90CB46D8
:101940005FFA8BFB0198401E1BEB400B0120FEF75A
:1019500059FC032002F0ACFEDFF8BCA19AF80000AD
:10196000002829D00199DFF8800803F0ABFB01982B
:10197000012804D1DFF8740803F094FB03E0DFF8DA
:10198000700A03F08FFB4946C9B2DFF8680A03F01A
:10199000A8FB0299DFF8600A03F094FB0298012883
:1019A00004D1DFF8580A03F07DFB03E0DFF8500AAA
:1019B00003F078FB03F0F0FB00260298864280F0EB
:1019C0009B80574908780028FBD0002008705548B4
:1019D00000780090692304AA5946C9B24846C0B2AB
:1019E00004F0D6F99AF80000002800F0838001275F
:1019F0000198401C87427BD24846C0B2791E10EB4A
:101A0000410004002000C0B203280ADA04A830F81C
:101A10001710A4A003F065FBDFF8200B03F042FBD6
:101A200064E02000C0B2092833DA04A830F91700B6
:101A300000B204F03BFB04F04BFBDFF84026DFF87C
:101A4000403604F069FB04F039FC05002800002151
:101A500004F068FC02D894A003F024FB280004F0F2
:101A600073FC04F086FC80464046C0B20A2803DAC4
:101A7000A6A003F017FB06E04046C0B2642802DAD5
:101A800089A003F00FFB04222900A0A003F038FB7B
:101A90002CE02000C0B20F281EDA04A830F917008D
:101AA00000B204F003FB04F013FBDFF84424DFF87A
:101AB000443404F031FB04F001FC0500280000214F
:101AC00004F030FC02D278A003F0ECFA04222900E2
:101AD0008EA003F015FB09E004A830F8171071A0E0
:101AE00003F0FFFADFF8540A03F0DCFA7F1C7FE70B
:101AF00003F052FB761C60E7022002F0D9FD45B0EE
:101B0000BDE8F08F203E0000FC0600200000F03F02
:101B100000408F400000E03FCA000020C9000020C4
:101B200059070020CC0000202DE9F84FC4B0040074
:101B3000DFF8AC060078012806D0DFF8A80603F02D
:101B4000B1FA03F029FBAAE004A84FF4807104F075
:101B50008DFA04200390012002900A200190DFF802
:101B6000E459C820286003A803F0CBFF02A803F0C3
:101B7000C8FF01A803F0C5FF280003F0C2FF039EC1
:101B80000298C0B216EB4000471E286801F068FFBB
:101B90002860022002F08CFD0120FEF733FBDFF805
:101BA000A889002088F80000DFF8A09999F80000C3
:101BB000002831D00299DFF8300603F083FA02984A
:101BC000012804D1DFF8240603F06CFA03E0DFF803
:101BD000200803F067FA3100C9B2DFF8180803F0F3
:101BE00080FA0199DFF8100803F06CFA01980128D7
:101BF00004D1DFF8080803F055FA03E0DFF8000825
:101C000003F050FA2968DFF8480903F05BFA40A0B6
:101C100003F048FA03F0C0FA5FF0000A0198824529
:101C200031D298F800000028FBD0002088F800008E
:101C3000DFF8200900780090962304AA3900C9B281
:101C40003000C0B204F0A4F899F80000002814D0C5
:101C50005FF0010B0298401C83450CD204A830F8B9
:101C60001B1010A003F03DFADFF8D00803F01AFAB9
:101C70001BF1010BEEE703F08FFA012004F0D3F91A
:101C80001AF1010ACAE70020FEF7BCFA022002F0AE
:101C90000FFD0A200190022001F0E2FE286045B00D
:101CA000BDE8F08F30780000200000001CB5040073
:101CB000DFF82C050078012806D0DFF8280503F0AE
:101CC000F1F903F069FA20E0712001900F200090F3
:101CD00001A803F016FF684603F013FF0099C9B28C
:101CE0000198C0B204F00DF9DFF860080078002810
:101CF0000BD00099DFF8600803F0F3F90199DFF8E1
:101D0000D40C03F0EEF903F047FA13BD20200000D5
:101D100020487A0004000020FC0300202DE9F8434D
:101D2000C2B00500DFF8B8040078012806D0DFF85B
:101D3000B40403F0B7F903F02FFAD3E002A84FF48C
:101D4000807104F093F9002652275FF05A080120B1
:101D50000190022002F0ACFC01A803F0D2FE019831
:101D6000FB2801D3FA20019000240198844280F0DE
:101D7000B9804146C9B23800C0B2091A022091FBAD
:101D8000F0F0401C06005FF000093000C0B2814551
:101D90001AD2DFF8C00700780090962302A800EB63
:101DA00089024846C0B217EB4001491CC9B238004D
:101DB000C0B210EB4900C0B203F0EAFF012004F00A
:101DC00032F919F10109E0E75FF00009B9F10C0FF0
:101DD00008DA02A830F81910A3A003F082F919F16B
:101DE0000109F3E7DFF864070078002873D0002CBE
:101DF0002AD13100C9B2DFF8F00303F063F93000F3
:101E0000C0B2012804D1DFF8E40303F04BF903E08A
:101E1000DFF8DC0503F046F93900C9B2DFF83C070A
:101E200003F05FF9019991A003F04CF901980128A2
:101E300004D1DFF82C0703F035F903E0DFF82407BD
:101E400003F030F903F0A8F9092C04D2611C88A032
:101E500003F038F90AE0632C04D2611C85A003F07A
:101E600031F903E0611C80A003F02CF9DFF8F806DB
:101E700003F018F95FF001093000C0B2401C814541
:101E800027DAB9F1030F09D102A85FEA490100EB93
:101E90004100418878A003F024F917E0B9F1040F5C
:101EA0000AD102A85FEA490100EB410030F8061CA4
:101EB0006DA003F016F909E002A85FEA490100EB02
:101EC000410030F8021C6CA003F00BF919F1010974
:101ED000D2E703F061F9DFF80C0B006804F0A3F817
:101EE000641C42E743B0BDE8F08300001CD2000848
:101EF000FCA9F1D24D62303F2DE9F04786B00400D5
:101F000000250A2603A800210022002380E80E00F5
:101F1000684600210022002380E80E00002055279B
:101F20000A218DF80C100DF10C08092188F8011018
:101F3000082188F80210072188F80310062188F884
:101F40000410052188F80510042188F806100321E3
:101F500088F80710022188F80810012188F8091074
:101F6000B9464946C9B23A00D2B2300080B28218AE
:101F7000914214DA4946C9B23800C0B2091A0D00BC
:101F8000280080B218F800104846C0B203F0B9FF2C
:101F900069462A0092B2885419F10109E1E74946DD
:101FA000C9B2DFF8440A03F09CF803F0F5F85FF0DB
:101FB000000A5046310080B289B2884214D250469D
:101FC00080B218F80010DFF8240A03F08AF8684697
:101FD000514689B2415CDFF8900A03F082F803F0C1
:101FE000DBF81AF1010AE4E706B0BDE8F0873EB578
:101FF0000400032001904FF4FA70009001A803F050
:1020000080FD684603F07DFDDFF8E4590198286003
:102010002968DFF8E00903F055F80099DFF8D809DE
:1020200003F050F8DFF8440A03F03CF82868002871
:1020300011D0032004F0F6FB0098400803F0F3FFF2
:10204000032004F0F6FB0098400803F0ECFF28683A
:10205000401E2860EAE703F09FF837BD10B5040082
:1020600004F071FC10BD00002000000029200000D9
:102070002020200020200000000000007B14AE473C
:10208000E17A743F2DE9F84FC4B004005448007859
:10209000012805D0534803F005F803F07DF899E0D6
:1020A00004A84FF4807103F0E1FF042003900120A5
:1020B00002900A200190DFF88C540220286003A8C7
:1020C00003F01FFD02A803F01CFD01A803F019FD99
:1020D000280003F016FDDFF80C894FF47A702968A8
:1020E000B0FBF1F0C8F80000039E0298C0B216EBF6
:1020F0004000471E04202860022002F0D9FADFF8D1
:102100004C9499F8000000282AD00299364802F031
:10211000D9FF0298012803D1344802F0C3FF02E03E
:10212000B34802F0BFFF3100C9B2B24802F0D9FF94
:102130000199B14802F0C6FF0198012803D1AF48C8
:1021400002F0B0FF02E0AE4802F0ACFF2968DFF811
:10215000000402F0B7FF21A002F0A4FF03F01CF876
:102160005FF0000A019882452BD2DFF8E80300787F
:102170000090962304AA3900C9B23000C0B203F01F
:1021800007FE99F80000002814D05FF0010B0298B8
:10219000401C83450CD204A830F81B1093A002F019
:1021A000A0FFDFF8980302F07DFF1BF1010BEEE7C3
:1021B00002F0F2FFD8F8000003F035FF1AF1010A2F
:1021C000D0E7022002F074FA0A200190022001F008
:1021D00047FC286045B0BDE8F08F000020487A0039
:1021E000CB00002010CA0008B0CF000824D200089D
:1021F0002DE9F14F82B0DFF878080078012806D089
:10220000DFF8700802F04EFF02F0C6FFECE040205D
:102210008DF8040081208DF805009DF80510491CFB
:102220009DF80400091A022091FBF0F50120FDF74A
:10223000E9FFDFF84498484603F063FCDFF8A407A1
:1022400003F05FFC032002F033FAC0480078002856
:1022500009D0BC480368D9F800209DF80410280074
:10226000C0B201F067FC5FF0000AD9F800008245B7
:1022700080F0B480B44908780028FBD000200870B2
:10228000DFF8F8B7B3480078009069235A469DF804
:1022900005109DF8040003F07BFDAC480078002891
:1022A00000F0948000242800C0B2401C844280F2D8
:1022B0008B80002C0AD1DFF8C80702F0F3FE5146EC
:1022C00099A002F0FFFE002080467BE02800C0B20B
:1022D00084426ADA012C05D102F05EFFDFF8A40720
:1022E00002F0E0FE072C05D102F056FFDFF8980758
:1022F00002F0D8FE0D2C05D102F04EFFDFF88C075E
:1023000002F0D0FE132C05D102F046FFDFF8800763
:1023100002F0C8FE192C05D102F03EFFDFF8740769
:1023200002F0C0FE1F2C05D102F036FFDFF868076F
:1023300002F0B8FE4046C0B2002806D13BF81400B7
:1023400000040600012080463CE04046C0B201285F
:1023500025D13BF81400064300208046132C05DAF3
:102360003000C009B0F5004007000BE01F2C05DA73
:102370003000800BB0F50040070003E03000B0F5FE
:1023800000400700310069A002F0ABFE390009B23D
:1023900067A002F097FE64A002F084FE12E03BF812
:1023A000141064A002F09DFE0CE002F0F5FEDFF8D0
:1023B000800902F077FE3BF814105FA002F091FE56
:1023C00002F0EAFE641C6EE702F0E6FEDFF8140697
:1023D000006803F028FE1AF1010A46E70020FDF725
:1023E00011FF022002F064F9BDE8F78F3078000099
:1023F0002CD2000838C50008BCCF000834D2000831
:102400003CD200082DE9FC470400DFF864060078A0
:10241000012806D0DFF85C0602F044FE02F0BCFEA4
:102420007EE04325622600270120FDF7EBFEDFF862
:10243000480603F066FBDFF8AC0503F062FB022000
:1024400002F036F9DFF83486DFF8089199F80000D9
:102450000090692342463100C9B22800C0B203F09F
:1024600097FC4FF4FA7003F0DEFD99F8000000903D
:10247000692342463100C9B22800C0B203F088FC8B
:10248000DFF8B00802F00EFEB8F820A0DFF8A808C8
:102490001AF4006101800088002806D1DFF89C084A
:1024A00002F000FE02F078FE2DE0DFF8940802F062
:1024B000F9FD02F071FE99F8000000906923424690
:1024C0003100C9B22800C0B203F062FC7F1C3800A2
:1024D000C0B2042804D10020070019A002F0E2FDD8
:1024E000FA2003F0A0FDB8F8200010F400600128E5
:1024F000E1DA02F051FE02F04FFEDFF8400802F090
:10250000D1FD02F049FE0020FDF77CFE642003F0BF
:102510008AFD0021002003F0F4FC642003F083FD19
:10252000BDE8F387000002402000000020202000CA
:10253000203D2000202000000000000044D20008C0
:102540002E0000000800002059070020CA000020CB
:102550004CD20008CC000020C8CF0008E8C8000812
:1025600054D200085CD2000864D200082DE9F14F73
:1025700086B0DFF8FC040078012806D0DFF8F40408
:1025800002F090FD02F008FE1EE243208DF80500E7
:1025900020208DF809009DF805109DF809004118CC
:1025A000481E8DF808009DF80810491C9DF805008C
:1025B000091A022091FBF0F08DF804000A20DFF8E0
:1025C000B81408600220DFF87C170860DFF8A80460
:1025D00003F097FADFF86C0703F093FADFF864076B
:1025E000006801F03DFADFF85C1708605FF0000852
:1025F000DFF8549700240025DFF85007007800909A
:102600006923DFF878243621362003F0C1FBDFF898
:102610006C04408880B2000AADF80C00BDF80C10C4
:10262000DFF82C0702F05DFD02F0B6FD0120FDF79A
:10263000E9FD022002F03CF8DFF8180700780028D6
:1026400039D09DF80410DFF8100702F03BFD9DF82B
:102650000400012804D1DFF8040702F023FD03E0A1
:10266000DFF8FC0602F01EFD9DF80510DFF8F40609
:1026700002F037FDDFF800040168DFF8EC0602F035
:1026800021FDDFF8F4030068012804D1DFF8DC063F
:1026900002F008FD03E0DFF8D80602F003FDDFF8E2
:1026A000A4060168DFF8CC0602F00CFDC8A002F019
:1026B000F9FC02F071FD00200490DFF8BC6304987F
:1026C0003168884280F07281DFF8AC160878002803
:1026D000FAD000200870DFF8A473DFF870060078E5
:1026E000009069233A009DF808109DF8050003F05A
:1026F0004FFBDFF860060078002800F050810026CC
:102700009DF80400B042C0F24881002E00F04381E1
:102710009DF80400864280F23581012E04D100200C
:10272000DFF8581680468946042E04D10020DFF8D1
:10273000501680468946072E04D10020DFF8441643
:10274000804689460A2E04D10020DFF838168046DC
:1027500089460D2E04D10020DFF82C1680468946CC
:1027600037F81600ADF80A00BDF90A0000B2ADF85E
:102770000600042E3ADABDF9060004F023F94246B9
:102780004B4603F0C9FC04000D0020002900002284
:10279000002304F029F902D88FA002F083FCA2469E
:1027A000AB463BF0004B504659460022DFF8DC3583
:1027B00004F032F903D289A002F074FC0AE050461A
:1027C00059460022DFF8C83504F026F902D282A06B
:1027D00002F068FC042200922000290003F06EFD44
:1027E0000100009A7EA002F08BFCD4E0072E3ADABA
:1027F000BDF9060004F0E6F842464B4603F08CFCB7
:1028000004000D00200029000022002304F0ECF851
:1028100002D871A002F046FCA246AB463BF0004B4A
:10282000504659460022DFF8643504F0F5F803D22B
:102830006AA002F037FC0AE0504659460022DFF851
:10284000503504F0E9F802D263A002F02BFC042218
:1028500000922000290003F031FD0100009A60A0E1
:1028600002F04EFC97E00A2E1FDABDF9060004F0D4
:10287000A9F842464B4603F04FFC04000D0020002F
:1028800029000022002304F0AFF802D852A002F081
:1028900009FC042292462000290003F00FFD0100EC
:1028A00052464FA002F02CFC75E00D2E1FDABDF948
:1028B000060004F087F842464B4603F02DFC040066
:1028C0000D00200029000022002304F08DF802D81A
:1028D00041A002F0E7FB042292462000290003F009
:1028E000EDFC010052463EA002F00AFC53E00D2E22
:1028F0003AD1BDF9060004F065F842464B4603F0B4
:102900000BFC04000D00200029000022002304F02D
:102910006BF802D830A002F0C5FBA246AB463BF0F4
:10292000004B504659460022DFF8603404F074F83A
:1029300003D22AA002F0B6FB0AE050465946002214
:10294000DFF84C3404F068F802D223A002F0AAFBAE
:10295000042200922000290003F0B0FC0100009A3C
:102960001FA002F0CDFB16E00E2E05D1BDF80A1017
:102970001BA002F0A7FB0EE037F8161018A002F01B
:10298000B0FB08E037F81600ADF80A00BDF80A10F1
:1029900013A002F0A6FB761CB2E602F0FDFB0120BC
:1029A00003F041FB0498401C049086E60020FDF7EC
:1029B00029FC022001F07CFE0A203060022001F098
:1029C0004FF8DFF88013086007B0BDE8F08F000013
:1029D00020487A005CC5000820000000202000008C
:1029E000202020000400002074BD00086CD20008E4
:1029F0001007002088CE0008E0CF0008F8B50400DA
:102A00001B480078012805D01A4802F04BFB02F061
:102A1000C3FB27E005250026032001F049FE00271F
:102A20003800290080B289B2884218D2390089B2B0
:102A3000DFF8280D02F046FB02F0AEFB0020FEF7A7
:102A400005FA0020FEF780FA0020FEF7C3FA002006
:102A5000FFF78CFD0020FEF737FA7F1CE0E702202D
:102A600001F026FEF1BD0000D4CF0008ECCF000835
:102A7000CB00002010CA000800000020FC0300204A
:102A8000F8CF000874D200087CD2000884D2000875
:102A900098CE000804D00008A8CE00082DE9F14F18
:102AA000C6B0DFF8400C0078012806D0DFF8380CFB
:102AB00002F0F8FA02F070FB32E105A84FF48071E1
:102AC00003F0D4FA00275FF0FA0A00208DF808001E
:102AD00000208DF804000021502003F012FADFF8E6
:102AE0000C0C03F039F9DFF8080C02F0DBFA02F005
:102AF00053FB0024954E3078009040F2A91305AAAC
:102B00005021502003F044F987A002F0CBFABDF821
:102B100016000700641C504603F085FA380080B2A6
:102B200000F0FF000B28E5D102F036FBDFF8340C93
:102B300002F0B8FA02F030FB48208DF808005FF090
:102B4000500BDFF8245C3078009096232A00594619
:102B5000C9B29DF8080003F01BF974A6698830001B
:102B600002F0BFFA02F018FBA988300002F0B9FAAF
:102B700002F012FBE988300002F0B3FA02F00CFB1D
:102B80002989300002F0ADFA02F006FB69893000B5
:102B900002F0A7FA02F000FB5FF00008DFF8CC9B20
:102BA000B5F9020000B203F081FA03F091FA0200D5
:102BB0000B004046494603F0AFFACDE90001002280
:102BC000DFF8743C00205FF0804104F0C1FA03F0AC
:102BD00075FB03F07DFA02000B00DDE9000103F054
:102BE000D5FC03F06BFB039003AEB5F9040000B213
:102BF00003F05CFA03F06CFA42464B4603F08CFAA1
:102C0000804689460022DFF8303C00205FF080419A
:102C100004F09EFA03F052FB03F05AFA02000B0094
:102C20004046494603F0B2FC03F048FB7060E88878
:102C300003F09EFC03F04CFA00225FF0804303F0A7
:102C40006BFA804689460022DFF8EC3B00205FF0FB
:102C5000804104F07DFA03F031FB03F039FA020001
:102C60000B004046494603F091FC03F027FB8046E9
:102C7000B5F9080000B203F019FA03F029FADFF8F9
:102C8000BC2BDFF8BC3B03F047FACDE90001002282
:102C9000DFF8B03B00205FF0804104F059FA0022D9
:102CA000DFF8703C03F06AFB03F008FB03F010FA56
:102CB00002000B00DDE9000103F068FC0022DFF8F0
:102CC000583C03F029FADFF8742BDFF8503C03F08E
:102CD0005DFC03F0F3FA050004220399DFF8400CD1
:102CE00002F00EFA02F058FA04227168DFF8340C90
:102CF00002F006FA02F050FA04224146DFF8280CEE
:102D000002F0FEF902F048FA04222900DFF8200D53
:102D100002F0F6F902F040FA0021002003F0F1F889
:102D200047B0BDE8F08F00002E00000030780000B2
:102D30008CD2000814CD00084C07002080C5000884
:102D4000A4C50008080000200000F03FCC000020CF
:102D500010D00008CA00002028CD000894D2000836
:102D60009CD2000848CC0008BCCF000834D2000830
:102D70003CD200084CD20008590700200080763F62
:102D800000B0933F0000343F0000693F0000244042
:102D9000000059402DE9F14F8EB0DFF84809007866
:102DA000012807D0DFF8400902F07CF902F0F4F9BD
:102DB00000F095BC0AA8DFF87C1C0A68026009A82C
:102DC000DFF8741C0A68026003A8DFF8701C0A6848
:102DD00002600CA8DFF8681C0A6802600021032961
:102DE00012DA04AA03AB5E5C0CA8405C8619701E64
:102DF0005054525C521C585C121A022092FBF0F0A4
:102E00000BAA5054491CEAE701208DF80400002069
:102E1000089005A8DFF82C1CD1E90023C0E90023A5
:102E20000320029002A802F06CFE05A802F069FEE1
:102E300006A802F066FE4FF6DD700299814202D3C9
:102E40004FF6DC7102910599814202D34FF6DC7195
:102E500005910699814202D34FF6DC70069000205E
:102E6000DFF8E41B08700A208DF80500022001F04D
:102E70001FFC012000F03EFC4FF4FA7003F0D3F881
:102E80000120FDF7BFF9C82003F0CDF8DFF8BC0B37
:102E900002F008F902F080F9DFF80C0D0121018041
:102EA0004FF40041DFF8042D1180042101804FF41C
:102EB000FA6003F0B8F8DFF8980B02F0F3F802F0CC
:102EC0006BF9DFF8EC6C012030804FF4C87003F030
:102ED000AAF80420308002F05FF9DFF8780B02F0E6
:102EE000E1F802F059F9642003F09DF800F0ACFC21
:102EF0005FF0000B41F288300D90DFF85C0B02F0C0
:102F0000D1F802F049F94FF4FA7003F08CF802F0AE
:102F100043F9DFF8480B02F0C5F802F03DF94FF431
:102F2000FA7003F080F80020DFF81C1B0870002006
:102F300007900798642880F28881DFF80C1B0878D6
:102F40000028FAD000200870DFF81C68DFF8647CE5
:102F500038780090692332009DF810109DF80C001D
:102F600002F016FF0DF110080DF10C0938780090F1
:102F7000692316F1220298F8011099F8010002F075
:102F800007FF38780090692316F1260298F802109E
:102F900099F8020002F0FCFE9DF80500401C8DF837
:102FA00005009DF805000A28C0F2488100208DF830
:102FB000050001279DF82C00401C874280F2D48038
:102FC000042F32DA36F9170000B203F06FF803F07D
:102FD0007FF80022DFF8E43B03F09EF803F06EF97F
:102FE00004002000002103F09DF902D8A8A002F0FF
:102FF00059F8200003F0A8F940B203F0BAF905002F
:103000002800C0B20A2803DAA2A002F04BF806E0BA
:103010002800C0B2642802DA9DA002F043F804221E
:1030200021009CA002F06CF89CE0072F32DA36F900
:10303000170000B203F03AF803F04AF80022DFF874
:10304000803B03F069F803F039F904002000002107
:1030500003F068F902D88EA002F024F8200003F0F3
:1030600073F940B203F085F905002800C0B20A28C0
:1030700003DA88A002F016F806E02800C0B264283F
:1030800002DA83A002F00EF80422210081A002F0EF
:1030900037F867E00A2F1CDA36F9170000B203F0A0
:1030A00005F803F015F80022DFF8443C03F034F88B
:1030B00003F004F904002000002103F033F902D8E2
:1030C00073A001F0EFFF0422210072A002F018F8B3
:1030D00048E00D2F1CDA36F9170000B202F0E6FFC7
:1030E00002F0F6FF0022DFF8083C03F015F803F0C9
:1030F000E5F804002000002103F014F902D864A0D0
:1031000001F0D0FF0422210062A001F0F9FF29E0C4
:103110000E2F1ADA0FF27C180422914636F91700A6
:1031200000B202F0C3FF02F0D3FF0022DFF8C43B7D
:1031300002F0F2FF03F0C2F801004A46404601F0F7
:10314000DFFF404601F0AEFF0CE0102F05DA36F845
:103150001710CAA001F0C5FF04E036F817104DA003
:1031600001F0BFFF7F1C25E7DFF88C8BDFF88C9B1D
:10317000B6F9240000B202F099FF02F0A9FF42461E
:103180004B4602F0C9FF03F099F8824650460021F1
:1031900003F0C8F802D83EA001F084FF504603F0C7
:1031A000D3F840B203F0E5F88DF800009DF8000078
:1031B0000A2803DA37A001F075FF06E09DF8000049
:1031C000642802DA32A001F06DFF32A704225146D2
:1031D000380001F095FFB6F9280000B202F066FF52
:1031E00002F076FF42464B4602F096FF03F066F887
:1031F00004002000002103F095F802D824A001F07B
:1032000051FF200003F0A0F840B203F0B2F805002F
:103210002800C0B20A2803DA380001F043FF06E0B4
:103220002800C0B2642802DA19A001F03BFF042292
:103230002100380001F064FF01F0AEFF012002F030
:10324000F2FE0798401C079073E60020ADF80600D8
:10325000BDF806000299B0EB410F80F024829DF882
:103260000400401C8DF804009DF80400022802DBD5
:1032700000208DF8040001F08FFF9DF80400002865
:103280000AD10599DFF8880B01F01CFF09E000BFA7
:1032900020000000202000000699DFF8780B01F0E4
:1032A00011FFBDF80610491CDFF86C0B01F00AFF96
:1032B00002984100D4A001F005FFDFF8600B01F097
:1032C000F1FE4FF4FA7002F0AEFE09A89DF804106A
:1032D00030F811300AA89DF8041030F8112005A824
:1032E0009DF8041050F8211089B29DF8040000F0F8
:1032F0001DFB0020DFF8501708700020079007988A
:10330000642880F2CA81DFF84067307800283FD116
:103310001BF1010B012002F086FE0D985845F2D2F8
:103320009DF8040000281FD1DFF8F40A01F0BAFE6E
:1033300001F032FFDFF8EC0A01F0B4FE322002F0B7
:1033400072FE012000F0D6F9322002F06CFEBDF8CA
:103350002430BDF828200121002000F0E7FA4FF4C6
:10336000FA6002F060FE0CE0DFF8AC0B01F09AFEB0
:10337000322002F058FE012000F0BCF9322002F0A9
:1033800052FE01F009FF01F007FF0898401C089069
:103390000020307000208346DFF8CC63DFF814781B
:1033A00038780090692332009DF810109DF80C00C9
:1033B00002F0EEFC0DF110080DF10C0938780090C8
:1033C000692316F1220298F8011099F8010002F021
:1033D000DFFC38780090692316F1260298F8021075
:1033E00099F8020002F0D4FC9DF80500401C8DF80D
:1033F00005009DF805000A28C0F2488100208DF8DC
:10340000050001279DF82C00401C874280F2D280E5
:10341000042F35DA36F9170000B202F047FE02F049
:1034200057FE0022DFF8943702F076FE02F046FFE6
:1034300004002000002102F075FF02D8C5A001F0B1
:1034400031FE200002F080FF40B202F092FF050042
:103450002800C0B20A2803DABFA001F023FE06E06C
:103460002800C0B2642802DABAA001F01BFE0422D0
:103470002100B9A001F044FE9AE000BF0000000066
:10348000072F32DA36F9170000B202F00FFE02F011
:103490001FFE0022DFF8283702F03EFE02F00EFF8A
:1034A00004002000002102F03DFF02D8A9A001F095
:1034B000F9FD200002F048FF40B202F05AFF05007B
:1034C0002800C0B20A2803DAA3A001F0EBFD06E051
:1034D0002800C0B2642802DA9EA001F0E3FD0422B5
:1034E00021009DA001F00CFE62E00A2F1CDA36F9E3
:1034F000170000B202F0DAFD02F0EAFD0022DFF868
:10350000F03702F009FE02F0D9FE0400200000218D
:1035100002F008FF02D88FA001F0C4FD04222100B0
:103520008FA001F0EDFD43E00D2F1CDA36F91700F6
:1035300000B202F0BBFD02F0CBFD0022DFF8B03795
:1035400002F0EAFD02F0BAFE04002000002102F0C1
:10355000E9FE02D87FA001F0A5FD0422210080A091
:1035600001F0CEFD24E00E2F15DA0422904636F944
:10357000170000B202F09AFD02F0AAFD0022DFF867
:10358000743702F0C9FD02F099FE0100424674A0B2
:1035900001F0B6FD0CE0102F05DA36F8171070A018
:1035A00001F09FFD04E036F817106DA001F099FDC1
:1035B0007F1C27E7DFF84087DFF84097B6F9240043
:1035C00000B202F073FD02F083FD42464B4602F06A
:1035D000A3FD02F073FE82465046002102F0A2FED7
:1035E00002D85CA001F05EFD504602F0ADFE40B294
:1035F00002F0BFFE8DF800009DF800000A2805DAF1
:1036000055A001F04FFD08E02F0000009DF80000DC
:10361000642802DA4FA001F045FD4FA7042251466D
:10362000380001F06DFDB6F9280000B202F03EFD51
:1036300002F04EFD42464B4602F06EFD02F03EFEA9
:1036400004002000002102F06DFE02D841A001F02C
:1036500029FD200002F078FE40B202F08AFE05004B
:103660002800C0B20A2803DA380001F01BFD06E08A
:103670002800C0B2642802DA36A001F013FD04224B
:103680002100380001F03CFD01F086FD012002F030
:10369000CAFC0798401C079031E6BDF80600401CA4
:1036A000ADF80600D4E501F077FDDFF8980A01F0E7
:1036B000F9FC0899DFF8900A01F004FD94A001F0EC
:1036C000F1FC01F069FD01F067FD4FF4FA7002F0C2
:1036D000AAFC022000F0ECFF0020FCF793FD0FB0E5
:1036E000BDE8F08FCB00002010CA0008003C00406D
:1036F0003CCD000838B5A2B0050001A8842102F035
:10370000B5FCDFF8B00400780090962301AA56219A
:10371000562002F03DFB2800C0B2002816D0BDF8AC
:10372000060043F61001884206D1DFF8540B01F081
:10373000B9FC0120040005E0DFF8700C01F0B2FCD8
:103740000020040001F028FD01F026FD2000C0B299
:1037500023B030BD2000000020200000A4D20008CB
:103760002020200050CD0008FC0300200000344041
:10377000F8B5A2B001A8842102F078FC40F2A914A7
:10378000DFF8305428780090230001AA3C213C2027
:1037900002F0FEFA0026300080B2652801DA761CBD
:1037A000F9E728780090230001AA3421342002F0A0
:1037B000EFFA0027380080B2652801DA7F1CF9E7AC
:1037C00028780090230001AA5621562002F0E0FA42
:1037D0000026300080B2652801DA761CF9E72878E7
:1037E0000090230001AA3621362002F0D1FA0027EA
:1037F000380080B2652801DA7F1CF9E7287800904C
:10380000230001AA3821382002F0C2FA0024200047
:1038100080B2652801DA641CF9E70321372002F041
:1038200070FB0020010089B240F27D12914201DA62
:10383000401CF7E723B0F0BD00003040182D445481
:10384000FB21194000002E40F8B5A2B001A8842148
:1038500002F00CFC40F2A914DFF8585328780090CD
:10386000230001AA3C213C2002F092FA00263000FD
:1038700080B2652801DA761CF9E7287800902300E9
:1038800001AA3421342002F083FA0027380080B2E4
:10389000652801DA7F1CF9E728780090230001AA47
:1038A0005621562002F074FA0026300080B26528B6
:1038B00001DA761CF9E728780090230001AA362166
:1038C000362002F065FA0027380080B2652801DA58
:1038D0007F1CF9E728780090230001AA38213820BE
:1038E00002F056FA0024200080B2652801DA641C38
:1038F000F9E70621372002F004FB0020010089B21D
:1039000040F27D12914201DA401CF7E723B0F0BD8E
:10391000290000000000F0BF00806640FB21094044
:1039200064CD000878CD0008D4CA00082DE9F0471E
:1039300004000D0016001F005FF000085FF0000992
:10394000280080B281456FDA2000C0B2002803D180
:1039500004209549088004E04FF40040DFF8581A2D
:103960000880300080B202F05EFB2000C0B2002868
:1039700003D104208E49088003E04FF400408B49B6
:103980000880380080B202F04EFBB8F10A0F03D273
:1039900089A001F087FB3EE0B8F1640F08D20FF276
:1039A000182A504601F07EFB504601F07BFB32E0C6
:1039B000B8F57A7F0BD20FF2002A504601F072FB65
:1039C000504601F06FFB504601F06CFB23E042F2E1
:1039D000107080450ED20FF2E01A504601F062FBE3
:1039E000504601F05FFB504601F05CFB504601F091
:1039F00059FB10E00FF2C01A504601F053FB50463D
:103A000001F050FB504601F04DFB504601F04AFBDF
:103A1000504601F047FB18F101084146B3A001F000
:103A200051FB19F101098BE701F0B6FBBDE8F08706
:103A30008CCD0008A4D30008A8D30008ACD300089C
:103A4000B0D30008ACD2000859070020ECBE000833
:103A500094BB000888C8000800CC0008A8C400086F
:103A600010B50400962C06D3C8200400012137208D
:103A700002F047FA58E04B2C06D3642004000221E0
:103A8000372002F03EFA4FE0252C06D33220040006
:103A90000321372002F035FA46E0172C06D319200F
:103AA00004000421372002F02CFA3DE00F2C06D34D
:103AB000142004000521372002F023FA34E0082CFA
:103AC00006D30A2004000621372002F01AFA2BE060
:103AD000052C06D3052004000721372002F011FA37
:103AE00022E0032C06D3042004000821372002F032
:103AF00008FA19E0022C06D302200400092137201D
:103B000002F0FFF910E0002C06D0012004000A2189
:103B1000372002F0F6F907E0002C05D10020040060
:103B20000021372002F0EDF9200010BD002800D55B
:103B300040427047F8B504000D0016001F00210038
:103B4000C9B2DFF8500A01F0BDFA2000C0B2012866
:103B500004D1DFF8440A01F0A5FA03E0DFF83C0ADB
:103B600001F0A0FA2900C9B2DFF8340A01F0B9FA6D
:103B70003100DFF8300A01F0A5FA012E04D1DFF898
:103B8000280A01F08FFA03E0DFF8200A01F08AFA30
:103B90003900DFF81C0A01F095FA99A001F082FAC9
:103BA00001F0FAFAF1BD00001A10024018000240BC
:103BB00018100240CC000020080000000080763F72
:103BC00000B0933F2DE9F04104000127DFF8E4093C
:103BD0000078401C874280F28480DFF8DC0900789E
:103BE000012805D134F8171086A001F07AFA76E0A2
:103BF000012F05D134F817103CA001F072FA6EE0E5
:103C0000052F31DA34F9170000B202F04FFA02F052
:103C10005FFA394A394B02F07FFA02F04FFB050098
:103C20002800002102F07EFB02D877A001F03AFACA
:103C3000280002F089FB40B202F09BFB0600300036
:103C4000C0B20A2803DA71A001F02CFA06E03000B5
:103C5000C0B2642802DA6CA001F024FA0422290020
:103C60006AA001F04DFA3AE0082F1DDA34F9170086
:103C700000B202F01BFA02F02BFADFF82C2ADFF870
:103C80002C3A02F049FA02F019FB05002800002145
:103C900002F048FB02D85CA001F004FA04222900DB
:103CA0009CA001F02DFA1AE00422904634F9170086
:103CB00000B202F0FBF902F00BFADFF8702ADFF82D
:103CC000703A02F029FA0022DFF8683A02F056FB57
:103CD00002F0F4FA010042468EA001F011FA7F1CB6
:103CE00074E701F059FABDE8F0810000000000001F
:103CF0000000343F0000693F7B14AE47E17A743F17
:103D00002DE9F04105000024DFF8A8080178491CDE
:103D10008C4271DADFF8A0180978012905D135F84D
:103D2000141038A001F0DDF964E0002C02D100206D
:103D300006005FE00078844257DA3000C0B2002805
:103D400006D135F81400000407000120060051E0F8
:103D50003000C0B201284DD135F8140007430020CF
:103D600006000D2C05DA3800C009B0F50040804689
:103D70000BE0192C05DA3800800BB0F500408046C6
:103D800003E03800B0F500408046404600B200280D
:103D900002D41DA001F086F9404600B2FFF7C6FE2E
:103DA000B0F57A7F03DB18A001F07CF917E04046FC
:103DB00000B2FFF7BBFE642803DB14A001F072F928
:103DC0000DE0404600B2FFF7B1FE0A2803DB51A028
:103DD00001F068F903E0DFF8D40901F063F9414626
:103DE00009B24CA001F06EF904E035F8141049A0B6
:103DF00001F077F9641C87E701F0CEF9BDE8F081A6
:103E000020487A00203078002000000020200000A8
:103E100038CE000848CE0008CCC4000804D2000800
:103E2000F0C40008F4C000082DE9F84F0700002492
:103E3000DFF87C595FF000085FF000090026DFF82A
:103E400074070178491C8E425FDADFF86C17097835
:103E5000012905D137F8161030A001F042F952E0DF
:103E6000002E50D00078864248DA012E04D100207E
:103E7000DFF8341A04000D00042E04D10020DFF80E
:103E8000681A04000D00072E04D10020DFF8181A6C
:103E900004000D000A2E04D10020DFF8501A04009F
:103EA0000D0037F816008246504600B2ADF800000B
:103EB0000E2E15DABDF9000002F084FD22002B0061
:103EC00002F02AF980468946042293464046494634
:103ED00002F0F4F901005A4698A001F011F912E03D
:103EE0000E2E05D1514689B294A001F0EBF80AE0FC
:103EF00037F8161091A001F0F4F804E037F8161026
:103F00008EA001F0EEF8761C99E701F045F9BDE8C6
:103F1000F18F00002020200014C500082030780018
:103F20002DE9FE4F0700002400255FF00008DFF8B0
:103F300080980026DFF87C060178491C8E4280F2CA
:103F4000F880DFF874160978012905D137F81610C2
:103F50007BA001F0C6F8EAE0002E00F0E8800078CF
:103F6000864280F2D480012E05D10020DFF8381976
:103F70008046894618E0042E05D10020DFF8681934
:103F80008046894610E0072E05D10020DFF85C1935
:103F90008046894608E00A2E05D10020DFF84C193A
:103FA0008046894600E00B2E37F81600ADF8040075
:103FB000BDF9040000B2ADF80600042E1FDABDF909
:103FC000060002F0FFFC42464B4602F0A5F8040052
:103FD0000D00200029000022002302F005FD02D878
:103FE000A5A001F05FF8042292462000290002F00B
:103FF00065F901005246A1A001F082F897E0072E72
:104000003ADABDF9060002F0DDFC42464B4602F00A
:1040100083F804000D00200029000022002302F094
:10402000E3FC02D894A001F03DF8A246AB463BF079
:10403000004B504659460022DFF8503A02F0ECFCA3
:1040400003D23EA001F02EF80AE050465946002265
:10405000DFF8683A02F0E0FC02D287A001F022F813
:10406000042200922000290002F028F90100009AA1
:1040700082A001F045F85AE00B2E3ADABDF90600AD
:1040800002F0A0FC42464B4602F046F804000D0048
:10409000200029000022002302F0A6FC02D876A00E
:1040A00001F000F8A246AB463BF0004B50465946A3
:1040B0000022DFF8D83902F0AFFC03D21FA000F0D5
:1040C000F1FF0AE0504659460022DFF8F03902F0CD
:1040D000A3FC02D268A000F0E5FF042200922000B9
:1040E000290002F0EBF80100009A64A001F008F842
:1040F0001DE00B2E05D1BDF8041060A000F0E2FF1A
:1041000015E037F816105DA000F0EBFF0FE037F870
:104110001600ADF80400BDF8041058A000F0E1FF4F
:10412000BDF8040010F40060DFF80C1D0880761C58
:1041300000E701F031F8BDE8F78F00002020000013
:1041400020307800A8C8000818CC00082DE9F041FC
:1041500004000127DFF85C040078401C874280F2ED
:104160008680DFF854040078012805D134F8171050
:104170008FA000F0B6FF78E0012F05D134F81710BA
:104180008CA000F0AEFF70E0052F33DA34F9170091
:1041900000B201F08BFF01F09BFFDFF8642ADFF82B
:1041A000643A01F0B9FF02F089F805002800002107
:1041B00002F0B8F802D830A000F074FF280002F036
:1041C000C3F840B202F0D5F806003000C0B20A28A9
:1041D00003DA2CA000F066FF06E03000C0B26428CD
:1041E00002DA25A000F05EFF0422290025A000F0DD
:1041F00087FF3AE0082F1DDA34F9170000B201F00A
:1042000055FF01F065FFDFF8A024DFF8A03401F0CE
:1042100083FF02F053F805002800002102F082F825
:1042200002D815A000F03EFF0422290013A000F0E0
:1042300067FF1AE00422904634F9170000B201F03B
:1042400035FF01F045FFDFF8E424DFF8E43401F046
:1042500063FF0022DFF8DC3402F090F802F02EF861
:104260000100424605A000F04BFF7F1C72E700F002
:1042700093FFBDE8F0810000200000002020200016
:10428000A0CD0008202000002DE9F0410400012706
:10429000C8480078401C874280F28380C648007876
:1042A000012805D134F8171041A000F01AFF76E07C
:1042B000012F05D134F817103EA000F012FF6EE078
:1042C000052F33DA34F9170000B201F0EFFE01F0E8
:1042D000FFFEDFF82C29DFF82C3901F01DFF01F07B
:1042E000EDFF05002800002102F01CF802D898A07C
:1042F00000F0D8FE280002F027F840B202F039F8AA
:1043000006003000C0B20A2803DA92A000F0CAFE0C
:1043100006E03000C0B2642802DA8DA000F0C2FED0
:10432000042229008BA000F0EBFE38E0082F1BDAF6
:1043300034F9170000B201F0B9FE01F0C9FEDA4A03
:10434000DA4B01F0E9FE01F0B9FF05002800002179
:1043500001F0E8FF02D87EA000F0A4FE04222900AC
:1043600089A000F0CDFE1AE00422904634F917002F
:1043700000B201F09BFE01F0ABFEDFF8B023DFF8E6
:10438000B03301F0C9FE0022DFF8A83301F0F6FFD8
:1043900001F094FF010042467BA000F0B1FE7F1CBB
:1043A00076E700F0F9FEBDE8F0810000B4CD00082A
:1043B00020307800000000001A0002402DE9F04192
:1043C000040001277B480078401C874280F28080EF
:1043D00079480078012805D134F817106BA000F057
:1043E00080FE73E0012F05D134F8171068A000F0AB
:1043F00078FE6BE0052F33DA34F9170000B201F0D4
:1044000055FE01F065FEDFF8F827DFF8F83701F018
:1044100083FE01F053FF05002800002101F082FF18
:1044200002D84BA000F03EFE280001F08DFF40B204
:1044300001F09FFF06003000C0B20A2803DA45A051
:1044400000F030FE06E03000C0B2642802DA40A07E
:1044500000F028FE042229003EA000F051FE35E0C5
:10446000082F1BDA34F9170000B201F01FFE01F02B
:104470002FFE8D4A8D4B01F04FFE01F01FFF05000E
:104480002800002101F04EFF02D831A000F00AFE02
:10449000042229003CA000F033FE17E004229046DD
:1044A00034F9170000B201F001FE01F011FE9F4A3D
:1044B0009F4B01F031FE00229E4B01F05FFF01F0A7
:1044C000FDFE0100424630A000F01AFE7F1C79E795
:1044D00000F062FEBDE8F08110B50400002036490E
:1044E0000870DFF8B80A00F0DDFD00F055FE10BDE1
:1044F00010B50400DFF8A80A0078012806D0DFF81C
:10450000A40A00F0CFFD00F047FE08E001202A4990
:104510000870DFF8940A00F0C5FD00F03DFE10BD04
:1045200010B50400DFF8780A0078012806D0DFF81B
:10453000740A00F0B7FD00F02FFE07E00020DFF85E
:104540006C1A0870DFF8680A00F0ACFD10BD0000BE
:10455000200000002020000010B50400DFF8400A11
:104560000078012806D0DFF83C0A00F09BFD00F03F
:1045700013FE07E00120DFF8341A0870DFF8340A70
:1045800000F090FD10BD00002020200020307800B9
:1045900000000000B0CF000894D200089CD20008B0
:1045A00048CC0008BCCF000834D200083CD2000838
:1045B0004CD2000857070020580700201CB5040003
:1045C000DFF8DC090078012806D0DFF8D80900F010
:1045D00069FD00F0E1FD66E05FF080400090684614
:1045E00001F0A3FA03220099DFF8CC0900F088FD5E
:1045F00000F0D2FD0098DFF8C41902F0AFFD08D238
:10460000DFF8BC0901F0BDFBDFF8B80900F04AFD96
:1046100049E00098DFF8B01902F0A0FD08D2DFF8F9
:10462000A00901F0A7FBDFF8A40900F03BFD3AE088
:104630000098DFF89C1902F091FD08D2DFF880099C
:1046400001F091FBDFF88C0900F02CFD2BE00098C5
:10465000DFF8841902F082FD08D2DFF8640901F066
:104660007BFBDFF8780900F01DFD1CE00098DFF807
:10467000701902F073FD08D2DFF8440901F065FB00
:10468000DFF8600900F00EFD0DE00098DFF8581922
:1046900002F064FD07D2DFF8280901F04FFBDFF8D4
:1046A0004C0900F0FFFC13BDFCA9F1D24D62303F74
:1046B00010B504002000C0B2002804D1DFF80009C2
:1046C00001F058FB1EE02000C0B2012804D1DFF841
:1046D000F00801F048FB15E02000C0B2022804D128
:1046E000DFF8DC0801F038FB0CE02000C0B2032842
:1046F00004D1DFF8CC0801F028FB03E0DFF8C008A4
:1047000001F02AFB10BD10B50400DFF89408007812
:10471000012806D0DFF88C0800F0C4FC00F03CFD56
:1047200003E00120DFF8C818087010BD764B5CF07C
:1047300069B7B23F00003F4010B50400DFF86008E1
:104740000078012806D0DFF85C0800F0ABFC00F030
:1047500023FD03E00020DFF89818087010BD1CB599
:104760000400DFF83C080078012806D0DFF83408A0
:1047700000F098FC00F010FD17E04FF47A70009004
:10478000684601F0BEF942F210700099B0FBF1F0FA
:10479000DFF8601808800099DFF85C0800F092FCF0
:1047A000D7A000F07FFC00F0F7FC13BD44D2000856
:1047B0000000F03F2DE9F0410400DFF8E407007845
:1047C000012806D0DFF8DC0700F06CFC00F0E4FC08
:1047D00052E0DFF82858C820FFF742F92860DFF8D8
:1047E000207800203880DFF81C680020308000200E
:1047F000DFF814180880DFF81488012088F800001A
:104800000120FBF7FFFC4FF47A7001F00CFC002054
:1048100088F800000020FBF7F5FC3188DFF8F0078E
:1048200000F050FC3988DFF8EC0700F04BFC3088D2
:10483000002817D03888002814D0318889B23A88E7
:10484000521E0520424391420CDB398889B2891CF3
:10485000052041433088814204DBDFF8BC0700F0CB
:1048600021FC03E0DFF8B40700F01CFC00F094FC2E
:104870000220FFF7F5F82860BDE8F08110B50400CC
:1048800001F0EBFFDFF8980700F00CFC00F084FC6F
:1048900010BD10B5040001F0DAFFDFF8880700F062
:1048A00001FC00F079FC10BD0000343F3EB504006F
:1048B00001208DF8040000208DF8060001208DF8FD
:1048C000070002208DF8050040200090DFF85857BF
:1048D0006946280000F082FE2200D2B24021280062
:1048E00000F0F1FE37BD000000B0933F0000693FCB
:1048F0001CB5040001F0ABFF0020DFF83017087092
:104900000020FBF77FFC00208DF8040000208DF8CC
:10491000060000208DF8070002208DF805004FF4F6
:10492000E05000906946DFF8000700F057FE0020D5
:10493000FFF7BCFF642001F076FB01F08EFF002042
:10494000DFF85C160870DFF8E80600F0ABFB00F05B
:1049500023FC13BD10B5040001F079FF0120FFF71F
:10496000A5FF642001F05FFB01F077FF642001F0F8
:104970005AFB02F005FC01F0E6FFDFF8440601F007
:10498000EBF90120DFF8A41608700120DFF81016FB
:104990000870DFF8A00600F085FB00F0FDFB10BDFD
:1049A00010B50400DFF8900600F07CFB00F0F4FB8B
:1049B00010BD10B504009621032001F0A2FA4FF4B7
:1049C0007A7001F030FB7821032001F09AFADFF8C9
:1049D0006C0600F067FB00F0DFFB10BD18B587B078
:1049E000040001A8182101F041FBDFF8C0050078A0
:1049F00000904FF4FA7301AA0121012001F0C8F9D7
:104A0000DFF83C0600F04EFBBDF80610D8A000F021
:104A100068FB00F0C1FB08B010BD10B504001F21F9
:104A2000012001F06EFADFF81C0600F03BFB00F0FD
:104A3000B3FB10BD10B504001F21022001F061FA84
:104A4000DFF8000600F02EFB00F0A6FB10BD18B545
:104A500087B0040001A8182101F008FBDFF84C051D
:104A6000007800904FF4FA7301AA2021202001F071
:104A70008FF9DFF8D40500F015FBBDF80610BCA0D7
:104A800000F02FFB00F088FB08B010BD00002440B0
:104A900010B504006421202001F033FA4FF47A703D
:104AA00001F0C1FA0121212001F02BFADFF89C0569
:104AB00000F0F8FA00F070FB10BD00000000594053
:104AC00018B587B0040001A8182101F0CFFADFF86B
:104AD000DC04007800904FF4FA7301AA222122200E
:104AE00001F056F9DFF8680500F0DCFABDF80610B1
:104AF0009FA000F0F6FA00F04FFB08B010BD0000D8
:104B000020485A0010B504006421222001F0F9F970
:104B10004FF47A7001F087FA0121232001F0F1F9B6
:104B2000DFF8300500F0BEFA00F036FB10BD18B516
:104B300087B0040001A8182101F098FADFF86C048E
:104B4000007800904FF4FA7301AA2421242001F088
:104B50001FF9DFF8040500F0A5FABDF8061084A0DF
:104B600000F0BFFA00F018FB08B010BD10B504004B
:104B70006421242001F0C5F94FF47A7001F053FA52
:104B8000FF21252001F0BDF9DFF8D00400F08AFAFA
:104B900000F002FB10BD18B587B0040001A8182171
:104BA00001F064FADFF80404007800904FF4FA731F
:104BB00001AA2621262001F0EBF8DFF8A40400F07A
:104BC00071FABDF806106AA000F08BFA00F0E4FA62
:104BD00008B010BD10B504006421262001F091F941
:104BE0004FF47A7001F01FFAFF21272001F089F9B4
:104BF000DFF8700400F056FA00F0CEFA10BD0000A5
:104C00007B14AE47E17A743F18B587B0040001A861
:104C1000182101F02BFAE548007800904FF4FA7360
:104C200001AA2821282001F0B3F8DFF83C0400F0A5
:104C300039FABDF806104EA000F053FA00F0ACFAB5
:104C400008B010BD10B504006421282001F059F906
:104C50004FF47A7001F0E7F9FF21292001F051F9B2
:104C6000DFF8080400F01EFA00F096FA10BD18B53F
:104C700087B0040001A8182101F0F8F9CB480078AA
:104C800000904FF4FA7301AA2A212A2001F080F83B
:104C9000DFF8DC0300F006FABDF8061034A000F0DF
:104CA00020FA00F079FA08B010BD10B504006421B4
:104CB0002A2001F026F94FF47A7001F0B4F9FF21AF
:104CC0002B2001F01EF9EB4800F0ECF900F064FA3B
:104CD00010BD18B587B0040001A8182101F0C6F96D
:104CE000B248007800904FF4FA7301AA2C212C20CE
:104CF00001F04EF8E04800F0D5F9BDF806101CA010
:104D000000F0EFF900F048FA08B010BD10B504004B
:104D100064212C2001F0F5F84FF47A7001F083F94A
:104D2000FF212D2001F0EDF8D44800F0BBF900F090
:104D300033FA10BD18B587B0040001A8182101F09E
:104D400095F99A48007800904FF4FA7301AA2E2141
:104D50002E2001F01DF8CA4800F0A4F9BDF8061095
:104D600003A000F0BEF900F017FA08B010BD000073
:104D70003078000010B5040064212E2001F0C1F845
:104D80004FF47A7001F04FF9FF212F2001F0B9F8AC
:104D9000BC4800F087F900F0FFF910BD18B587B0E6
:104DA000040001A8182101F061F980480078009002
:104DB0004FF4FA7301AA3021302000F0E9FFB24825
:104DC00000F070F9BDF8061073A000F08AF900F049
:104DD000E3F908B010BD10B504006421302001F0E3
:104DE00090F84FF47A7001F01EF9FF21312001F0A4
:104DF00088F8A64800F056F900F0CEF910BD18B5B5
:104E000087B0040001A8182101F030F96748007844
:104E100000904FF4FA7301AA3221322000F0B8FF5B
:104E20009B4800F03FF9BDF806105BA000F059F96F
:104E300000F0B2F908B010BD4E07002010B5040014
:104E40006421322001F05DF84FF47A7001F0EBF844
:104E5000FF21332001F055F88E4800F023F900F0CF
:104E60009BF910BD18B587B0040001A8182101F006
:104E7000FDF84E48007800904FF4FA7301AA3C21E7
:104E80003C2000F085FF844800F00CF9BDF80610C6
:104E900041A000F026F900F07FF908B010BD10B570
:104EA00004000121762001F02CF84FF47A7001F013
:104EB000BAF82021762001F024F84FF47A7001F03E
:104EC000B2F82221762001F01CF84FF47A7001F03C
:104ED000AAF82421762001F014F84FF47A7001F03A
:104EE000A2F82621762001F00CF84FF47A7001F038
:104EF0009AF82821762001F004F84FF47A7001F036
:104F000092F82A21762000F0FCFF4FF47A7001F02D
:104F10008AF82C21762000F0F4FF4FF47A7001F02B
:104F200082F82E21762000F0ECFF4FF47A7001F029
:104F30007AF83021762000F0E4FF4FF47A7001F027
:104F400072F83221762000F0DCFF4FF47A7001F025
:104F50006AF8524800F0A6F800F01EF910BD18B526
:104F600087B0040001A8182101F080F80F480078EC
:104F700000904FF4FA7301AA3721372000F008FFA0
:104F8000474800F08FF8BDF8061003A000F0A9F81C
:104F900000F002F908B010BD307800001CC1000814
:104FA000CB00002010CA000818BF0008CC00002069
:104FB00060CC0008F0CA0008C8CD0008CDCC4C3E3B
:104FC000003C0040C8C500089A99993E0CCB0008E7
:104FD0009A99193F28CB0008CDCC8C3F44C10008DA
:104FE00067660640ECC500083433834044CB0008B4
:104FF000C9000020C4000020B8CE0008080000202E
:105000004A07002050070020520700205B070020BD
:105010006CC1000878CC00081CD0000828D000081B
:1050200034D0000840D00008000802405C0700208F
:10503000C8CE0008D8CE00084CD0000810C6000822
:1050400090CC000860CB00087CCB000808C90008A1
:1050500028C9000848C9000868C9000834C6000803
:1050600094C10008BCC1000858C60008E4C100088B
:105070007CC60008A0C60008C4C60008E8C6000830
:105080000CC7000830C700080CC2000844BF000865
:1050900034C200085CC2000888C9000854C7000870
:1050A000B4D2000810B50400002C0AD020780028E3
:1050B00007D020787E2802DA207802F0F2F8641C0B
:1050C000F2E710BD3EB504000D002000FFF7EAFF37
:1050D0000A226946280000F06FF86846FFF7E2FFF1
:1050E00037BD3EB504000D002000FFF7DBFF1022A6
:1050F0006946280000F060F86846FFF7D3FF37BD27
:105100002DE9F0410600884614003000FFF7CAFF81
:10511000404601F019F90500002D07D14046002155
:1051200002F01CF802D21FA0FFF7BCFF1EA7290047
:105130003800FFF7C7FF280000F0B8FF0100404625
:1051400002F07CF980464046002102F007F801D2C7
:1051500098F000480B2C01D30A20040013A0FFF79D
:10516000A1FF002C16D01348414602F0A7F9804653
:10517000641E404601F0E8F8050029003800FFF7FA
:10518000A1FF280000F092FF0100404602F056F90E
:105190008046E6E7BDE8F08180B505A0FFF782FF15
:1051A00001BD00002D000000000000002E000000E6
:1051B0000D0A000000002041FEB403000C006E4602
:1051C0000A2A03D1002B01D5012000E0002000288D
:1051D00001D0594200E01900002902D16F46BE42B9
:1051E00013D11700B1FBF7FC07FB1C173D00B1FB07
:1051F000F2F10A2D04DA15F130073770761CEBE76F
:1052000015F137073770761CE6E70A2A06D001AF9A
:10521000BE4203D230273770761CF8E7002802D050
:105220002D272770641C6F46B74204D2761E37784C
:105230002770641CF7E700272770F7BC7047F0B4AD
:105240000246106895681318506803EB5004C007B5
:105250001DD54D441BE013F8017B05F8017B491E69
:10526000F9D1A0B1B60813F8011B06F00306032E0E
:1052700008BF13F8016B01EB06214942801C294449
:1052800005D011F8016B05F8016B401EF9D1A3425E
:105290000ED013F8016B16F0030104BF13F8011BC5
:1052A000C91C30090F28DAD113F8010B0F30D6E7EB
:1052B000F0BC02F10C007047DFF8D812086850F01B
:1052C000010008600020DFF8D02210600A68DFF8D3
:1052D000CC0202400A60DFF8C802DFF8C822106082
:1052E000086830F4802008600020DFF8BC120860F5
:1052F0007047DFF8B81200220A700870704738B59E
:105300000020009000240025312000F01FF9050046
:105310000098401C00900098B0F5A06F03D02800C2
:10532000C0B20028F0D0312000F010F9002801D0E0
:10533000012000E00020C0B232BD70B4039C51EAED
:1053400082151E007608761E55EA0645054355EA85
:105350000465DFF85062356070BC70470100C9B267
:10536000DFF85022116070470021DFF82C321A68F4
:105370009208920002431A607047DFF81C0200682E
:1053800010F00C0070470021DFF80C321A6832F080
:10539000F00202431A6070470021DFF8FC311A68FE
:1053A00032F4E05202431A6070470021DFF8E8311E
:1053B0001A6832F4604252EAC0021A6070472DE95E
:1053C000F04F0100002200230024022500200226C5
:1053D000DFF8C471D7F800C01CF00C0CE646BEF133
:1053E000000F06D0BEF1040F07D0BEF1080F08D0A1
:1053F00037E0DFF8C4210A6036E0DFF8C0210A6038
:1054000032E0DFF8A0E1DEF80020C2F380521000A5
:10541000DEF8002012F03F02160000280BD0DFF863
:105420009C21B2FBF6F8DEF80020C2F3881202FBE2
:1054300008F844460AE0DFF88021B2FBF6F8DEF80F
:105440000020C2F3881202FB08F84446DEF8002070
:10545000C2F30142521C52001500B4FBF5F20A607F
:1054600002E0DFF854210A60D7F8008018F0F00855
:105470005FEA1818DFF848A11AF80820D1F800E010
:105480003EFA02FEC1F804E0D7F8009019F4E059A2
:105490005FEA99291AF809E0D1F804B03BFA0EFB4B
:1054A000C1F808B03F6817F460477F0B1AF807A0EF
:1054B000D1F804B03BFA0AFBC1F80CB0BDE8F08F9C
:1054C0000A00D2B2002A04D03E4A13680343136094
:1054D00003E03C4A13688343136070470A00D2B26A
:1054E000002A04D0384A13680343136003E0364AA5
:1054F00013688343136070470A00D2B2002A04D0B5
:10550000324A13680343136003E0304A136883434D
:10551000136070470A00D2B2002A04D02C4A1368E4
:105520000343136003E02A4A136883431360704700
:105530000A00D2B2002A04D0264A1368034313603B
:1055400003E0244A136883431360704730B40100BA
:105550000020002300250A00D2B25209D2B2012A4B
:1055600002D10C48046806E0022A02D110480468FF
:1055700001E0194804680B00DBB213F01F032000A0
:10558000D840C00701D5012000E00020C0B230BCE7
:10559000704700000038024008380240FFFFF6FE66
:1055A00010300024043802400C3802400238024017
:1055B00070380240600047420024F40040787D01CA
:1055C0001C0000203038024040380240443802407D
:1055D000203802402438024074380240F0B50022DE
:1055E000002300240025102D5CD2012616FA05F2B6
:1055F00013000A681A4014009C4251D10327026824
:10560000AC465FFA8CFC5FEA4C0C17FA0CFC32EAF1
:105610000C020260D0F800C091F804E02A00D2B277
:1056200052001EFA02FE5EEA0C0CC0F800C00A79B5
:10563000012A02D00A79022A22D18268AC465FFA96
:105640008CFC5FEA4C0C17FA0CFC32EA0C0282600C
:10565000D0F808C091F805E02A00D2B252001EFA34
:1056600002FE5EEA0C0CC0F808C04268AE4032EAA6
:105670000606466042688E79AE40B6B2324342605A
:10568000C6682A00D2B25200974036EA0707C760C0
:10569000C668CF792A00D2B2520097403E43C66016
:1056A0006D1CA0E7F0BD4FF6FF7101600021017194
:1056B00000214171002181710021C1717047018376
:1056C0007047418370471300DBB2002B01D0018388
:1056D00000E041837047F0B5002400251300DBB2E1
:1056E00011F00706F6B2B60013FA06F60B009BB2ED
:1056F000DB1000EB83070B009BB2DB1000EB830396
:10570000D3F820C05FF00F0E11F00703DBB29B004F
:105710001EFA03FE3CEA0E0CC7F820C00B009BB239
:10572000DB1000EB83031B6A33430F00BFB2FF1093
:1057300000EB87073B62F0BDF0B400230F2211F0AD
:105740000304E4B2A40012FA04F4104D0A00D2B229
:10575000921055F82220A2430E00F6B2B61045F87A
:1057600026200A00D2B2921055F822600700FFB23C
:1057700011F00302D2B2920097403E430A00D2B227
:10578000921045F82260F0BC7047000008380140D4
:1057900070B400242D4B1A00817900292DD02B4C98
:1057A000256801688D432560294C256801688D4373
:1057B000256001798A18146801680C431460254C2F
:1057C000256801688D432560234D2E6801688E434E
:1057D0002E604179102908D1236801680B432360AA
:1057E0002B6801680B432B600DE04179CB181A0040
:1057F000136801680B43136005E001798A18136888
:1058000001688B43136070BC704700210160002168
:1058100001710C21417100218171704710B40200A7
:10582000002300200949096811400C4C24681442E7
:1058300003D0002901D0012000E00020C0B210BC3C
:10584000704706490860704700000000003C0140B6
:10585000043C0140083C01400C3C0140143C014028
:10586000F0B4002200230F24C178002920D016496B
:10587000096811F4E061D1F5E061090AD1F104058C
:105880002B00E4B20C4145789D4086782640354394
:105890002D012A000D4D0678AA550125067816F02F
:1058A0001F06B5400A4E07787F1146F8275009E0D9
:1058B0000121057815F01F05A940064D06787611DF
:1058C00045F82610F0BC70470CED00E000E400E065
:1058D00000E100E080E100E007480168491C016048
:1058E00072B6704704480168491E016000680028CC
:1058F00000D162B6704700001407002078B587B069
:1059000004000D00160001A8182100F0AFFB3000C4
:10591000C0B200904FF4FA7301AA2900C9B2200066
:10592000C0B200F035FABDF806108BA0FFF7D9FB26
:1059300008B070BDF0B587B004000D0016001F0060
:1059400001A8182100F092FB3100C9B22000C0B2BA
:1059500000F0D7FA0A2000F066FB3800C0B20090D1
:105960004FF4FA7301AA2900C9B22000C0B200F0B6
:105970000FFABDF8061078A0FFF7B3FB07B0F0BD33
:1059800010B5784C218875A0FFF79CFB2088401C3F
:10599000208073A0FFF786FB10BD80B5FFF7F0FFF6
:1059A00001BDF8B5040000266F4D50226F49280054
:1059B00001F04AFC002800F0928000200700502FE0
:1059C00005D2E85D0A2802D0761C7F1CF7E7012E7D
:1059D0002DD128783E2803D10120FBF737FA26E0A5
:1059E00028784E2806D10020FEF79AFD0020604955
:1059F00008701CE028783F2803D10020FBF764FAE8
:105A000015E02878FF280CD100F021FF4FF47A70C0
:105A100000F009FB00F021FF4FF47A7000F003FB67
:105A200005E05348027829782878FFF767FF022EAF
:105A30001DD12878762808D16978287800F061FA95
:105A40004FF47A7000F0EFFA11E02878AA2807D115
:105A5000474803780A2269786878FFF76BFF06E009
:105A6000434803786A7829782878FFF763FF032E84
:105A70000AD128783E2803D13E48FBF7E7F903E036
:105A80006978287800F03DFA042E28D1687801283A
:105A900009D10120FEF70CFE3548027829782878D4
:105AA000FFF72CFF1BE06878022809D10220FEF7DF
:105AB000FFFD2F48027829782878FFF71FFF0EE0B6
:105AC0006878032809D10320FEF7F2FD2848027800
:105AD00029782878FFF712FF01E0FAF76DFBF1BD96
