:020000040800F2
:10000000D80B00209DCE000845B900087DB9000836
:100010009FB90008A1B90008A3B9000800000000BA
:10002000000000000000000000000000D1D2000825
:10003000A5B9000800000000D5D200085B600008E8
:10004000D9D20008DDD20008E1D20008E5D20008CC
:10005000E9D20008EDD20008F1D20008F5D200087C
:10006000F9D200083F020008FDD2000801D30008C1
:1000700005D3000809D300080DD3000811D30008E8
:1000800015D3000819D300081DD3000821D3000898
:1000900025D3000829D300082DD3000873020008D7
:1000A00031D3000835D3000839D300083DD3000808
:1000B00041D3000845D3000849D300084DD30008B8
:1000C00051D3000855D3000859D300085DD3000868
:1000D00061D3000865D300088975000869D300085A
:1000E000590200086DD3000871D3000875D30008C9
:1000F00079D300087DD3000881D3000885D3000898
:1001000089D300088DD3000879A20008495D000852
:1001100091D3000895D3000899D300089DD3000817
:10012000A1D30008A5D30008A9D30008ADD30008C7
:10013000B1D30008B5D30008B9D30008BDD3000877
:10014000C1D30008C5D30008C9D30008CDD3000827
:10015000D1D30008D5D30008D9D30008DDD30008D7
:10016000E1D30008E5D30008E9D30008EDD3000887
:10017000F1D30008F5D30008F9D30008FDD3000837
:1001800001D4000810B5040001218CA005F022F86C
:1001900000218BA005F01EF8042189A005F01AF8B3
:1001A000002187A005F016F8092185A005F012F8B6
:1001B00005F077F810BD10B586B004000020DFF818
:1001C000BC1A08700121042005F0D8F901214FF470
:1001D000804005F0F1F903A805F0BDFA4020039036
:1001E00000208DF8100000208DF8130003A9DFF81F
:1001F000E00C05F05BFA0621022005F001FB01A8E6
:1002000005F06CFB4020019000208DF808000C20C8
:100210008DF809008DF80A4001A805F01BFB172096
:100220008DF8000000208DF8010000208DF80200FC
:100230008DF8034000A805F07BFB06B010BD80B52B
:1002400005F0B4FB0120DFF8341A0870402005F0F7
:1002500062FB05F0B3FB01BD80B505F0A7FB0120F3
:10026000DFF8181A0870402005F055FB05F0A6FBD2
:1002700001BD80B505F09AFB402005F038FB002851
:100280001CD00120DFF8F4190870DFF8F4090078B9
:10029000012810D1DFF8F00D0088012807D1DFF820
:1002A000E4090088401CDFF8DC19088003E0012025
:1002B000DFF8D41D0880402005F02DFB05F07EFB03
:1002C00001BD30B583B0040000200090002500A8D7
:1002D00005F04CFC01A805F038FCDFF8740B04F0C5
:1002E00069FF019804F066FF0099DFF8680B04F0DD
:1002F00071FF2900DFF8940D04F06CFF04F0D1FFCA
:1003000037BD30B585B00400012000900120019078
:1003100004A805F01AFC00A805F028FC01A805F0C7
:1003200025FC04980078412808D042280AD04328A8
:100330000CD044280ED0462810D013E0DFF8940BE0
:10034000050014E0DFF8900B050010E0DFF8800BEB
:1003500005000CE0DFF8840B050008E0DFF8800BF7
:10036000050004E0DFF8280D04F024FF23E001205D
:100370000099884000900098029000208DF80E00AF
:1003800001208DF80C0000208DF80F0002208DF860
:100390000D0002A9280005F089F90198002805D070
:1003A000009989B2280005F0E2F904E0009989B2C9
:1003B000280005F0DEF905B030BD00002000000087
:1003C0002E00000030B5A3B00400DFF8880B0078E1
:1003D000012806D0DFF8800B04F0ECFE04F061FF8A
:1003E0003CE10025DFF8740B04F0E4FE04F059FF53
:1003F00004F057FFDFF8680B04F0DCFE04F051FF57
:10040000DFF8E80B007800904FF4FA7301AA582146
:10041000522005F0F6FCBDF80A10DFF8480B04F096
:10042000E8FEBDF80A0043F61001884204D06D1CB6
:10043000DFF8340B04F0BEFE04F033FF04F031FFAC
:10044000BDF80610DFF8A80B04F0D3FE04F029FF76
:10045000BDF80810DFF89C0B04F0CBFE04F021FF80
:1004600004F01FFFBDF80C10DFF88C0B04F0C1FE88
:1004700004F017FF04F015FFDFF8800B04F09AFE7C
:10048000DFF87C0B04F096FE04F00BFF04F009FF8C
:1004900002213E2005F068FD0121322005F064FDB7
:1004A000DFF8480B007800904FF4FA7301AA32216C
:1004B000322005F0A6FCBDF80610DFF8480B04F06A
:1004C00098FEBDF80600012804D1DFF8C80B04F03F
:1004D00071FE04E0DFF8C00B04F06CFE6D1C04F04C
:1004E000E0FE04F0DEFE0021362005F03DFD012196
:1004F000372005F039FDDFF8F40A007800904FF45A
:10050000FA7301AA3621362005F07BFCBDF80610EF
:10051000DFF8880B04F06DFEBDF80600B0F5807FB3
:1005200004D1DFF8700B04F045FE04E0DFF8680B3F
:1005300004F040FE6D1C04F0B4FE04F0B2FE052190
:10054000382005F011FD0221392005F00DFDDFF8FE
:100550009C0A007800904FF4FA7301AA38213820E1
:1005600005F04FFCBDF80610DFF8340B04F041FE37
:10057000BDF8060040F20521884204D1DFF8140BD3
:1005800004F018FE04E0DFF8100B04F013FE6D1CFD
:1005900004F087FE04F085FE0421342005F0E4FC1D
:1005A000DFF8480A007800904FF4FA7301AA34216A
:1005B000342005F026FCBDF80610DFF8E80A04F048
:1005C00018FEBDF80600042804D1DFF8C80A04F0BC
:1005D000F1FD04E0DFF8C00A04F0ECFD6D1C04F04E
:1005E00060FE04F05EFE0421352005F0BDFC4FF4F2
:1005F0007A7005F047FDDFF8F409007800904FF4B9
:10060000FA7301AA3C213C2005F0FBFBBDF8061063
:10061000DFF8940A04F0EDFD9DF80600C00604D44E
:10062000DFF8880A04F0C6FD04E0DFF8840A04F06D
:10063000C1FD6D1C04F035FE04F033FEEDB2002D5B
:1006400004D1DFF8700A04F0B5FD03E0DFF8480DCF
:1006500004F0B0FD04F025FE04F023FE23B030BD0D
:100660002DE9F14FAAB0DFF8EC080078012806D098
:10067000DFF8E40804F09EFD04F013FEF7E206A89C
:10068000DFF8341A0A68026005A8DFF8301A0A6831
:1006900002603E20DFF8B81B08701020DFF8201A37
:1006A0000870DFF8AC0B0078DFF8141A0978081826
:1006B000401EDFF8A01B0870DFF8980B0078401C84
:1006C000DFF88C1B0978401A022190FBF1F0DFF86B
:1006D000881B08705FF0010A5FF0000903A8DFF8CB
:1006E000E4190CC90CC0083908380320029002A88C
:1006F00005F03CFA03A805F039FA04A805F036FA2B
:1007000002984FF6DD71884202D34FF6DC700290FA
:1007100003984FF6DD71884202D34FF6DC700390E8
:1007200004984FF6DD71884202D34FF6DC700490D6
:100730000020DFF8481508700A26032004F02CF882
:10074000012003F045F8C82005F09CFC08A884218E
:1007500005F0BCFC962308AA5621562005F0B1FBF3
:100760004FF4FA7005F08EFC0120FFF724FDC8203D
:1007700005F088FCDFF8E40A04F01CFD04F091FDAC
:100780000120DFF8DC1A08804FF40040DFF8D41AAB
:1007900008800420DFF8C81A08804FF4FA6005F0DA
:1007A00071FCDFF8C40A04F005FD04F07AFD0120B5
:1007B000DFF8B81A08804FF47A7005F063FC042063
:1007C000DFF8A81A088004F06CFDDFF8A40A04F032
:1007D000F1FC04F066FD4FF4FA7005F053FC03F0F1
:1007E00031F8002542F210700790DFF8880A04F013
:1007F000E1FC04F056FD4FF4FA7005F043FC04F000
:1008000050FDDFF8740A04F0D5FC04F04AFD4FF403
:10081000FA7005F037FC0020DFF8601408705FF014
:100820000008B8F1640F80F2B380DFF8500400785C
:100830000028FAD00020DFF844140870DFF8AC0775
:10084000007800906923DFF8642BDFF8080A01784C
:10085000DFF8FC09007805F0D4FA761CF6B20A2E0F
:10086000C0F29080002006000127DFF8EC09007834
:10087000401C874280F28480012F07D1DFF82C0BC7
:1008800030F81710C2A004F0B4FC77E0052F36DA78
:10089000DFF8180B30F9170000B205F01BFC05F06B
:1008A00033FCDFF80C2BDFF80C3B05F055FC05F0B2
:1008B00025FD04002000002105F068FD02D8D6A027
:1008C00004F078FC200005F073FD40B205F092FDC5
:1008D0008DF804009DF804000A2803DACFA004F084
:1008E00069FC06E09DF80400642802DACAA004F05E
:1008F00061FC04222100C9A004F08AFC3EE0082F1C
:100900001FDADFF8A80A30F9170000B205F0E2FBA1
:1009100005F0FAFBDFF8A02ADFF8A03A05F01CFC8E
:1009200005F0ECFC04002000002105F02FFD02D8AA
:10093000B9A004F03FFC04222100CEA004F068FC22
:100940001CE004229346DFF8640A30F9170000B275
:1009500005F0C0FB05F0D8FBDFF8642ADFF8643A45
:1009600005F0FAFB0022DFF8603A05F047FD05F0DC
:10097000C5FC01005A46BFA004F04AFC7F1C74E786
:1009800004F08FFC012005F07DFB18F1010848E719
:100990005FF0000B1FFA8BFB0298BBEB400F80F05F
:1009A0004A811AF1010A5FFA8AFABAF1020F01DBF1
:1009B0000020824604F075FC5FFA8AFABAF1000F53
:1009C00005D10399DFF8040A04F004FC04E004995B
:1009D000DFF8FC0904F0FEFB1FFA8BFB1BF10101A1
:1009E000DFF8F00904F0F6FB02984100A2A004F041
:1009F000F1FBDFF8E40904F0DDFB4FF4FA7005F0D9
:100A000041FB5FFA8AFA05A830F81A305FFA8AFAD1
:100A100006A830F81A205FFA8AFA03A850F82A10BC
:100A200089B25046C0B203F003F800209349087021
:100A30005FF00008B8F1640F80F2FA808F48007808
:100A400000283ED16D1C012005F01CFB0798A84230
:100A5000F4D25FFA8AFABAF1000F1FD1DFF8DC0A8C
:100A600004F0A8FB04F01DFCDFF8D40A04F0A2FB9C
:100A7000322005F007FB012002F0AAFE322005F02B
:100A800001FBBDF81430BDF818200121002002F050
:100A9000CFFF4FF4FA6005F0F5FA0CE0DFF8A40A96
:100AA00004F088FB322005F0EDFA012002F090FE00
:100AB000322005F0E7FA04F0F4FB04F0F2FB19F140
:100AC000010900206D49087000200500DFF81C05B1
:100AD000007800906923DFF8D428DFF878070178E0
:100AE000DFF86C07007805F08CF9761CF6B20A2E58
:100AF000C0F29880002006000127DFF85C0700782C
:100B0000401C874280F28C80012F07D1DFF89C08BF
:100B100030F817101EA004F06CFB7AE0052F39DACC
:100B2000DFF8880830F9170000B205F0D3FA05F0B5
:100B3000EBFADFF87C28DFF87C3805F00DFB05F0D8
:100B4000DDFB04002000002105F020FC02D832A0CB
:100B500004F030FB200005F02BFC40B205F04AFC0D
:100B60008DF804009DF804000A2803DA2BA004F095
:100B700021FB06E09DF80400642802DA26A004F0B8
:100B800019FB0422210025A004F042FB41E000BF34
:100B900000000000082F1FDADFF8100830F91700F6
:100BA00000B205F097FA05F0AFFADFF80C28DFF88D
:100BB0000C3805F0D1FA05F0A1FB0400200000215B
:100BC00005F0E4FB02D814A004F0F4FA042221009A
:100BD00028A004F01DFB1CE004220092DFF8CC07E3
:100BE00030F9170000B205F075FA05F08DFADFF85C
:100BF000D027DFF8D03705F0AFFA0022DFF8C8378A
:100C000005F0FCFB05F07AFB0100009A19A004F046
:100C1000FFFA7F1C71E700BF2000000020200000C9
:100C200004F03FFB012005F02DFA18F1010801E75F
:100C30001BF1010BAEE604F034FBDFF8E40A04F02C
:100C4000B9FA4946DFF8DC0A04F0C4FAC0A004F09F
:100C5000B1FA04F026FB04F024FB4FF4FA7005F01F
:100C600011FA022003F098FD0020FFF7A4FA2BB040
:100C7000BDE8F08F202020002F000000D1070020C9
:100C8000D2070020C20700202DE9F047C4B00400BD
:100C9000B0480078012805D0AF4804F08BFA04F082
:100CA00000FBD1E003A84FF4807105F00FFA002596
:100CB000002600275FF000085FF000095FF0000ADF
:100CC0000A2001900520029001A804F04FFF02A81D
:100CD00004F04CFFDFF8500A04F06CFA04F0E1FA7B
:100CE00004F0DFFA022003F057FDC82002F02AFFCB
:100CF000DFF8401C0860002082460198824580F0A1
:100D00008A80BA4800780090962303AA562156207C
:100D100005F077F8BDF80E0080461FFA88F843F614
:100D20001000804568D10421352005F01DF9002010
:100D30008146029805F0A6F9AC480078009040F290
:100D4000A91303AA3421342005F05BF8BDF80E0086
:100D5000060019F10109700503D540F2DC50814508
:100D6000E7D3A2480078009040F2A91303AA3C21DF
:100D70003C2005F046F8BDF80E00070040F2DC50BC
:100D8000814501D2B8061CD56D1C1AF10101DFF8AE
:100D90009C0904F01FFA3C21DFF8940904F029FAB9
:100DA000BFB23900DFF88C0904F023FA4946DFF8B6
:100DB000880904F00FFA66A004F0FCF904F071FA57
:100DC00015E01AF10101DFF8640904F003FA49465D
:100DD000DFF8680904F0FEF9BFB23900DFF86009F6
:100DE00004F007FA5AA004F0E5F904F05AFA4FF4B7
:100DF000FA7005F047F90BE06D1C5146DFF8440925
:100E000004F0E8F9DFF8400904F0D4F904F049FAF5
:100E10001AF1010A71E704F044FA0199DFF8EC0ACB
:100E200004F0D8F9EDB22900DFF8E40A04F0D2F9B1
:100E3000DFF80C0B04F0BEF904F033FA022002F0E4
:100E400081FEDFF8F01A086044B0BDE8F0870000CA
:100E5000F8D0000800D1000810B504003D48007823
:100E6000012805D03C4804F0A5F904F01AFA2DE059
:100E70003E20DFF8DC130870102091490870DFF87D
:100E8000D00300788E4909780818401EDFF8C41393
:100E90000870DFF8C0030078401CDFF8B41309784D
:100EA000401A022190FBF1F0DFF8AC130870DFF874
:100EB000940A0460C820DFF87C1A0860DFF8881AFA
:100EC000DFF8B40C05F040FB00F0FEF810BD0000A8
:100ED000000802400000024000040240000C0240F2
:100EE0000014024010B504001A480078012805D00B
:100EF000194804F05FF904F0D4F928E03F20D44900
:100F0000087014206E490870D14800786C4909783F
:100F10000818401ECF490870CE480078401CCC49C4
:100F20000978401A022190FBF1F0CB4908700120AA
:100F3000DFF8101A08600120DFF8F8190860DFF800
:100F4000081ADFF8340C05F0FFFA00F0BDF810BD08
:100F5000290000004A01002004C9000820C9000837
:100F60003CC90008F4CA00086CC3000810B50400AE
:100F7000DFF8D8090078012806D0DFF8D40904F09A
:100F800019F904F08EF92FE04120B14908701E20B4
:100F90004B490870AE480078494909780818401E46
:100FA000AC490870AB480078401CA9490978401A40
:100FB000022190FBF1F0A84908700A20DFF884199B
:100FC00008600220DFF86C190860DFF8780904F087
:100FD000CDFDDFF8600904F0C9FD9BA1DFF8980B97
:100FE00005F0B2FA00F070F810BD00004B010020CF
:100FF000FCCB000810CC00080CCB000890C3000804
:1010000064C7000884C7000810B50400DFF83C0975
:101010000078012806D0DFF8380904F0CBF804F096
:1010200040F92FE042208A490870182024490870AE
:1010300087480078224909780818401E85490870B9
:1010400084480078401C82490978401A022190FBAC
:10105000F1F0814908700A20DFF8E81808600220E2
:10106000DFF8D0180860DFF8DC0804F07FFDDFF857
:10107000C40804F07BFD75A1DFF8FC0A05F064FAF2
:1010800000F022F810BD0000CA07002008D10008B7
:101090003CCD0008B4C3000844BC000858C900088F
:1010A00074C90008C4BD0008D4BF0008FCBF000814
:1010B000A4C7000890C90008A8D20008ACD2000854
:1010C0004701002010D1000838B5DFF86808006833
:1010D00002F038FDDFF85C180860DFF85808006897
:1010E00005F002F805F010F802000B000020DFF810
:1010F0008C1A05F033FA0022DFF8843A05F02CF858
:101100000022DFF8803A05F079F905F04BFB040086
:101110000120FFF750F8DFF8700A007800280BD0A4
:10112000DFF810080368DFF81C08026848480178F7
:101130004948007802F070FD0025DFF808080068D3
:10114000854272D2DFF8440A0078002805D0DFF823
:10115000400A0078002804D1F9E7A4B2200004F086
:1011600091FF0020DFF8281A0870DFF8280A0078BD
:10117000009069238D4A374801783548007804F09B
:1011800040FEDFF8040A007800284CD0DFF8E819A8
:10119000DFF8B40705F02CFB002803D1834802F0E8
:1011A00087FD40E0DFF8D0197CA005F021FB002886
:1011B00003D17E4802F018FE35E0DFF8BC1922A00A
:1011C00005F016FB002803D1784802F0A3FE2AE0C0
:1011D000DFF8A4191DA005F00BFB002803D173480C
:1011E00002F016FF1FE0DFF890196DA005F000FB7C
:1011F000002803D16D4803F01FF814E0DFF87819D8
:1012000068A005F0F5FA002803D1684803F0B4F8A7
:1012100009E0DFF8641964A005F0EAFA002802D1B9
:10122000624803F045F96D1C87E70020FEF7C3FF15
:101230000A20DFF810170860642002F083FCDFF852
:10124000F416086031BD00007330000073310000F7
:1012500046010020CE070020CF0700201CBE00085A
:101260001A100240180002400CBB0008181002407F
:10127000C4C7000824CB0008D8C300082DE9F047F4
:1012800082B08246DFF8C4060078012806D0DFF875
:10129000C00603F08FFF04F004F87BE0002418255B
:1012A0005FF01809DFF89C0604F060FCDFF8A00D81
:1012B00004F05CFC022003F06FFADFF8CC08007841
:1012C00000280BD0DFF86C060368DFF878060268A8
:1012D0002900C9B22000C0B202F09EFC0026DFF84F
:1012E00064060068864255D2DFF8A80800780090AE
:1012F00096232E4A4946C9B22800C0B204F081FDA7
:10130000DFF88408007800283BD0701C0A2803D23C
:1013100085A003F04FFF0DE0701C642803D283A06A
:1013200003F048FF06E0701CB0F57A7F02D280A07F
:1013300003F040FF711C7FA003F04CFF7EA003F080
:1013400039FF0127E4B2601C87421ADA0422904672
:10135000164830F9170000B204F0BCFE04F0D4FEC9
:10136000174A184B04F0F8FE0022174B05F046F818
:1013700004F0C4FF010042466CA003F049FF7F1C4B
:10138000E0E703F08EFFDFF8C80C006804F07AFE97
:10139000761CA4E7BDE8F387F0BD000866310000C5
:1013A00061310000613200006E31000078040020DD
:1013B0007B14AE47E17A743FFCA9F1D24D62303F15
:1013C000764B5CF069B7B23F00003F404CCD00085F
:1013D0005CCD0008FCC3000818D100082DE9F047D7
:1013E00082B08246DFF864050078012806D0DFF875
:1013F000600503F0DFFE03F054FF93E000245FF08C
:101400000A085FF00E095FFA89F919F102005FFA24
:1014100088F8B0EB0800022190FBF1F00400DFF83F
:10142000240504F0A3FBDFF8280C04F09FFB022046
:1014300003F0B2F9DFF85007007800280BD0DFF88E
:10144000F4040368DFF8FC0402684146C9B22000D6
:10145000C0B202F0E1FB0026DFF8E8040068864233
:1014600060D2DFF83007007800909623DFF8EC2A8E
:101470004946C9B24046C0B204F0C3FCDFF80807D1
:101480000078002845D0701C0A2803D226A003F05B
:1014900091FE0DE0701C642803D224A003F08AFEA4
:1014A00006E0701CB0F57A7F02D221A003F082FE24
:1014B000711C20A003F08EFEDFF8A40A03F07AFE70
:1014C0000127E4B2601C874220DADFF8900A30F985
:1014D000170000B204F0FEFD04F016FEDFF8842AC7
:1014E000DFF8843A04F038FE04F008FF0500280015
:1014F000002104F04BFF02D80DA003F05BFE042294
:1015000029000AA003F084FE7F1CDAE781A003F023
:1015100051FE03F0C6FEDFF8380B006804F0B2FDA0
:10152000761C99E7BDE8F3872020200020200000EA
:1015300020000000000000003A20200020C4000825
:1015400024C0000844C400082DE9F04F83B083464E
:10155000DFF8F8030078012806D0DFF8F40303F081
:1015600029FE03F09EFED2E05FF004095FF0060A58
:101570001AEB0900401E8DF804009DF80400401C81
:101580005FFA89F9B0EB0900022190FBF1F80A201B
:10159000DFF8B01308600220DFF8EC170860DFF80E
:1015A000A40304F0E3FADFF8E00704F0DFFADFF861
:1015B000D807006802F0C6FADFF8CC1708600320ED
:1015C00003F0EAF80120FEF7F6FDDFF8BC0500782D
:1015D00000280AD0DFF8B0070368DA4802684946F5
:1015E000C9B24046C0B202F017FB0026D5480068D9
:1015F00086427DD2DFF8980500780028FAD00020D6
:10160000DFF88C150870DFF88C05007800909623C1
:10161000DFF848299DF804104846C0B204F0F1FBF9
:10162000DFF86405007800285DD0701C0A2803D21A
:1016300039A003F0BFFD0DE0701C642803D2B1A0F7
:1016400003F0B8FD06E0701CB0F57A7F02D2AEA0C0
:1016500003F0B0FD711C31A003F0BCFDDFF8000900
:1016600003F0A8FD01275FFA88F818F1010087420E
:1016700034DADFF8E80830F9170000B204F02AFD88
:1016800004F042FDDFF8682ADFF8683A04F064FDF0
:1016900004F034FE04002000002104F077FE02D89C
:1016A00099A003F087FD200004F082FE40B204F010
:1016B000A1FE0500EDB20A2D03DA92A003F07AFD37
:1016C00005E0EDB2642D02DA8FA003F073FD042271
:1016D00021008CA003F09CFD7F1CC4E70DA003F04B
:1016E00069FD03F0DEFD012004F0CCFC761C7DE7F3
:1016F0000020FEF760FD022003F04EF80A20914919
:101700000860022002F01EFADFF87C160860BDE8CF
:10171000F78F0000203E0000202020000000000085
:10172000E4C700083CCB000804C80008ACCE0008A1
:101730006CCD000820D1000824CC0008ACC90008FA
:10174000DCBB00087CCD000874BC00082DE9F84F14
:1017500083467E480078012805D07D4803F02AFDA5
:1017600003F09FFDCCE05FF000085FF004095FF03C
:101770000E0A5FFA8AFA1AF102005FFA89F9B0EBF1
:101780000900022190FBF1F080466E4804F0EEF96A
:10179000DFF8BC0804F0EAF9022002F0FDFFDFF8F0
:1017A000E8030078002809D06248036865480268A9
:1017B0004946C9B24046C0B202F02EFA002661483E
:1017C0000068864280F09C80DFF8C80300780090B3
:1017D0009623DFF888275146C9B24846C0B204F0C4
:1017E00010FBDFF8A4030078002800F08280701C52
:1017F0000A2803D250A003F0DDFC0DE0701C642821
:1018000003D240A003F0D6FC06E0701CB0F57A7F4E
:1018100002D23DA003F0CEFC711C48A003F0DAFC1C
:10182000DFF83C0703F0C6FC01275FFA88F818F1DF
:101830000100874258DA042F33DADFF8200730F945
:10184000170000B204F046FC04F05EFCDFF8A028AC
:10185000DFF8A03804F080FC04F050FD0400200004
:10186000002104F093FD02D827A003F0A3FC200080
:1018700004F09EFD40B204F0BDFD0500EDB20A2D5E
:1018800003DA20A003F096FC05E0EDB2642D02DA45
:101890001DA003F08FFC042221001AA003F0B8FC65
:1018A00020E0072F1EDADFF8B40630F9170000B287
:1018B00004F010FC04F028FCDFF8A826DFF8A836B6
:1018C00004F04AFC04F01AFD04002000002104F09A
:1018D0005DFD02D80CA003F06DFC0422210009A0DC
:1018E00003F096FC7F1CA0E7A2A003F063FC03F0CA
:1018F000D8FCDFF85C07006804F0C4FB761C5EE7E8
:10190000BDE8F18F202000002000000054CB00082B
:101910008CCD000810B504004FF40041DFF8B40C82
:1019200003F027FF00BF4FF40041DFF8A80C03F0DD
:101930001EFF10BD34010020202020000000000008
:10194000B8CE00082C01002028D100084A01002050
:1019500004C900082DE9F04FC5B08346DFF800093F
:101960000078012806D0DFF8FC0803F023FC03F020
:1019700098FCFCE004A84FF4807104F0A7FB5FF032
:1019800000095FF0000A002003900120019001206F
:101990000290002400255FF0010803A804F0E6F897
:1019A00001A804F0E3F802A804F0E0F803988146E7
:1019B0005FFA89F90198401E19EB40008246012028
:1019C000FEF7F9FB032002F0E7FE6F4800780028DD
:1019D0002AD00199DFF8AC0A03F0FCFB019801283A
:1019E00004D1DFF8A40A03F0E5FB03E0DFF89C0A6A
:1019F00003F0E0FB5FFA89F94946DFF8940A03F047
:101A0000F8FB0299DFF88C0A03F0E4FB0298012846
:101A100004D1DFF8840A03F0CDFB03E0DFF87C0A91
:101A200003F0C8FB03F03DFC00260298864280F0DC
:101A30009B80574800780028FBD00020544908704C
:101A4000544800780090692304AA5146C9B2484618
:101A5000C0B204F0D6F94C480078002800F082802B
:101A600001270198401C87427AD25FFA89F9781ED3
:101A700019EB40000400E4B2032C0ADA04A830F8A1
:101A80001710A5A003F0B5FBDFF85C0B03F092FB89
:101A900064E0E4B2092C35DA04A830F9170000B28A
:101AA00004F018FB04F030FBDFF84426DFF844367E
:101AB00004F052FB04F022FC05002800002104F091
:101AC00065FC02D8ADA003F075FB280004F070FCA3
:101AD00004F090FC80465FFA88F8B8F10A0F03DA48
:101AE000A7A003F067FB07E05FFA88F8B8F1640F7E
:101AF00002DAA2A003F05EFB04222900A0A003F0FA
:101B000087FB2BE0E4B20F2C1EDA04A830F9170093
:101B100000B204F0DFFA04F0F7FADFF84824DFF847
:101B2000483404F019FB04F0E9FB0500280000210B
:101B300004F02CFC02D291A003F03CFB042229000B
:101B40008FA003F065FB09E004A830F8171072A01D
:101B500003F04FFBDFF8900A03F02CFB7F1C80E7BB
:101B600003F09FFB761C60E7022002F015FE45B0F3
:101B7000BDE8F08F203E0000780700200000F03F15
:101B800000408F400000E03F490100204801002054
:101B9000D10700204B0100202DE9F041C4B0040022
:101BA000DFF8BC060078012806D0DFF8B80603F09D
:101BB00001FB03F076FBACE004A84FF4807104F065
:101BC00085FA04200390012002900A200190C82089
:101BD0006D49086003A803F0C9FF02A803F0C6FF1F
:101BE00001A803F0C3FF684803F0C0FF039D0298FB
:101BF000C0B215EB4000461E6348006801F0A2FF2A
:101C000061490860022002F0C7FD0120FEF7D3FA07
:101C10000020DFF8DC190870DFF8D8090078002808
:101C200032D00299DFF85C0803F0D4FA0298012858
:101C300004D1DFF8540803F0BDFA03E0DFF84C08E4
:101C400003F0B8FAEDB22900DFF8440803F0D1FA46
:101C50000199DFF8400803F0BDFA0198012804D18A
:101C6000DFF8340803F0A6FA03E0DFF8300803F0E9
:101C7000A1FA45480168DFF8800903F0ABFA41A0FA
:101C800003F098FA03F00DFB00270198874233D246
:101C9000DFF85C0900780028FAD00020DFF850193E
:101CA0000870DFF8580900780090962304AA3100E4
:101CB000C9B22800C0B204F0A4F8DFF838090078EF
:101CC000002814D05FF001080298401C80450CD217
:101CD00004A830F8181010A003F08BFADFF80809F8
:101CE00003F068FA18F10108EEE703F0DAFA0120D0
:101CF00004F0C8F97F1CC8E70020FEF75CFA022058
:101D000002F04AFD0A200190022001F01BFF1E494B
:101D1000086044B0BDE8F081307800001CB50400D4
:101D2000DFF83C050078012806D0DFF8380503F01D
:101D300041FA03F0B6FA20E0712001900F200090E4
:101D400001A803F013FF00A803F010FF0099C9B227
:101D50000198C0B204F008F9DFF89808007800286C
:101D60000BD00099DFF8980803F043FA0199DFF8E7
:101D70000C0D03F03EFA03F094FA13BD20000000AE
:101D80002020000020487A00340100202DE9F04393
:101D9000C3B00400DFF8C8040078012806D0DFF8DB
:101DA000C40403F007FA03F07CFAD3E002A84FF46E
:101DB000807104F08BF9002552265A2701200190EA
:101DC000022002F0E9FC01A803F0D0FE0198FB28F4
:101DD00001D3FA2001905FF000080198804580F05F
:101DE000B980FFB2F6B2B81B022190FBF1F0401CA3
:101DF00005005FF00009EDB2A94519D2DFF8FC0734
:101E000000780090962302A810EB89024846C0B2E1
:101E100016EB4000411CC9B2F6B216EB4900C0B245
:101E200003F0EFFF012004F02DF919F10109E2E7B9
:101E30005FF00009B9F10C0F08DA02A830F81910A8
:101E4000A6A003F0D6F919F10109F3E7DFF8A4071A
:101E50000078002877D0B8F1000F29D1EDB2290021
:101E6000DFF8200603F0B6F9EDB2012D04D1DFF85A
:101E7000180603F09FF903E0DFF8100603F09AF963
:101E8000F6B23100DFF87C0703F0B3F9019994A0B2
:101E900003F0A0F90198012804D1DFF86C0703F0E2
:101EA00089F903E0DFF8640703F084F903F0F9F936
:101EB000B8F1090F05D218F101018AA003F08AF9DF
:101EC0000DE0B8F1630F05D218F1010186A003F00F
:101ED00081F904E018F1010180A003F07BF9DFF83B
:101EE000300703F067F95FF00109EDB2681C814526
:101EF00027DAB9F1030F09D15FEA490002A911EB12
:101F00004000418879A003F074F917E0B9F1040F9B
:101F10000AD15FEA490002A911EB400030F8061C23
:101F20006EA003F066F909E05FEA490002A911EB2F
:101F3000400030F8021C6DA003F05BF919F10109B3
:101F4000D3E703F0AEF94248006804F09BF818F1BB
:101F5000010842E743B0BDE8F083000078040020A8
:101F600030D10008FCA9F1D24D62303F2DE9F0419B
:101F700086B0040000250A2600A8002100220023C4
:101F80000EC00C3803A80021002200230EC00C381C
:101F900000275FF055080A208DF8000009208DF811
:101FA000010008208DF8020007208DF803000620AC
:101FB0008DF8040005208DF8050004208DF806003A
:101FC00003208DF8070002208DF8080001208DF80D
:101FD00009004746FFB25FFA88F8B6B216EB080070
:101FE000874211DAFFB25FFA88F8B7EB0800050004
:101FF000ADB200A8295C3800C0B203F0B5FFADB2A5
:1020000003A968547F1CE5E7FFB23900DFF87C0ABA
:1020100003F0EFF803F045F900200500ADB2B6B2C9
:10202000B54211D2ADB200A8295CDFF8640A03F012
:10203000E0F8ADB203A8295CDFF8D00A03F0D9F8C4
:1020400003F02FF96D1CE9E706B0BDE8F081000050
:10205000300100201CB50400032001904FF4FA70F9
:10206000009001A803F082FD00A803F07FFD019815
:10207000DFF89C1A0860DFF8980A0168DFF8140A94
:1020800003F0A8F80099DFF8100A03F0A3F8DFF8CE
:102090000C0A03F08FF8DFF8780A0068002815D0E2
:1020A000032004F0C7FB0098400803F0EBFF032077
:1020B00004F0C7FB0098400803F0E4FFDFF8500A83
:1020C0000068401EDFF8481A0860E4E703F0E9F80A
:1020D00013BD10B5040004F042FC10BD2000000048
:1020E0002920000020202000202000000000000007
:1020F0007B14AE47E17A743F2DE9F041C4B004008F
:1021000057480078012805D0564803F053F803F0EB
:10211000C8F8A0E004A84FF4807103F0D7FF0420B2
:102120000390012002900A2001900220DFF8E419B8
:10213000086003A803F01AFD02A803F017FD01A828
:1021400003F014FDDFF8CC0903F010FD4FF47A70B2
:10215000DFF8C0190968B0FBF1F0DFF8BC190860BE
:10216000039D0298C0B215EB4000461E0420DFF824
:10217000A4190860022002F00FFBDFF87804007851
:1021800000282CD00299BF4803F024F802980128B7
:1021900003D1BD4803F00EF802E0BC4803F00AF892
:1021A000EDB22900BA4803F024F80199B94803F0C8
:1021B00011F80198012803D1B74802F0FBFF02E0B3
:1021C000B64802F0F7FFDFF84C090168DFF8280491
:1021D00003F000F821A002F0EDFF03F062F8002701
:1021E000019887422CD2DFF81404007800909623DF
:1021F00004AA3100C9B22800C0B203F002FEDFF821
:10220000F4030078002814D05FF001080298401C05
:1022100080450CD204A830F8181099A002F0E9FF0C
:10222000DFF8C40302F0C6FF18F10108EEE703F07F
:1022300038F8DFF8E408006803F024FF7F1CCFE7DC
:10224000022002F0A9FA0A200190022001F07AFC93
:10225000DFF8C018086044B0BDE8F08120487A007B
:102260004A01002004C900082DE9F14F82B0DFF8CF
:10227000AC080078012806D0DFF8A40802F09AFF25
:1022800003F00FF8FAE040248125EDB2681CE4B2B7
:10229000001B022190FBF1F60120FDF78CFFDFF817
:1022A000840803F063FCDFF8700803F05FFC032090
:1022B00002F072FACF48007800280BD0DFF85408FB
:1022C0000368DFF8600802682100C9B23000C0B2BC
:1022D00001F0A2FC5FF0000ADFF8480800688245C0
:1022E00080F0C680C24800780028FBD00020C0499A
:1022F0000870C248007800906923DFF82C28290074
:10230000C9B22000C0B203F07CFDBA4800780028B2
:1023100000F0A6805FF0000BF6B2701C834580F2DF
:102320009D80BBF1000F0AD1DFF8000802F042FFE8
:102330005146A7A002F04EFF002081468BE0F6B286
:10234000B34579DABBF1010F05D102F0AAFFDFF83E
:10235000E00702F02FFFBBF1070F05D102F0A1FF4C
:10236000DFF8D00702F026FFBBF10D0F05D102F018
:1023700098FFDFF8C40702F01DFFBBF1130F05D172
:1023800002F08FFFDFF8B40702F014FFBBF1190F62
:1023900005D102F086FFDFF8A80702F00BFFBBF1C2
:1023A0001F0F05D102F07DFFDFF8980702F002FF52
:1023B0005FFA89F9B9F1000F08D1DFF86C0730F83E
:1023C0001B00000407000120814644E05FFA89F900
:1023D000B9F1010F28D1DFF8500730F81B0007438F
:1023E00000208146BBF1130F04DAF809B0F5004074
:1023F00080460BE0BBF11F0F04DAB80BB0F50040CC
:10240000804603E03800B0F500408046390072A0F5
:1024100002F0EFFE0FFA88F8414670A002F0DAFEF3
:102420006BA002F0C7FE16E0DFF8FC0630F81B10C8
:102430006BA002F0DEFE0EE002F033FFDFF8CC0905
:1024400002F0B8FEDFF8E00630F81B1065A002F0DD
:10245000D0FE02F026FF1BF1010B5DE702F021FF29
:10246000DFF8B406006803F00DFE1AF1010A33E745
:102470000020FDF7A0FE022002F08EF9BDE8F78FE4
:1024800030780000C4CE000838D1000840D10008E0
:1024900068C40008D0CE000848D1000850D1000818
:1024A0002DE9F04182B00400DFF8700600780128C1
:1024B00006D0DFF86C0602F07DFE02F0F2FE85E049
:1024C000432562265FF000080120FDF774FEDFF867
:1024D000540603F04BFBDFF8400603F047FB0220F5
:1024E00002F05AF94548007800906923DFF8382651
:1024F0003100C9B22800C0B203F083FC4FF4FA7077
:1025000003F0C0FD3D48007800906923DFF81826ED
:102510003100C9B22800C0B203F073FCDFF8F00844
:1025200002F048FEDFF80006008C070017F4006098
:10253000DFF8E0180880DFF8DC080088002806D102
:10254000DFF8D40802F036FE02F0ABFE31E0DFF82F
:10255000CC0802F02FFE02F0A4FE2848007800907C
:102560006923DFF8C4253100C9B22800C0B203F0E6
:1025700048FC18F101085FFA88F8B8F1040F04D19B
:102580000020804619A002F015FEFA2003F07AFD23
:10259000DFF89405008C10F400600128DDDA02F009
:1025A00080FE02F07EFEDFF8700802F003FE02F00B
:1025B00078FE0020FDF7FFFD642003F063FD00219D
:1025C000002003F0D1FC642003F05CFDBDE8F38142
:1025D000200000000000024020202000203D2000BC
:1025E000202000000000000058D100082E0000004C
:1025F000D10700204901002060D100084B010020D4
:10260000DCCE000824C8000868D1000870D100089A
:1026100078D100082DE9F14F84B0DFF8000500788B
:10262000012806D0DFF8F80402F0C4FD02F039FEFC
:102630001EE243208DF8050020208DF807009DF84C
:1026400005009DF807100818401E8DF806009DF83B
:102650000600401C9DF80510401A022190FBF1F085
:102660008DF804000A20DFF8BC1408600220DFF8AF
:10267000A4140860DFF8AC0403F078FADFF89404DF
:1026800003F074FADFF88C04006801F05BFADFF8FD
:10269000841408605FF00008DFF8849700240025A8
:1026A000DFF88007007800906923DFF87C2436216A
:1026B000362003F0A6FBDFF87004408880B2000AE1
:1026C000ADF80C00BDF80C10DFF85C0702F091FDCE
:1026D00002F0E7FD0120FDF76EFD022002F05CF83C
:1026E000DFF848070078002839D09DF80410DFF89B
:1026F000400702F06FFD9DF80400012804D1DFF8C7
:10270000340702F057FD03E0DFF82C0702F052FD1A
:102710009DF80510DFF8240702F06BFDDFF80404D4
:102720000168DFF81C0702F055FDDFF8F8030068C8
:10273000012804D1DFF80C0702F03CFD03E0DFF8CC
:10274000080702F037FDDFF8CC030168DFF8FC066C
:1027500002F040FDC8A002F02DFD02F0A2FD00270E
:10276000DFF8C0030068874280F07481DFF8E0067C
:1027700000780028FAD00020DFF8D4160870DFF8BF
:10278000A406007800906923DFF89C239DF80610CA
:102790009DF8050003F035FBDFF89006007800286F
:1027A00000F0538100269DF80400B042C0F24B8136
:1027B000002E00F046819DF80400864280F23781A9
:1027C000012E04D10020DFF88C1680468946042EA5
:1027D00004D10020DFF8801680468946072E04D1F8
:1027E0000020DFF87816804689460A2E04D10020A2
:1027F000DFF86816804689460D2E04D10020DFF8E8
:10280000601680468946DFF8200330F81600ADF8E0
:102810000A00BDF90A00ADF80800042E3ADABDF945
:10282000080004F0D7F842464B4603F095FC04003C
:102830000D00200029000022002304F0E1F802D856
:102840008FA002F0B7FCA246AB463BF0004B5046CF
:1028500059460022DFF80C3604F0EAF803D289A0CA
:1028600002F0A8FC0AE0504659460022DFF8F8358D
:1028700004F0DEF802D282A002F09CFC0422009256
:102880002000290003F03AFD0100009A7EA002F02A
:10289000BFFCD6E0072E3ADABDF9080004F09AF83A
:1028A00042464B4603F058FC04000D00200029006E
:1028B0000022002304F0A4F802D871A002F07AFCF0
:1028C000A246AB463BF0004B504659460022DFF88B
:1028D000943504F0ADF803D26AA002F06BFC0AE074
:1028E000504659460022DFF8803504F0A1F802D2A4
:1028F00063A002F05FFC042200922000290003F094
:10290000FDFC0100009A60A002F082FC99E00A2E12
:102910001FDABDF9080004F05DF842464B4603F0AB
:102920001BFC04000D00200029000022002304F0FD
:1029300067F802D852A002F03DFC04229246200023
:10294000290003F0DBFC010052464FA002F060FCBE
:1029500077E00D2E1FDABDF9080004F03BF842467F
:102960004B4603F0F9FB04000D0020002900002273
:10297000002304F045F802D841A002F01BFC042219
:1029800092462000290003F0B9FC010052463EA007
:1029900002F03EFC55E00D2E3AD1BDF9080004F0DE
:1029A00019F842464B4603F0D7FB04000D00200007
:1029B00029000022002304F023F802D830A002F0FE
:1029C000F9FBA246AB463BF0004B5046594600226D
:1029D000DFF8903404F02CF803D22AA002F0EAFBCE
:1029E0000AE0504659460022DFF87C3404F020F813
:1029F00002D223A002F0DEFB042200922000290074
:102A000003F07CFC0100009A1FA002F001FC18E01A
:102A10000E2E05D1BDF80A101BA002F0DBFB10E062
:102A2000414830F8161018A002F0E3FB09E03E48D8
:102A300030F81600ADF80A00BDF80A1012A002F036
:102A4000D8FB761CAFE602F02CFC012003F01AFB49
:102A50007F1C85E60020FDF7AEFB022001F09CFE06
:102A60000A2030490860022001F06CF8294908600A
:102A700005B0BDE8F08F000020487A008CC4000843
:102A8000200000002020000020202000A4BC00081E
:102A900080D100089CCD0008F4CE000800CF0008CB
:102AA00070B504001D480078012805D01C4802F0CC
:102AB00081FB02F0F6FB26E005250026032001F04D
:102AC0006BFE00200600B6B2ADB2AE4218D2B6B26E
:102AD0003100DFF84C0E02F07DFB02F0E2FB00203B
:102AE000FEF7BAF90020FEF741FA0020FEF78CFA53
:102AF0000020FFF78FFD0020FEF7F4F9761CE2E7D7
:102B0000022001F049FE70BD00000000E8CE000880
:102B10008807002034010020300100204A010020F5
:102B200004C900082C010020780400200CCF000804
:102B300088D1000890D1000898D10008ACCD0008D9
:102B400018CF0008BCCD00082DE9F14FC6B0DFF862
:102B5000700C0078012806D0DFF8680C02F02AFB20
:102B600002F09FFB4AE106A84FF4807103F0AEFA31
:102B70000027FA2003905FF000095FF000080021B1
:102B8000502003F0F1F9DFF8400C03F01EF9DFF8F4
:102B90003C0C02F00FFB02F084FB00200600A14871
:102BA0000078009040F2A91306AA5021502003F0AB
:102BB00028F994A002F0FEFABDF81A000700761C6E
:102BC000039803F05FFABFB2F8B20B28E7D102F026
:102BD00068FBDFF8640C02F0EDFA02F062FB4820BB
:102BE0008146502080468F48007800909623DFF879
:102BF0004C2C4146C9B24846C0B203F002F9DFF896
:102C00003C0C418880A002F0F4FA02F04AFBDFF8A5
:102C10002C0C81887CA002F0ECFA02F042FBDFF879
:102C20001C0CC18878A002F0E4FA02F03AFBDFF84D
:102C30000C0C018974A002F0DCFA02F032FBDFF820
:102C4000FC0B418970A002F0D4FA02F02AFB0022AA
:102C5000DFF8EC3B00205FF0804104F058F90400FD
:102C60000D00DFF8D80BB0F9020000B203F032FA21
:102C700003F04AFA0022DFF8B03C03F06DFA824616
:102C80008B462000290003F039FB03F03DFA0200D7
:102C90000B005046594603F061FC03F02FFB0490F3
:102CA0000022DFF89C3B00205FF0804104F02FF908
:102CB00004000D00DFF8840BB0F9040000B203F04B
:102CC00009FA03F021FA0022DFF85C3C03F044FA31
:102CD00082468B462000290003F010FB03F014FA13
:102CE00002000B005046594603F038FC03F006FB87
:102CF00005900022DFF8483B00205FF0804104F09F
:102D000006F904000D00DFF8340BC08803F0ECF97D
:102D100003F0FAF900225FF0804303F01DFA8246C7
:102D20008B462000290003F0E9FA03F0EDF90200D8
:102D30000B005046594603F011FC03F0DFFA0290F5
:102D40000022DFF8E83B00205FF0804104F0DFF86C
:102D500004000D00DFF8E40AB0F9080000B203F047
:102D6000B9F903F0D1F9DFF8A82CDFF8A83C03F09B
:102D7000F3F982468B46200029000022DFF8983CB8
:102D800003F03CFB03F0BAFA03F0BEF902000B00BB
:102D90005046594603F0E2FB0022DFF8803C03F086
:102DA000DBF9DFF86C2CDFF8783C03F0D7FB03F09D
:102DB000A5FA019004220499DFF8680C02F028FAC1
:102DC00002F06FFA04220599DFF85C0C02F020FA99
:102DD00002F067FA04220299DFF8500C02F018FAA8
:102DE00002F05FFA04220199DFF8340D02F010FAC4
:102DF00002F057FA0021002003F0B6F847B0BDE812
:102E0000F08F00002E00000030780000A0D10008F4
:102E100038CC0008C4070020B0C40008D4C400089F
:102E20000000F03F4B01002024CF000849010020A2
:102E30004CCC0008A8D10008B0D100086CCB000829
:102E4000D0CE000848D1000850D1000860D1000859
:102E5000D10700200080763F00B0933F0000343F50
:102E60000000693F00002440000059402DE9F14F67
:102E70008CB0DFF84C090078012807D0DFF844094E
:102E800002F098F902F00DFA00F097BC09A8DFF8FB
:102E9000941C0A68026008A8DFF88C1C0A680260AB
:102EA00002A8DFF8881C0A6802600BA8DFF8801C03
:102EB0000A6802600020032814DA02A9415C0BAA08
:102EC000825C5118491E03AA815403A9415C491C24
:102ED00002AA825C891A022291FBF2F107AA8154AC
:102EE000401CE8E701208DF804005FF0000A05A807
:102EF000DFF8401C0CC90CC00839083803200490C6
:102F000004A802F033FE05A802F030FE06A802F085
:102F10002DFE04984FF6DD71884202D34FF6DC7027
:102F2000049005984FF6DD71884202D34FF6DC70AD
:102F3000059006984FF6DD71884202D34FF6DC709B
:102F400006900020DFF8F01B08705FF00A090220ED
:102F500001F022FC012000F03BFC4FF4FA7003F07A
:102F600091F80120FDF727F9C82003F08BF8DFF86E
:102F7000CC0B02F01FF902F094F90120DFF8081DD4
:102F800008804FF40040DFF8041D08800420DFF8BB
:102F9000F81C08804FF4FA6003F074F8DFF8A00B17
:102FA00002F008F902F07DF90120DFF8E41C088046
:102FB0004FF4C87003F066F80420DFF8D41C0880D2
:102FC00002F06FF9DFF8CC0C02F0F4F802F069F9C6
:102FD000642003F057F800F0ABFC002641F2883083
:102FE0000A90DFF8B80C02F0E5F802F05AF94FF455
:102FF000FA7003F047F802F054F9DFF8A40C02F07D
:10300000D9F802F04EF94FF4FA7003F03BF80020C3
:10301000DFF8241B08705FF00008B8F1640F80F23D
:103020008B81DFF8140B00780028FAD00020DFF83D
:10303000081B0870DFF89C0D007800906923DFF80A
:10304000FC279DF80C109DF8080002F0DAFEDFF86E
:10305000840D007800906923DFF8482C9DF80D104E
:103060009DF8090002F0CDFEDFF8680D00780090B1
:103070006923DFF8342C9DF80E109DF80A0002F049
:10308000C0FE19F101095FFA89F9B9F10A0FC0F21E
:103090004D810020814601279DF81C00401C87427D
:1030A00080F2DC80042F32DADFF8900730F9170065
:1030B00000B203F00FF803F027F80022DFF8EC3B32
:1030C00003F04AF803F01AF904002000002103F08D
:1030D0005DF902D8DDA002F06DF8200003F068F978
:1030E00040B203F087F90500EDB20A2D03DAD8A04B
:1030F00002F060F805E0EDB2642D02DAD3A002F030
:1031000059F804222100D2A002F082F8A4E0072F8F
:1031100032DADFF8280730F9170000B202F0DAFFE0
:1031200002F0F2FF0022DFF8B43C03F015F803F0E0
:10313000E5F804002000002103F028F902D8C3A01C
:1031400002F038F8200003F033F940B203F052F9EE
:103150000500EDB20A2D03DABDA002F02BF805E060
:10316000EDB2642D02DAB9A002F024F804222100A5
:10317000B7A002F04DF86FE00A2F1EDADFF8BC06A8
:1031800030F9170000B202F0A5FF02F0BDFF0022E7
:10319000DFF84C3C02F0E0FF03F0B0F80400200040
:1031A000002103F0F3F802D8A8A002F003F80422EB
:1031B0002100A7A002F02CF84EE00D2F1EDADFF858
:1031C0007C0630F9170000B202F084FF02F09CFF89
:1031D0000022DFF80C3C02F0BFFF03F08FF8040080
:1031E0002000002103F0D2F802D898A001F0E2FFFD
:1031F0000422210096A002F00BF82DE00E2F1ADA1F
:1032000004229346DFF8340630F9170000B202F0CA
:1032100061FF02F079FF0022DFF8C83B02F09CFF5B
:1032200003F06CF801005A4689A001F0F1FF88A074
:1032300001F0C0FF10E0102F07DADFF8000630F8C9
:10324000171084A001F0D5FF06E0DFF8F00530F894
:1032500017107FA001F0CDFF7F1C1DE7DFF8DC0514
:10326000B0F9240000B202F035FF02F04DFFDFF8A4
:10327000842CDFF8843C02F06FFF03F03FF8040079
:103280002000002103F082F802D870A001F092FF24
:10329000200003F08DF840B203F0ACF80500EDB269
:1032A0000A2D03DA6AA001F085FF05E0EDB2642D76
:1032B00002DA66A001F07EFF0422210064A001F082
:1032C000A7FFDFF87805B0F9280000B202F002FF8E
:1032D00002F01AFFDFF81C2CDFF81C3C02F03CFF68
:1032E00003F00CF804002000002103F04FF802D88E
:1032F00056A001F05FFF200003F05AF840B203F03F
:1033000079F80500EDB20A2D03DA51A001F052FF61
:1033100005E0EDB2642D02DA4CA001F04BFF04226F
:1033200021004BA001F074FF01F0BBFF012002F06F
:10333000A9FE18F1010870E65FF0000B1FFA8BFB85
:103340000498BBEB400F80F01C829DF80400401CE9
:103350008DF804009DF80400022802DB00208DF89F
:10336000040001F09EFF9DF80400002805D1059996
:10337000DFF8900B01F02EFF04E00699DFF8880BD0
:1033800001F028FF1FFA8BFB1BF10101DFF87C0B1A
:1033900001F020FF04984100C1A001F01BFFDFF8FD
:1033A000700B01F007FF4FF4FA7002F06BFE9DF80E
:1033B000040008A931F810309DF8040009A931F87B
:1033C00010209DF8040005A951F8201089B29DF83D
:1033D000040000F02DFB0020DFF85C1708705FF0A0
:1033E0000008B8F1640F80F2C981DFF84C0700785B
:1033F000002844D1761C012002F044FE0A98B04215
:10340000F3D29DF80400002826D1DFF8F80B01F074
:10341000D1FE01F046FFDFF8F00B01F0CBFE3220C9
:1034200002F030FE012000F0D3F9322002F02AFE33
:10343000BDF82030BDF824200121002000F0F8FA6A
:103440004FF4FA6002F01EFE13E000BF20000000FF
:103450002020000000000000DFF8B00B01F0AAFE01
:10346000322002F00FFE012000F0B2F9322002F00B
:1034700009FE01F016FF01F014FF1AF1010A002005
:10348000DFF8B416087000200600DFF8480900785D
:1034900000906923DFF8A4239DF80C109DF8080024
:1034A00002F0AFFCDFF82C09007800906923DFF808
:1034B000F4279DF80D109DF8090002F0A2FCDFF83A
:1034C0001409007800906923DFF8DC279DF80E10BE
:1034D0009DF80A0002F095FC19F101095FFA89F9DB
:1034E000B9F10A0FC0F244810020814601279DF8FE
:1034F0001C00401C874280F2D580042F31DACF486F
:1035000030F9170000B202F0E5FD02F0FDFD0022E7
:10351000DFF8983702F020FE02F0F0FE04002000F1
:10352000002102F033FF02D8C1A001F043FE2000C9
:1035300002F03EFF40B202F05DFF0500EDB20A2D41
:1035400003DABCA001F036FE05E0EDB2642D02DA2C
:10355000B7A001F02FFE04222100B6A001F058FE12
:103560009BE0072F31DAB54830F9170000B202F0BE
:10357000B1FD02F0C9FD0022DFF8603802F0ECFD79
:1035800002F0BCFE04002000002102F0FFFE02D881
:10359000A7A001F00FFE200002F00AFF40B202F0E7
:1035A00029FF0500EDB20A2D03DAA2A001F002FE08
:1035B00005E0EDB2642D02DA9DA001F0FBFD0422CE
:1035C00021009CA001F024FE67E00A2F1DDA9B4831
:1035D00030F9170000B202F07DFD02F095FD0022E7
:1035E000DFF8FC3702F0B8FD02F088FE040020008E
:1035F000002102F0CBFE02D88DA001F0DBFD0422F9
:103600002100C8A001F004FE47E00D2F1DDA8B4811
:1036100030F9170000B202F05DFD02F075FD0022E6
:10362000DFF8BC3702F098FD02F068FE04002000CD
:10363000002102F0ABFE02D87DA001F0BBFD042208
:103640002100B8A001F0E4FD27E00E2F16DA0422D5
:1036500000927A4830F9170000B202F03BFD02F008
:1036600053FD0022DFF87C3702F076FD02F046FEC3
:103670000100009AABA001F0CBFD0EE0102F06DA9E
:103680006E4830F81710A7A001F0B3FD05E06B48B5
:1036900030F81710A3A001F0ACFD7F1C27E700BF96
:1036A0002F0000006548B0F9240000B202F012FDBE
:1036B00002F02AFDDFF83C28DFF83C3802F04CFD30
:1036C00002F01CFE04002000002102F05FFE02D880
:1036D00057A001F06FFD200002F06AFE40B202F038
:1036E00089FE0500EDB20A2D03DA52A001F062FD59
:1036F00005E0EDB2642D02DA4DA001F05BFD04227D
:1037000021004CA001F084FD4C48B0F9280000B223
:1037100002F0E0FC02F0F8FCDFF8D827DFF8D83739
:1037200002F01AFD02F0EAFD04002000002102F080
:103730002DFE02D83EA001F03DFD200002F038FE33
:1037400040B202F057FE0500EDB20A2D03DA39A0AF
:1037500001F030FD05E0EDB2642D02DA34A001F095
:1037600029FD0422210033A001F052FD01F099FD52
:10377000012002F087FC18F1010832E61BF1010B71
:10378000DCE501F08EFDDFF8E00B01F013FD5146A2
:10379000DFF8D80B01F01EFD9CA001F00BFD01F03D
:1037A00080FD01F07EFD4FF4FA7002F06BFC022008
:1037B00000F0F2FF0020FCF7FEFC0DB0BDE8F08F3A
:1037C0004A01002004C90008003C004060CC000809
:1037D00030B5A3B0040001A8842102F077FCDFF823
:1037E000F40500780090962301AA5621562002F095
:1037F00008FBE4B2002C16D0BDF8060043F6100119
:10380000884206D1DFF8680B01F0D4FC01200500E6
:1038100005E0DFF88C0C01F0CDFC0020050001F084
:1038200040FD01F03EFD2800C0B223B030BD0000D5
:10383000200000002020000074CC00087804002044
:103840000000304010B5A2B001A8842102F03EFC77
:10385000DFF880050078009040F2A91301AA3C210E
:103860003C2002F0CEFA00200400A4B2652C01DA5C
:10387000641CFAE7DFF85C050078009040F2A913B9
:1038800001AA3421342002F0BCFA00200400A4B2C2
:10389000652C01DA641CFAE7DFF83805007800903F
:1038A00040F2A91301AA5621562002F0AAFA0020DC
:1038B0000400A4B2652C01DA641CFAE7DFF81405F1
:1038C0000078009040F2A91301AA3621362002F0B8
:1038D00098FA00200400A4B2652C01DA641CFAE70F
:1038E000DFF8F0040078009040F2A91301AA382113
:1038F000382002F086FA00200400A4B2652C01DA18
:10390000641CFAE70321372002F02EFB002004009C
:10391000A4B2B4F5BE7F01DC641CF9E722B010BD8F
:10392000B8D10008202020000000344000002E40C4
:1039300010B5A2B001A8842102F0C8FBDFF89404FE
:103940000078009040F2A91301AA3C213C2002F02B
:1039500058FA00200400A4B2652C01DA641CFAE7CE
:10396000DFF870040078009040F2A91301AA342116
:10397000342002F046FA00200400A4B2652C01DADB
:10398000641CFAE7DFF84C040078009040F2A913B9
:1039900001AA5621562002F034FA00200400A4B2F5
:1039A000652C01DA641CFAE7DFF82804007800903F
:1039B00040F2A91301AA3621362002F022FA002093
:1039C0000400A4B2652C01DA641CFAE7DFF80404F1
:1039D0000078009040F2A91301AA3821382002F0A3
:1039E00010FA00200400A4B2652C01DA641CFAE786
:1039F0000621372002F0B8FA00200400A4B2B4F582
:103A0000BE7F01DC641CF9E722B010BD2900000074
:103A1000182D4454FB2119400000F0BF008066407F
:103A2000FB21094088CC00089CCC0008C8C90008CC
:103A30002DE9F84304000D0016001F005FF0000898
:103A40005FF00009ADB2A94565DAE4B2002C03D1FC
:103A500004208D49088004E04FF40040DFF84C1A40
:103A60000880B6B2300002F00DFBE4B2002C03D1A6
:103A700004208749088003E04FF400408349088010
:103A8000BFB2380002F0FEFAB8F10A0F03D282A0EA
:103A900001F090FB36E0B8F1640F06D27EA001F091
:103AA00089FB7DA001F086FB2CE0B8F57A7F09D276
:103AB00079A001F07FFB78A001F07CFB76A001F0FB
:103AC00079FB1FE042F2107080450CD272A001F029
:103AD00071FB71A001F06EFB6FA001F06BFB6EA09B
:103AE00001F068FB0EE06CA001F064FB6AA001F03D
:103AF00061FB69A001F05EFB67A001F05BFB66A0C3
:103B000001F058FB18F101084146B3A001F062FB37
:103B100019F1010996E701F0C4FBBDE8F18300004B
:103B2000B0CC0008B0D20008B4D20008B8D2000867
:103B3000BCD20008C0D10008D10700201CBE00087C
:103B40000CBB000810B50400962C06D3C820040056
:103B50000121372002F008FA58E04B2C06D36420EC
:103B600004000221372002F0FFF94FE0252C06D394
:103B7000322004000321372002F0F6F946E0172C2A
:103B800006D3192004000421372002F0EDF93DE0AE
:103B90000F2C06D3142004000521372002F0E4F98D
:103BA00034E0082C06D30A2004000621372002F056
:103BB000DBF92BE0052C06D3052004000721372074
:103BC00002F0D2F922E0032C06D3042004000821DD
:103BD000372002F0C9F919E0022C06D302200400B4
:103BE0000921372002F0C0F910E0002C06D0012096
:103BF00004000A21372002F0B7F907E0002C05D1B4
:103C0000002004000021372002F0AEF9200010BD92
:103C1000002800D540427047F8B504000D0016009A
:103C20001F00E4B22100DFF8540A01F0D3FAE4B235
:103C3000012C04D1DFF8480A01F0BCFA03E0DFF8F8
:103C4000440A01F0B7FAEDB22900DFF83C0A01F0AE
:103C5000D0FA3100DFF8340A01F0BCFA012E04D1A9
:103C6000DFF82C0A01F0A6FA03E0DFF8280A01F0D9
:103C7000A1FA3900DFF8200A01F0ACFA9BA001F0AC
:103C800099FA01F00EFBF1BD1A1002401800024033
:103C900018100240C4C700080800000024CB000828
:103CA000D8C300089A0400209E0400200080763FBC
:103CB0002DE9F04104000127DFF8D40A0078401C08
:103CC000874280F28280DFF8CC0A0078012805D193
:103CD00034F8171086A001F08CFA74E0012F05D19A
:103CE00034F817103CA001F084FA6CE0052F2FDAAD
:103CF00034F9170000B202F0EDF902F005FA7D4A3E
:103D00007D4B02F029FA02F0F9FA050028000021A3
:103D100002F03CFB02D879A001F04CFA280002F036
:103D200047FB40B202F066FB0600F6B20A2E03DA49
:103D300073A001F03FFA05E0F6B2642E02DA6FA03C
:103D400001F038FA042229006DA001F061FA3AE08E
:103D5000082F1DDA34F9170000B202F0BBF902F0A7
:103D6000D3F9DFF8D02ADFF8D03A02F0F5F902F003
:103D7000C5FA05002800002102F008FB02D85FA068
:103D800001F018FA042229009DA001F041FA1AE07E
:103D90000422904634F9170000B202F09BF902F0B9
:103DA000B3F9DFF8982ADFF8983A02F0D5F9002243
:103DB000DFF8903A02F022FB02F0A0FA010042463E
:103DC0008FA001F025FA7F1C76E701F06AFABDE8C2
:103DD000F08100004B0100200000000000B0933F84
:103DE0000000343F0000693F2DE9F04104005FF01E
:103DF0000008DFF89C090078401C804572DADFF883
:103E000094090078012805D134F8181038A001F081
:103E1000F0F964E0B8F1000F02D1002005005EE087
:103E2000DFF86C090078804554DAEDB2002D06D138
:103E300034F8180000040600012005004FE0EDB240
:103E4000012D4CD134F81800064300200500B8F1CC
:103E50000D0F04DAF009B0F5004007000BE0B8F1EF
:103E6000190F04DAB00BB0F50040070003E0300092
:103E7000B0F5004007003FB2002F02D41FA001F0B0
:103E800099F93FB23800FFF7C3FEB0F57A7F03DB44
:103E90001AA001F08FF917E03FB23800FFF7B8FE23
:103EA000642803DB16A001F085F90DE03FB238006D
:103EB000FFF7AEFE0A2803DB51A001F07BF903E017
:103EC000DFF8BC0A01F076F93FB239004CA001F0EE
:103ED00081F904E034F8181049A001F08AF918F1CA
:103EE000010886E701F0DDF9BDE8F08120487A009D
:103EF000203078007B14AE47E17A743F2000000048
:103F0000202000004CCD00085CCD0008FCC3000858
:103F100018D100082DE9F84F07000024DFF8905A67
:103F20005FF000085FF000090026DFF86408007801
:103F3000401C864260DADFF85C080078012805D171
:103F400037F81610BAA001F054F953E0002E51D002
:103F5000DFF83C080078864247DA012E04D10020C1
:103F6000DFF88C1A04000D00042E04D10020DFF8C5
:103F7000841A04000D00072E04D10020DFF8701A07
:103F800004000D000A2E04D10020DFF8D01A04002E
:103F90000D0037F816008246ADF800A00E2E15DA97
:103FA000BDF9000002F016FD22002B0002F0D4F84B
:103FB00080468946042293464046494602F09EF9CF
:103FC00001005A469BA001F023F913E00E2E06D102
:103FD0001FFA8AFA514697A001F0FCF80AE037F878
:103FE000161094A001F005F904E037F8161091A01E
:103FF00001F0FFF8761C98E701F053F9BDE8F18F66
:104000002020200020C4000824C0000844C4000868
:104010002DE9F04F83B00700002400255FF0000871
:10402000DFF88C990026DFF868070078401C86428C
:1040300080F2F980DFF85C070078012805D137F8B5
:1040400016107BA001F0D5F8EBE0002E00F0E9801F
:10405000DFF83C070078864280F2D380012E05D13C
:104060000020DFF88C198046894618E0042E05D11F
:104070000020DFF880198046894610E0072E05D120
:104080000020DFF8D8198046894608E00A2E05D1BD
:104090000020DFF8C8198046894600E00B2E37F86B
:1040A0001600ADF80400BDF90400ADF80600042EBA
:1040B0001FDABDF9060002F08DFC42464B4602F0C5
:1040C0004BF804000D00200029000022002302F01C
:1040D00097FC02D8A2A001F06DF8042292462000BD
:1040E000290002F00BF9010052469EA001F090F861
:1040F00097E0072E3ADABDF9060002F06BFC424663
:104100004B4602F029F804000D002000290000228F
:10411000002302F075FC02D891A001F04BF8A246F2
:10412000AB463BF0004B504659460022DFF8983A28
:1041300002F07EFC03D23FA001F03CF80AE05046BA
:1041400059460022DFF8C43A02F072FC02D284A081
:1041500001F030F8042200922000290002F0CEF88D
:104160000100009A7FA001F053F85AE00B2E3ADAD2
:10417000BDF9060002F02EFC42464B4601F0ECFF72
:1041800004000D00200029000022002302F038FC6A
:1041900002D873A001F00EF8A246AB463BF0004BEC
:1041A000504659460022DFF8203A02F041FC03D283
:1041B00020A000F0FFFF0AE0504659460022DFF839
:1041C0004C3A02F035FC02D265A000F0F3FF042265
:1041D00000922000290002F091F80100009A61A0ED
:1041E00001F016F81DE00B2E05D1BDF804105DA0FE
:1041F00000F0F0FF15E037F816105AA000F0F9FFB4
:104200000FE037F81600ADF80400BDF8041055A013
:1042100000F0EFFFBDF8040010F40060DFF8881D27
:104220000880761CFFE601F03CF8BDE8F78F00003F
:1042300020307800202000002DE9F0410400012703
:10424000DFF84C050078401C874280F28480DFF85C
:1042500044050078012805D134F8171091A000F02A
:10426000C8FF76E0012F05D134F817108EA000F0BA
:10427000C0FF6EE0052F31DA34F9170000B201F00B
:1042800029FF01F041FFDFF8C02ADFF8C03A01F052
:1042900063FF02F033F805002800002102F076F8F1
:1042A00002D82FA000F086FF280002F081F840B26B
:1042B00002F0A0F80600F6B20A2E03DA2DA000F0F4
:1042C00079FF05E0F6B2642E02DA25A000F072FF55
:1042D0000422290027A000F09BFF3AE0082F1DDAF6
:1042E00034F9170000B201F0F5FE01F00DFFDFF820
:1042F0004425DFF8443501F02FFF01F0FFFF0500F2
:104300002800002102F042F802D815A000F052FF68
:104310000422290013A000F07BFF1AE0042290463B
:1043200034F9170000B201F0D5FE01F0EDFEDFF820
:104330000C25DFF80C3501F00FFF0022DFF8043503
:1043400002F05CF801F0DAFF0100424605A000F03F
:104350005FFF7F1C74E700F0A4FFBDE8F081000060
:104360002000000020202000E4C700083CCB00080B
:10437000C4CC0008202000002DE9F04104000127F2
:10438000DFF80C040078401C874280F28480DFF85C
:1043900004040078012805D134F8171041A000F07A
:1043A00028FF76E0012F05D134F817103EA000F069
:1043B00020FF6EE0052F31DA34F9170000B201F06A
:1043C00089FE01F0A1FEDFF88029DFF8803901F0D5
:1043D000C3FE01F093FF05002800002101F0D6FF85
:1043E00002D896A000F0E6FE280001F0E1FF40B2FE
:1043F00002F000F80600F6B20A2E03DA90A000F0F0
:10440000D9FE05E0F6B2642E02DA8CA000F0D2FEEE
:10441000042229008AA000F0FBFE3AE0082F1DDAF2
:1044200034F9170000B201F055FE01F06DFEDFF81F
:104430000424DFF8043401F08FFE01F05FFF050073
:104440002800002101F0A2FF02D87CA000F0B2FEFB
:1044500004222900CDA000F0DBFE1AE004229046E1
:1044600034F9170000B201F035FE01F04DFEDFF81F
:10447000CC23DFF8CC3301F06FFE0022DFF8C43329
:1044800001F0BCFF01F03AFF01004246BFA000F07E
:10449000BFFE7F1C74E700F004FFBDE8F081000060
:1044A000D8CC000820307800000000001A0002403C
:1044B0002DE9F04104000127B5480078401C8742EF
:1044C0007DDAB4480078012805D134F8171069A0C6
:1044D00000F08FFE71E0012F05D134F8171066A0AF
:1044E00000F087FE69E0052F31DA34F9170000B2D9
:1044F00001F0F0FD01F008FEDFF84C28DFF84C3841
:1045000001F02AFE01F0FAFE05002800002101F06A
:104510003DFF02D849A000F04DFE280001F048FF01
:1045200040B201F067FF0600F6B20A2E03DA44A09B
:1045300000F040FE05E0F6B2642E02DA3FA000F083
:1045400039FE042229003EA000F062FE35E0082F6B
:104550001BDA34F9170000B201F0BCFD01F0D4FD04
:10456000B44AB54B01F0F8FD01F0C8FE0500280083
:10457000002101F00BFF02D830A000F01BFE042246
:10458000290082A000F044FE17E00422904634F98E
:10459000170000B201F09EFD01F0B6FDA74AA84B3E
:1045A00001F0DAFD0022A74B01F028FF01F0A6FE82
:1045B0000100424675A000F02BFE7F1C7CE700F056
:1045C00070FEBDE8F08110B504000020714908704C
:1045D000DFF8D80A00F0EEFD00F063FE10BD10B564
:1045E0000400DFF8CC0A0078012806D0DFF8C40AFE
:1045F00000F0E0FD00F055FE08E00120654908707C
:10460000DFF8B40A00F0D6FD00F04BFE10BD10B587
:104610000400DFF89C0A0078012806D0DFF8940A2D
:1046200000F0C8FD00F03DFE07E00020DFF88C1A26
:104630000870DFF88C0A00F0BDFD10BD20000000FE
:104640002020000010B50400DFF8640A007801287B
:1046500006D0DFF8600A00F0ADFD00F022FE07E0B2
:104660000120DFF8581A0870DFF8580A00F0A2FDA0
:1046700010BD00002030780000000000C4CE00080B
:10468000A8D10008B0D100086CCB0008D0CE00083B
:1046900048D1000850D1000860D1000810B582B0A0
:1046A0000400DFF80C0A0078012806D0DFF8040ABD
:1046B00000F080FD00F0F5FD66E05FF080400090C6
:1046C00000A801F067FA03220099DFF8FC0900F066
:1046D0009FFD00F0E6FD0098DFF8F01902F030FED3
:1046E00008D2DFF8EC0901F085FBDFF8E80900F0FB
:1046F00061FD49E00098DFF8E01902F021FE08D2E0
:10470000DFF8CC0901F06FFBDFF8D00900F052FDB3
:104710003AE00098DFF8C81902F012FE08D2DFF87C
:10472000B00901F059FBDFF8BC0900F043FD2BE0B4
:104730000098DFF8B41902F003FE08D2DFF8900900
:1047400001F043FBDFF8A40900F034FD1CE0009801
:10475000DFF89C1902F0F4FD08D2DFF8740901F0CB
:104760002DFBDFF8900900F025FD0DE00098DFF843
:10477000881902F0E5FD07D2DFF8540901F017FBB4
:10478000DFF8780900F016FD13BD0000202020009E
:10479000CF070020D007002010B50400E4B2002CA1
:1047A00004D1DFF82C0901F01EFB1BE0E4B2012C60
:1047B00004D1DFF81C0901F00FFB13E0E4B2022C76
:1047C00004D1DFF80C0901F000FB0BE0E4B2032C8C
:1047D00004D1DFF8FC0801F0F1FA03E0DFF8F0089B
:1047E00001F0F3FA10BD10B50400DFF8C40800783A
:1047F000012806D0DFF8BC0800F0DCFC00F051FD19
:1048000003E00120DFF8F818087010BD10B50400AF
:10481000DFF89C080078012806D0DFF8980800F03F
:10482000C9FC00F03EFD03E00020DFF8D41808705A
:1048300010BD0000FCA9F1D24D62303F764B5CF018
:1048400069B7B23F00003F4010B582B00400DFF806
:1048500060080078012806D0DFF8580800F0AAFCAC
:1048600000F01FFD17E04FF47A70009000A801F0EF
:104870007DF942F210700099B0FBF1F0DFF8841876
:1048800008800099DFF8800800F0A4FCCDA000F0BB
:1048900091FC00F006FD13BD10B50400DFF8100810
:1048A0000078012806D0DFF80C0800F083FC00F047
:1048B000F8FC64E0C820FFF745F9DFF850180860FD
:1048C0000020DFF84C1808800020DFF84818088026
:1048D0000020DFF8441808800120DFF84018087035
:1048E0000120FBF768FC4FF47A7001F0CBFB00204D
:1048F000DFF8281808700020FBF75DFCDFF81408CB
:104900000188DFF81C0800F065FCDFF80408018866
:10491000DFF8100800F05EFCDFF8F80700880028D8
:1049200021D0DFF8EC07008800281CD0DFF8E4076E
:10493000008880B2DFF8D8170988491E0522514344
:10494000884210DBDFF8C807008880B2801C052190
:104950004843DFF8C0170988884204DBDFF8C8073E
:1049600000F028FC03E0DFF8C40700F023FC00F0AF
:1049700098FC0220FFF7E6F8DFF89017086010BDFA
:1049800058D1000810B5040001F070FFDFF8A0074F
:1049900000F010FC00F085FC10BD10B5040001F023
:1049A0005EFFDFF8900700F005FC00F07AFC10BD18
:1049B0000000F03F1CB5040001208DF80400002029
:1049C0008DF8060001208DF8070002208DF8050003
:1049D0004020009000A9DFF8600700F067FE220089
:1049E000D2B24021DFF8500700F0C5FE13BD000031
:1049F0000000343F00B0933F1CB5040001F02FFFCE
:104A00000020DFF8381708700020FBF7D4FB0020E7
:104A10008DF8040000208DF8060000208DF80700B6
:104A200002208DF805004FF4E050009000A9DFF857
:104A3000080700F03BFE0020FFF7BCFF642001F0F8
:104A400021FB01F013FF0020DFF864160870DFF887
:104A5000F00600F0AFFB00F024FC13BD0000693F3E
:104A600010B5040001F0FBFE0120FFF7A3FF642056
:104A700001F008FB01F0FAFE642001F003FB02F0F4
:104A800071FC01F06CFFDFF8480601F09EF901208F
:104A9000DFF8A81608700120DFF814160870DFF898
:104AA000A40600F087FB00F0FCFB10BD10B504006D
:104AB000DFF8940600F07EFB00F0F3FB10BD10B5AC
:104AC00004009621032001F04FFA4FF47A7001F0B0
:104AD000D9FA7821032001F047FADFF8700600F0D8
:104AE00069FB00F0DEFB10BD10B588B0040001A822
:104AF000182101F0EBFADFF8C405007800904FF4BC
:104B0000FA7301AA0121012001F07BF9DFF84006C8
:104B100000F050FBBDF80610D8A000F06AFB00F0D2
:104B2000C0FB08B010BD10B504001F21012001F02A
:104B30001BFADFF8200600F03DFB00F0B2FB10BDD1
:104B400010B504001F21022001F00EFADFF8040660
:104B500000F030FB00F0A5FB10BD10B588B00400DC
:104B600001A8182101F0B2FADFF850050078009092
:104B70004FF4FA7301AA2021202001F042F9DFF856
:104B8000D80500F017FBBDF80610BCA000F031FB03
:104B900000F087FB08B010BD10B504006421202090
:104BA00001F0E2F94FF47A7001F06CFA0121212052
:104BB00001F0DAF9DFF8A40500F0FCFA00F071FB6F
:104BC00010BD000020485A000000244010B588B0F5
:104BD000040001A8182101F079FADFF8E004007858
:104BE00000904FF4FA7301AA2221222001F009F962
:104BF000DFF86C0500F0DEFABDF806109FA000F0AB
:104C0000F8FA00F04EFB08B010BD0000000059405B
:104C100010B504006421222001F0A6F94FF47A7047
:104C200001F030FA0121232001F09EF9DFF834056C
:104C300000F0C0FA00F035FB10BD10B588B00400DC
:104C400001A8182101F042FADFF870040078009002
:104C50004FF4FA7301AA2421242001F0D2F8DFF8DE
:104C6000080500F0A7FABDF8061084A000F0C1FA0C
:104C700000F017FB08B010BD10B50400642124201B
:104C800001F072F94FF47A7001F0FCF9FF21252050
:104C900001F06AF9DFF8D40400F08CFA00F001FBAF
:104CA00010BD10B588B0040001A8182101F00EFA5B
:104CB000DFF80804007800904FF4FA7301AA262167
:104CC000262001F09EF8DFF8A80400F073FABDF882
:104CD00006106AA000F08DFA00F0E3FA08B010BDEB
:104CE00010B504006421262001F03EF94FF47A70DB
:104CF00001F0C8F9FF21272001F036F9DFF874042C
:104D000000F058FA00F0CDFA10BD10B588B00400DC
:104D100001A8182101F0DAF9E848007800904FF472
:104D2000FA7301AA2821282001F06BF8DFF8480463
:104D300000F040FABDF8061050A000F05AFA00F05A
:104D4000B0FA08B010BD00007B14AE47E17A743FA2
:104D500010B504006421282001F006F94FF47A70A0
:104D600001F090F9FF21292001F0FEF8DFF80C0492
:104D700000F020FA00F095FA10BD10B588B00400DC
:104D800001A8182101F0A2F9CC48007800904FF456
:104D9000FA7301AA2A212A2001F033F8DFF8E00390
:104DA00000F008FABDF8061034A000F022FA00F076
:104DB00078FA08B010BD10B5040064212A2001F073
:104DC000D3F84FF47A7001F05DF9FF212B2001F048
:104DD000CBF8EC4800F0EEF900F063FA10BD10B526
:104DE00088B0040001A8182101F070F9B3480078D8
:104DF00000904FF4FA7301AA2C212C2001F001F845
:104E0000E14800F0D7F9BDF806101CA000F0F1F958
:104E100000F047FA08B010BD10B5040064212C2042
:104E200001F0A2F84FF47A7001F02CF9FF212D2047
:104E300001F09AF8D54800F0BDF900F032FA10BD43
:104E400010B588B0040001A8182101F03FF99B4873
:104E5000007800904FF4FA7301AA2E212E2000F062
:104E6000D0FFCB4800F0A6F9BDF8061003A000F073
:104E7000C0F900F016FA08B010BD0000307800004C
:104E800010B5040064212E2001F06EF84FF47A7002
:104E900001F0F8F8FF212F2001F066F8BD4800F07E
:104EA00089F900F0FEF910BD10B588B0040001A822
:104EB000182101F00BF98148007800904FF4FA7343
:104EC00001AA3021302000F09CFFB34800F072F9B5
:104ED000BDF8061074A000F08CF900F0E2F908B0FB
:104EE00010BD10B504006421302001F03DF84FF4EE
:104EF0007A7001F0C7F8FF21312001F035F8A7489A
:104F000000F058F900F0CDF910BD10B588B00400DC
:104F100001A8182101F0DAF86848007800904FF4F1
:104F2000FA7301AA3221322000F06BFF9C4800F096
:104F300041F9BDF806105CA000F05BF900F0B1F992
:104F400008B010BD10B504006421322001F00CF847
:104F50004FF47A7001F096F8FF21332001F004F845
:104F6000904800F027F900F09CF910BD10B588B00A
:104F7000040001A8182101F0A9F850480078009019
:104F80004FF4FA7301AA3C213C2000F03AFF864816
:104F900000F010F9BDF8061043A000F02AF900F067
:104FA00080F908B010BD0000C607002010B504004D
:104FB0000121762000F0D8FF4FF47A7001F062F8FA
:104FC0002021762000F0D0FF4FF47A7001F05AF8DB
:104FD0002221762000F0C8FF4FF47A7001F052F8D9
:104FE0002421762000F0C0FF4FF47A7001F04AF8D7
:104FF0002621762000F0B8FF4FF47A7001F042F8D5
:105000002821762000F0B0FF4FF47A7001F03AF8D2
:105010002A21762000F0A8FF4FF47A7001F032F8D0
:105020002C21762000F0A0FF4FF47A7001F02AF8CE
:105030002E21762000F098FF4FF47A7001F022F8CC
:105040003021762000F090FF4FF47A7001F01AF8CA
:105050003221762000F088FF4FF47A7001F012F8C8
:10506000524800F0A7F800F01CF910BD10B588B048
:10507000040001A8182101F029F8104800780090D8
:105080004FF4FA7301AA3721372000F0BAFE4848DE
:1050900000F090F8BDF8061003A000F0AAF800F0A8
:1050A00000F908B010BD0000307800004CC00008C6
:1050B0004A01002004C9000848BE00084B01002036
:1050C00084CB0008E4C90008ECCC0008CDCC4C3EF1
:1050D000003C0040F8C400089A99993E00CA0008B4
:1050E0009A99193F1CCA0008CDCC8C3F74C00008A7
:1050F000676606401CC500083433834038CA000880
:105100004801002044010020CCCD000834010020DB
:10511000C2070020C8070020CA070020D2070020CD
:105120009CC000089CCB000830CF00083CCF000892
:1051300048CF000854CF000800080240D3070020E1
:10514000DCCD0008ECCD000860CF000840C50008A9
:10515000B4CB000854CA000870CA000844C800084C
:1051600064C8000884C80008A4C8000864C5000812
:10517000C4C00008ECC0000888C5000814C10008BD
:10518000ACC50008D0C50008F4C5000818C6000862
:105190003CC6000860C600083CC1000874BE000898
:1051A00064C100088CC10008C4C8000884C6000897
:1051B000C8D1000810B50400002C0AD020780028BF
:1051C00007D020787E2802DA207802F058F9641C93
:1051D000F2E710BD3EB504000D002000FFF7EAFF26
:1051E0000A2200A9280000F06BF800A8FFF7E2FFF0
:1051F00037BD3EB504000D002000FFF7DBFF102295
:1052000000A9280000F05CF800A8FFF7D3FF37BD25
:10521000F8B504000D0016002000FFF7CBFF2800B2
:1052200001F0C6F80700002F07D12800002102F086
:1052300087F802D21DA0FFF7BDFF39001CA0FFF7C1
:10524000C9FF380000F046FF0100280002F0E0F935
:1052500005002800002102F073F801D295F0004506
:105260000B2E01D30A20060012A0FFF7A3FF002E89
:1052700016D01248290002F03FFA0500761E2800D9
:1052800001F096F80700390009A0FFF7A3FF3800E6
:1052900000F020FF0100280002F0BAF90500E6E75F
:1052A000F1BD80B504A0FFF785FF01BD2D00000012
:1052B000000000002E0000000D0A00000000204148
:1052C000FEB400AE0A2A03D1002801D5012400E073
:1052D0000024E4B2002C02D047423D0000E005006B
:1052E000002D02D100AFBE4212D1B5FBF2F702FB96
:1052F00017573B00B5FBF2F50A2B04DA13F1300720
:105300003770761CECE713F137073770761CE7E748
:105310000A2A06D001AFBE4203D230273770761C6E
:10532000F8E7002C02D02D270F70491C00AFB742C0
:1053300004D2761E37780F70491CF7E700270F70EC
:10534000F7BC7047DFF81C03006850F00100DFF87D
:10535000141308600020DFF810130860DFF804035E
:105360000068DFF808130840DFF8F8120860DFF87B
:105370000003DFF800130860DFF8E802006830F48B
:105380008020DFF8E01208600020DFF8EC120860EF
:1053900070470021DFF8E4221170DFF8E012087096
:1053A000704738B50020009000240025312000F01F
:1053B00030F905000098401C00900098B0F5A06FEF
:1053C00002D0EDB2002DF1D0312000F022F90028FA
:1053D00002D00120040001E0002004002000C0B23F
:1053E00032BD70B4039C51EA82159E1EF603360C42
:1053F00036043543054355EA0465DFF878623560C5
:1054000070BC7047C0B2DFF87C12086070470021A2
:10541000DFF8542212681100890889000143DFF87F
:10542000482211607047DFF84002006810F00C005D
:1054300070470021DFF830221268110031F0F001CE
:105440000143DFF82422116070470021DFF81822A1
:105450001268110031F4E0510143DFF80C221160B1
:1054600070470021DFF800221268110031F460411A
:1054700051EAC001DFF8F02111607047F0B400215B
:1054800000220023022400250226DFF8DC713F6899
:1054900017F00C0739000F00002F04D0042F06D09E
:1054A000082F08D03CE0DFF8E07107603BE0DFF850
:1054B000DC71076037E0DFF8BC713F68C7F38057E5
:1054C0003D00DFF8B0713F6817F03F073E00002D48
:1054D0000DD0DFF8B871B7FBF6F7DFF898C1DCF84C
:1054E00000C0CCF3881C0CFB07F73B000CE0DFF896
:1054F0009871B7FBF6F7DFF87CC1DCF800C0CCF39D
:10550000881C0CFB07F73B00DFF868713F68C7F3A6
:1055100001477F1C7F003C00B3FBF4F7076002E00B
:10552000DFF864710760DFF840713F6817F0F0073B
:1055300039000909DFF85871CF5D3A000768D74094
:105540004760DFF824713F6817F4E0573900890A93
:10555000DFF83C71CF5D3A004768D7408760424F23
:105560003F6817F460473900490BDFF82471CF5DBD
:105570003A004768D740C760F0BC7047C9B20029FD
:1055800005D0444A12680243424B1A6004E0414A83
:10559000126882433F4B1A607047C9B2002905D098
:1055A0003D4A126802433C4B1A6004E03A4A1268D2
:1055B0008243394B1A607047C9B2002905D0374A77
:1055C00012680243354B1A6004E0344A1268824381
:1055D000324B1A607047C9B2002905D0304A1268B0
:1055E00002432F4B1A6004E02D4A126882432C4B71
:1055F0001A607047C9B2002905D02A4A12680243CE
:10560000284B1A6004E0274A12688243254B1A602F
:10561000704710B40100002200230020C9B24C09D9
:10562000E4B22200012A03D10E4C2468230008E0D2
:10563000022A03D1124C2468230002E01A4C246889
:105640002300C9B211F01F04220033FA02F4E40768
:1056500002D50124200001E000242000C0B210BCCB
:10566000704700000038024008380240FFFFF6FE95
:1056700010300024043802400C3802400238024046
:1056800070380240600047420024F40040787D01F9
:105690000C010020303802404038024044380240BB
:1056A000203802402438024074380240F0B400220E
:1056B0000023002400252A00102A4AD20125954003
:1056C0002B000D681D402C009C4240D1056803262C
:1056D0001700FFB27F00BE40B543056005680E7934
:1056E0001700FFB27F00BE40354305600D79012DE4
:1056F00002D00D79022D1AD1856803261700FFB25A
:105700007F00BE40B543856085684E791700FFB2C3
:105710007F00BE4035438560456801269640B5430D
:10572000456045688E799640B6B235434560C56898
:1057300003261700FFB27F00BE40B543C560C568B1
:10574000CE791700FFB27F00BE403543C560521CC2
:10575000B2E7F0BC70474FF6FF71016000210171A4
:1057600000214171002181710021C17170470183C5
:10577000704741837047D2B2002A01D0018300E014
:1057800041837047F0B400230024D2B211F0070522
:10579000EDB2AD0012FA05F52B0089B2CD1010EB79
:1057A000850589B2CE1010EB8606366A0F2711F0F8
:1057B000070C5FFA8CFC5FEA8C0C17FA0CF7BE43FF
:1057C0002E6289B2CD1010EB85052D6A1D432C0089
:1057D00089B2CD1010EB85052C62F0BC704750F8F3
:1057E000041B61B150F8042BD30744BFA9F1010396
:1057F0009A18002342F8043B091FFAD1EFE77047DB
:1058000030B400220F2311F00304E4B2A400A3403B
:105810001A00C9B28B100E4C54F823309343C9B20E
:105820008C100B4D45F82430C9B28B10084C54F83D
:105830002330C0B211F00304E4B2A40010FA04F45F
:105840002343C9B28C10024D45F8243030BC704758
:10585000083801400021314A11008279002A36D0EF
:105860002E4A126803689A432C4B1A602C4A12681D
:1058700003689A432A4B1A60027951180A68036830
:105880001A430A60274A126803689A43254B1A6034
:10589000254A126803689A43234B1A604279102AFA
:1058A0000CD1204A126803681A431E4B1A601E4A24
:1058B000126803681A431C4B1A600EE0174A110065
:1058C000427951180A6803681A430A6005E00279B0
:1058D00051180A6803689A430A6070470021016002
:1058E000002101710C21417100218171704701007B
:1058F00000200022094B1B680B401A000B4B1B6851
:105900000B4204D0002A02D00123180001E000233A
:105910001800C0B27047054908607047003C01405C
:10592000043C0140083C01400C3C0140143C014057
:1059300070B4002300210F22C478002C21D0174C12
:10594000246814F4E064D4F5E064240A2300D3F15D
:1059500004042100D2B21A4144788C402300847898
:10596000144023431B0104780D4D63550124057831
:1059700015F01F05AC4005786D110A4E46F825401C
:1059800009E00124057815F01F05AC4005786D117C
:10599000054E46F8254070BC704700000CED00E055
:1059A00000E400E000E100E080E100E00948006878
:1059B000401C0849086072B670470000054800683E
:1059C000401E0449086003480068002800D162B600
:1059D000704700008C07002030B587B004000D0030
:1059E00001A8182100F072FB012000904FF4FA7317
:1059F00001AA2900C9B22000C0B200F002FABDF825
:105A000006106FA0FFF7F5FB07B030BD70B588B08A
:105A100004000D00160001A8182100F057FB31000A
:105A2000C9B22000C0B200F09FFA0A2000F02AFBA1
:105A3000012000904FF4FA7301AA2900C9B2200096
:105A4000C0B200F0DEF9BDF806105DA0FFF7D1FB93
:105A500008B070BD80B55D4801885AA0FFF7BAFB59
:105A60005A480088401C5949088057A0FFF7A2FBFC
:105A700001BD80B5FFF7EEFF01BD70B50400002544
:105A800050225349534801F0D3FC00285CD0002039
:105A90000600502E06D24F48305C0A2802D06D1CFA
:105AA000761CF6E7012D26D14A4800783E2803D11E
:105AB0000120FBF7D1F91EE0464800783F2803D1CA
:105AC0000020FBF70FFA16E042480078FF280CD1BF
:105AD00000F0C5FE4FF4FA7000F0D4FA00F0C6FEF4
