:020000040800F2
:10000000E00B002079CF000811BA000849BA0008B7
:100010006BBA00086DBA00086FBA00080000000053
:10002000000000000000000000000000ADD3000848
:1000300071BA000800000000B1D300082761000871
:10004000B5D30008B9D30008BDD30008C1D3000858
:10005000C5D30008C9D30008CDD30008D1D3000808
:10006000D5D3000891020008D9D30008DDD30008D9
:10007000E1D30008E5D30008E9D30008EDD3000878
:10008000F1D30008F5D30008F9D30008FDD3000828
:1000900001D4000805D4000809D40008C5020008EE
:1000A0000DD4000811D4000815D4000819D4000894
:1000B0001DD4000821D4000825D4000829D4000844
:1000C0002DD4000831D4000835D4000839D40008F4
:1000D0003DD4000841D40008D975000845D4000873
:1000E000AB02000849D400084DD4000851D40008E0
:1000F00055D4000859D400085DD4000861D4000824
:1001000065D4000869D40008E1A20008155E000863
:100110006DD4000871D4000875D4000879D40008A3
:100120007DD4000881D4000885D4000889D4000853
:100130008DD4000891D4000895D4000899D4000803
:100140009DD40008A1D40008A5D40008A9D40008B3
:10015000ADD40008B1D40008B5D40008B9D4000863
:10016000BDD40008C1D40008C5D40008C9D4000813
:10017000CDD40008D1D40008D5D40008D9D40008C3
:10018000DDD4000810B504000121A4A005F058F842
:100190000021A3A005F054F80421A1A005F050F817
:1001A00000219FA005F04CF809219DA005F048F81A
:1001B00005F0ADF810BD80B50020DFF8201B0870F9
:1001C0000020DFF81C1B0860012000F01DF8DFF89C
:1001D0000C0B00780028FAD0DFF8000B007801281B
:1001E00007D1DFF8FC0A0068401CDFF8F41A086049
:1001F000F2E7002000F008F8DFF8E40A0168DFF811
:10020000BC0D05F01DF801BD10B586B0040000203E
:10021000DFF8D01A08700121042005F0E5F901216A
:100220004FF4804005F0FEF903A805F0CAFA40201B
:10023000039000208DF8100000208DF8130003A912
:10024000DFF8F40C05F068FA0621022005F00EFB39
:1002500001A805F079FB4020019000208DF80800EE
:100260000C208DF809008DF80A4001A805F028FB44
:1002700017208DF8000000208DF8010000208DF877
:1002800002008DF8034000A805F088FB06B010BD01
:1002900080B505F0C1FB0120DFF8481A0870402046
:1002A00005F06FFB05F0C0FB01BD80B505F0B4FBA8
:1002B0000120DFF8301A0870402005F062FB05F0DD
:1002C000B3FB01BD80B505F0A7FB402005F045FB61
:1002D000002823D00120DFF80C1A0870DFF8FC0991
:1002E0000078401CDFF8F4190870DFF8FC0900788A
:1002F000012810D1DFF8600D0088012807D1DFF850
:10030000EC090088401CDFF8E419088003E00120B4
:10031000DFF8441D0880402005F033FB05F084FB26
:1003200001BD30B583B0040000200090002500A876
:1003300005F081FC01A805F06DFCDFF87C0B04F0F2
:100340006FFF019804F06CFF0099DFF8700B04F068
:1003500077FF2900DFF8A00D04F072FF04F0D7FF4B
:1003600037BD30B585B00400012000900120019018
:1003700004A805F04FFC00A805F05DFC01A805F0FD
:100380005AFC04980078412808D042280AD0432813
:100390000CD044280ED0462810D013E0DFF89C0B78
:1003A000050014E0DFF8980B050010E0DFF8880B7B
:1003B00005000CE0DFF88C0B050008E0DFF8880B87
:1003C000050004E0DFF8340D04F02AFF23E00120EB
:1003D0000099884000900098029000208DF80E004F
:1003E00001208DF80C0000208DF80F0002208DF800
:1003F0000D0002A9280005F08FF90198002805D00A
:10040000009989B2280005F0E8F904E0009989B262
:10041000280005F0E4F905B030BD00002000000020
:100420002E00000030B5A3B00400DFF8940B007874
:10043000012806D0DFF88C0B04F0F2FE04F067FF11
:100440003CE10025DFF8800B04F0EAFE04F05FFFDA
:1004500004F05DFFDFF8740B04F0E2FE04F057FFD8
:10046000DFF8F80B007800904FF4FA7301AA5821D6
:10047000522005F02CFDBDF80A10DFF8540B04F0F3
:10048000EEFEBDF80A0043F61001884204D06D1C50
:10049000DFF8400B04F0C4FE04F039FF04F037FF2E
:1004A000BDF80610DFF8B80B04F0D9FE04F02FFFFA
:1004B000BDF80810DFF8AC0B04F0D1FE04F027FF04
:1004C00004F025FFBDF80C10DFF89C0B04F0C7FE0C
:1004D00004F01DFF04F01BFFDFF8900B04F0A0FEFA
:1004E000DFF88C0B04F09CFE04F011FF04F00FFF0A
:1004F00002213E2005F09EFD0121322005F09AFDEB
:10050000DFF8580B007800904FF4FA7301AA3221FB
:10051000322005F0DCFCBDF80610DFF8580B04F0C3
:100520009EFEBDF80600012804D1DFF8D40B04F0CC
:1005300077FE04E0DFF8CC0B04F072FE6D1C04F0D3
:10054000E6FE04F0E4FE0021362005F073FD0121F3
:10055000372005F06FFDDFF8040B007800904FF4B2
:10056000FA7301AA3621362005F0B1FCBDF8061059
:10057000DFF8940B04F073FEBDF80600B0F5807F41
:1005800004D1DFF87C0B04F04BFE04E0DFF8740BC1
:1005900004F046FE6D1C04F0BAFE04F0B8FE05211E
:1005A000382005F047FD0221392005F043FDDFF832
:1005B000AC0A007800904FF4FA7301AA3821382071
:1005C00005F085FCBDF80610DFF8400B04F047FE8F
:1005D000BDF8060040F20521884204D1DFF8200B67
:1005E00004F01EFE04E0DFF81C0B04F019FE6D1C85
:1005F00004F08DFE04F08BFE0421342005F01AFD7A
:10060000DFF8580A007800904FF4FA7301AA3421F9
:10061000342005F05CFCBDF80610DFF8F40A04F0A5
:100620001EFEBDF80600042804D1DFF8D40A04F049
:10063000F7FD04E0DFF8CC0A04F0F2FD6D1C04F0D5
:1006400066FE04F064FE0421352005F0F3FC4FF44F
:100650007A7005F07DFDDFF8040A007800904FF411
:10066000FA7301AA3C213C2005F031FCBDF80610CC
:10067000DFF8A00A04F0F3FD9DF80600C00604D4DC
:10068000DFF8940A04F0CCFD04E0DFF8900A04F0EF
:10069000C7FD6D1C04F03BFE04F039FEEDB2002DE9
:1006A00004D1DFF87C0A04F0BBFD03E0DFF8540D51
:1006B00004F0B6FD04F02BFE04F029FE23B030BD9B
:1006C0002DE9F14FAAB0DFF8F8080078012806D02C
:1006D000DFF8F00804F0A4FD04F019FEF7E206A824
:1006E000DFF8401A0A68026005A8DFF83C1A0A68B9
:1006F00002603E20DFF8C41B08701020DFF82C1ABF
:100700000870DFF8B80B0078DFF8201A09780818AD
:10071000401EDFF8AC1B0870DFF8A40B0078401C0B
:10072000DFF8981B0978401A022190FBF1F0DFF8FE
:10073000941B08705FF0010A5FF0000903A8DFF85E
:10074000F0190CC90CC0083908380320029002A81F
:1007500005F071FA03A805F06EFA04A805F06BFA2B
:1007600002984FF6DD71884202D34FF6DC7002909A
:1007700003984FF6DD71884202D34FF6DC70039088
:1007800004984FF6DD71884202D34FF6DC70049076
:100790000020DFF8501508700A26032004F032F814
:1007A000012003F04BF8C82005F0D2FC08A88421F2
:1007B00005F0F2FC962308AA5621562005F0E7FB27
:1007C0004FF4FA7005F0C4FC0120FFF71DFDC820AE
:1007D00005F0BEFCDFF8F00A04F022FD04F097FDFE
:1007E0000120DFF8E81A08804FF40040DFF8E01A33
:1007F00008800420DFF8D41A08804FF4FA6005F06E
:10080000A7FCDFF8D00A04F00BFD04F080FD012006
:10081000DFF8C41A08804FF47A7005F099FC0420C0
:10082000DFF8B41A088004F072FDDFF8B00A04F0B3
:10083000F7FC04F06CFD4FF4FA7005F089FC03F04E
:1008400037F8002542F210700790DFF8940A04F0A0
:10085000E7FC04F05CFD4FF4FA7005F079FC04F05D
:1008600056FDDFF8800A04F0DBFC04F050FD4FF485
:10087000FA7005F06DFC0020DFF8681408705FF076
:100880000008B8F1640F80F2B380DFF858040078F4
:100890000028FAD00020DFF84C140870DFF8BC07FD
:1008A000007800906923DFF8702BDFF8140A0178D4
:1008B000DFF8080A007805F00AFB761CF6B20A2E6B
:1008C000C0F29080002006000127DFF8F8090078C8
:1008D000401C874280F28480012F07D1DFF8380B5B
:1008E00030F81710C2A004F0BAFC77E0052F36DA12
:1008F000DFF8240B30F9170000B205F051FC05F0C9
:1009000069FCDFF8182BDFF8183B05F08BFC05F0CD
:100910005BFD04002000002105F09EFD02D8D6A05A
:1009200004F07EFC200005F0A9FD40B205F0C8FDF2
:100930008DF804009DF804000A2803DACFA004F023
:100940006FFC06E09DF80400642802DACAA004F0F7
:1009500067FC04222100C9A004F090FC3EE0082FAF
:100960001FDADFF8B40A30F9170000B205F018FCFE
:1009700005F030FCDFF8AC2ADFF8AC3A05F052FCA9
:1009800005F022FD04002000002105F065FD02D8DD
:10099000B9A004F045FC04222100CEA004F06EFCB6
:1009A0001CE004229346DFF8700A30F9170000B209
:1009B00005F0F6FB05F00EFCDFF8702ADFF8703A60
:1009C00005F030FC0022DFF86C3A05F07DFD05F003
:1009D000FBFC01005A46BFA004F050FC7F1C74E7EA
:1009E00004F095FC012005F0B3FB18F1010848E77D
:1009F0005FF0000B1FFA8BFB0298BBEB400F80F0FF
:100A00004A811AF1010A5FFA8AFABAF1020F01DB90
:100A10000020824604F07BFC5FFA8AFABAF1000FEC
:100A200005D10399DFF8100A04F00AFC04E00499E8
:100A3000DFF8080A04F004FC1FFA8BFB1BF101012C
:100A4000DFF8FC0904F0FCFB02984100A2A004F0CE
:100A5000F7FBDFF8F00904F0E3FB4FF4FA7005F060
:100A600077FB5FFA8AFA05A830F81A305FFA8AFA3B
:100A700006A830F81A205FFA8AFA03A850F82A105C
:100A800089B25046C0B203F009F8002095490870B9
:100A90005FF00008B8F1640F80F2FA8091480078A6
:100AA00000283ED16D1C012005F052FB0798A8429A
:100AB000F4D25FFA8AFABAF1000F1FD1DFF8E80A20
:100AC00004F0AEFB04F023FCDFF8E00A04F0A8FB1E
:100AD000322005F03DFB012002F0B0FE322005F08F
:100AE00037FBBDF81430BDF818200121002002F0BA
:100AF000D5FF4FF4FA6005F02BFB0CE0DFF8B00AED
:100B000004F08EFB322005F023FB012002F096FE5C
:100B1000322005F01DFB04F0FAFB04F0F8FB19F19C
:100B2000010900206F49087000200500DFF82C053E
:100B3000007800906923DFF8E028DFF88407017867
:100B4000DFF87807007805F0C2F9761CF6B20A2EB5
:100B5000C0F29880002006000127DFF868070078BF
:100B6000401C874280F28C80012F07D1DFF8A80853
:100B700030F817101EA004F072FB7AE0052F39DA66
:100B8000DFF8940830F9170000B205F009FB05F012
:100B900021FBDFF88828DFF8883805F043FB05F0F3
:100BA00013FC04002000002105F056FC02D832A0FE
:100BB00004F036FB200005F061FC40B205F080FC3B
:100BC0008DF804009DF804000A2803DA2BA004F035
:100BD00027FB06E09DF80400642802DA26A004F052
:100BE0001FFB0422210025A004F048FB41E000BFC8
:100BF00000000000082F1FDADFF81C0830F917008A
:100C000000B205F0CDFA05F0E5FADFF81828DFF8B4
:100C1000183805F007FB05F0D7FB04002000002181
:100C200005F01AFC02D814A004F0FAFA04222100FC
:100C300028A004F023FB1CE004220092DFF8D80770
:100C400030F9170000B205F0ABFA05F0C3FADFF88F
:100C5000DC27DFF8DC3705F0E5FA0022DFF8D437CF
:100C600005F032FC05F0B0FB0100009A19A004F079
:100C700005FB7F1C71E700BF200000002020000062
:100C800004F045FB012005F063FA18F1010801E7C3
:100C90001BF1010BAEE604F03AFBDFF8F00A04F0BA
:100CA000BFFA4946DFF8E80A04F0CAFAC2A004F025
:100CB000B7FA04F02CFB04F02AFB4FF4FA7005F0AD
:100CC00047FA022003F09EFD0020FFF79DFA2BB0AB
:100CD000BDE8F08F202020002F000000D607002064
:100CE00088070020D5070020D7070020C60700206E
:100CF0002DE9F047C4B00400B1480078012805D0C0
:100D0000B04804F08DFA04F002FBD1E003A84FF4E0
:100D1000807105F041FA0025002600275FF00008E9
:100D20005FF000095FF0000A0A20019005200290A0
:100D300001A804F080FF02A804F07DFFDFF8540A48
:100D400004F06EFA04F0E3FA04F0E1FA022003F092
:100D500059FDC82002F02CFFDFF8441C0860002079
:100D600082460198824580F08A80BC4800780090D5
:100D7000962303AA5621562005F0A9F8BDF80E00C7
:100D800080461FFA88F843F61000804568D1042198
:100D9000352005F04FF900208146029805F0D8F97A
:100DA000AE480078009040F2A91303AA3421342001
:100DB00005F08DF8BDF80E00060019F10109700567
:100DC00003D540F2DC508145E7D3A4480078009079
:100DD00040F2A91303AA3C213C2005F078F8BDF8A5
:100DE0000E00070040F2DC50814501D2B8061CD548
:100DF0006D1C1AF10101DFF8A00904F021FA3C2171
:100E0000DFF8980904F02BFABFB23900DFF8900937
:100E100004F025FA4946DFF88C0904F011FA66A0BF
:100E200004F0FEF904F073FA15E01AF10101DFF89D
:100E3000680904F005FA4946DFF86C0904F000FA85
:100E4000BFB23900DFF8640904F009FA5AA004F0CF
:100E5000E7F904F05CFA4FF4FA7005F079F90BE069
:100E60006D1C5146DFF8480904F0EAF9DFF844093F
:100E700004F0D6F904F04BFA1AF1010A71E704F014
:100E800046FA0199DFF8F00A04F0DAF9EDB2290028
:100E9000DFF8E80A04F0D4F9DFF8100B04F0C0F929
:100EA00004F035FA022002F083FEDFF8F41A08603D
:100EB00044B0BDE8F0870000D4D10008DCD10008C0
:100EC00010B504003E480078012805D03D4804F0E4
:100ED000A7F904F01CFA2DE03E20DFF8E0130870BB
:100EE000102092490870DFF8D40300788F49097800
:100EF0000818401EDFF8C8130870DFF8C403007834
:100F0000401CDFF8B8130978401A022190FBF1F079
:100F1000DFF8B0130870DFF8980A04606420DFF887
:100F2000801A0860DFF88C1ADFF8B80C05F072FB45
:100F300000F000F910BD000000080240000002406F
:100F400000040240000C02400014024010B50400EE
:100F50001B480078012805D01A4804F061F904F014
:100F6000D6F928E03F20D549087014206F49087051
:100F7000D24800786D4909780818401ED049087099
:100F8000CF480078401CCD490978401A022190FBD7
:100F9000F1F0CC4908700120DFF8141A0860012034
:100FA000DFF8FC190860DFF80C1ADFF8380C05F0E0
:100FB00031FB00F0BFF810BD2900000008CE00088A
:100FC0004A010020D0C90008ECC9000808CA00087E
:100FD000C0CB000838C4000810B50400DFF8D809F9
:100FE0000078012806D0DFF8D40904F019F904F0DC
:100FF0008EF92FE04120B14908701E204B4908703E
:10100000AE480078494909780818401EAC49087074
:10101000AB480078401CA9490978401A022190FB8E
:10102000F1F0A84908700A20DFF88419086002204E
:10103000DFF86C190860DFF8780904F0FCFDDFF8D0
:10104000600904F0F8FD9BA1DFF8980B05F0E2FAC7
:1010500000F070F810BD0000CE0700204B0100200A
:10106000C8CC0008DCCC0008D8CB00085CC4000861
:1010700030C8000850C8000810B50400DFF838096F
:101080000078012806D0DFF8340904F0C9F804F02C
:101090003EF92FE042208949087018202349087042
:1010A00086480078214909780818401E844908704C
:1010B00083480078401C81490978401A022190FB3E
:1010C000F1F0804908700A20DFF8E4180860022077
:1010D000DFF8CC180860DFF8D80804F0ACFDDFF8C2
:1010E000C00804F0A8FD74A1DFF8F80A05F092FA30
:1010F00000F020F810BD0000E4D1000818CE000870
:1011000080C4000810BD000824CA000840CA0008B6
:1011100090BE0008A0C00008C8C0000870C8000841
:101120005CCA000884D3000888D300084701002067
:10113000ECD1000838B5DFF86808006802F038FD27
:10114000DFF85C180860DFF85808006805F032F82E
:1011500005F040F802000B000020DFF88C1A05F0C3
:1011600063FA0022DFF8843A05F05CF80022DFF829
:10117000803A05F0A9F905F07BFB04000120FFF798
:1011800043F8DFF8700A007800280BD0DFF8100869
:101190000368DFF81C08026848480178494800786D
:1011A00002F070FD0025DFF808080068854272D261
:1011B000DFF8440A0078002805D0DFF8400A0078FC
:1011C000002804D1F9E7A4B2200004F0C1FF0020F8
:1011D000DFF8281A0870DFF8280A007800906923E1
:1011E0008D4A374801783548007804F070FEDFF802
:1011F000040A007800284CD0DFF8E819DFF8B407BB
:1012000005F05CFB002803D1834802F087FD40E035
:10121000DFF8D0197CA005F051FB002803D17E48EF
:1012200002F018FE35E0DFF8BC1922A005F046FBFD
:10123000002803D1784802F0A3FE2AE0DFF8A419C1
:101240001DA005F03BFB002803D1734802F016FFF8
:101250001FE0DFF890196DA005F030FB002803D1E6
:101260006D4803F01FF814E0DFF8781968A005F066
:1012700025FB002803D1684803F0B4F809E0DFF843
:10128000641964A005F01AFB002802D1624803F03B
:1012900045F96D1C87E70020FEF7B6FF0A20DFF84E
:1012A00010170860642002F083FCDFF8F416086071
:1012B00031BD000073300000733100004601002092
:1012C000D2070020D3070020E8BE00081A10024011
:1012D00018000240D8BB00081810024090C800084F
:1012E000F0CB0008A4C400082DE9F04782B0824684
:1012F000DFF8C4060078012806D0DFF8C00603F046
:101300008FFF04F004F87BE0002418255FF0180933
:10131000DFF89C0604F08FFCDFF8A00D04F08BFCD6
:10132000022003F06FFADFF8CC08007800280BD019
:10133000DFF86C060368DFF8780602682900C9B296
:101340002000C0B202F09EFC0026DFF864060068B0
:10135000864255D2DFF8A8080078009096232E4ADE
:101360004946C9B22800C0B204F0B1FDDFF88408D4
:10137000007800283BD0701C0A2803D285A003F017
:101380004FFF0DE0701C642803D283A003F048FFD8
:1013900006E0701CB0F57A7F02D280A003F040FF17
:1013A000711C7FA003F04CFF7EA003F039FF0127E2
:1013B000E4B2601C87421ADA04229046164830F9DB
:1013C000170000B204F0ECFE04F004FF174A184BBB
:1013D00004F028FF0022174B05F076F804F0F4FF24
:1013E000010042466CA003F049FF7F1CE0E703F0D8
:1013F0008EFFDFF8C80C006804F0AAFE761CA4E794
:10140000BDE8F387BCBE0008663100006131000012
:10141000613200006E310000780400207B14AE477A
:10142000E17A743FFCA9F1D24D62303F764B5CF01B
:1014300069B7B23F00003F4028CE000838CE000810
:10144000C8C40008F4D100082DE9F04782B08246F4
:10145000DFF864050078012806D0DFF8600503F0A6
:10146000DFFE03F054FF93E000245FF00A085FF012
:101470000E095FFA89F919F102005FFA88F8B0EBFA
:101480000800022190FBF1F00400DFF8240504F0CD
:10149000D2FBDFF8280C04F0CEFB022003F0B2F9F7
:1014A000DFF85007007800280BD0DFF8F404036859
:1014B000DFF8FC0402684146C9B22000C0B202F065
:1014C000E1FB0026DFF8E8040068864260D2DFF81E
:1014D0003007007800909623DFF8EC2A4946C9B21D
:1014E0004046C0B204F0F3FCDFF80807007800289B
:1014F00045D0701C0A2803D226A003F091FE0DE00F
:10150000701C642803D224A003F08AFE06E0701C3D
:10151000B0F57A7F02D221A003F082FE711C20A0D8
:1015200003F08EFEDFF8A40A03F07AFE0127E4B28E
:10153000601C874220DADFF8900A30F9170000B209
:1015400004F02EFE04F046FEDFF8842ADFF8843A29
:1015500004F068FE04F038FF05002800002104F0C4
:101560007BFF02D80DA003F05BFE042229000AA035
:1015700003F084FE7F1CDAE781A003F051FE03F044
:10158000C6FEDFF8380B006804F0E2FD761C99E730
:10159000BDE8F3872020200020200000200000006C
:1015A000000000003A202000ECC40008F0C0000851
:1015B00010C500082DE9F04F83B08346DFF8F8032B
:1015C0000078012806D0DFF8F40303F029FE03F0C9
:1015D0009EFED2E05FF004095FF0060A1AEB0900F4
:1015E000401E8DF804009DF80400401C5FFA89F944
:1015F000B0EB0900022190FBF1F80A20DFF8B013EC
:1016000008600220DFF8EC170860DFF8A40304F09C
:1016100012FBDFF8E00704F00EFBDFF8D8070068E4
:1016200002F0C6FADFF8CC170860032003F0EAF8EE
:101630000120FEF7E9FDDFF8BC05007800280AD09C
:10164000DFF8B0070368DA4802684946C9B2404685
:10165000C0B202F017FB0026D548006886427DD252
:10166000DFF8980500780028FAD00020DFF88C1504
:101670000870DFF88C05007800909623DFF8482981
:101680009DF804104846C0B204F021FCDFF8640560
:10169000007800285DD0701C0A2803D239A003F01E
:1016A000BFFD0DE0701C642803D2B1A003F0B8FDAB
:1016B00006E0701CB0F57A7F02D2AEA003F0B0FD58
:1016C000711C31A003F0BCFDDFF8000903F0A8FD98
:1016D00001275FFA88F818F10100874234DADFF851
:1016E000E80830F9170000B204F05AFD04F072FD6A
:1016F000DFF8682ADFF8683A04F094FD04F064FE2D
:1017000004002000002104F0A7FE02D899A003F0F5
:1017100087FD200004F0B2FE40B204F0D1FE0500C7
:10172000EDB20A2D03DA92A003F07AFD05E0EDB2E6
:10173000642D02DA8FA003F073FD042221008CA037
:1017400003F09CFD7F1CC4E70DA003F069FD03F0CE
:10175000DEFD012004F0FCFC761C7DE70020FEF796
:1017600053FD022003F04EF80A2091490860022040
:1017700002F01EFADFF87C160860BDE8F78F000063
:10178000203E00002020200000000000B0C800081B
:1017900008CC0008D0C8000888CF000848CE000850
:1017A000FCD10008F0CC000878CA0008A8BC0008EA
:1017B00058CE000840BD00082DE9F84F83467E480A
:1017C0000078012805D07D4803F02AFD03F09FFD35
:1017D000CCE05FF000085FF004095FF00E0A5FFAEA
:1017E0008AFA1AF102005FFA89F9B0EB09000221C6
:1017F00090FBF1F080466E4804F01DFADFF8BC085B
:1018000004F019FA022002F0FDFFDFF8E803007887
:10181000002809D062480368654802684946C9B291
:101820004046C0B202F02EFA0026614800688642A7
:1018300080F09C80DFF8C803007800909623DFF8E2
:1018400088275146C9B24846C0B204F040FBDFF8D1
:10185000A4030078002800F08280701C0A2803D2BC
:1018600050A003F0DDFC0DE0701C642803D240A002
:1018700003F0D6FC06E0701CB0F57A7F02D23DA0E2
:1018800003F0CEFC711C48A003F0DAFCDFF83C0743
:1018900003F0C6FC01275FFA88F818F101008742BF
:1018A00058DA042F33DADFF8200730F9170000B2D6
:1018B00004F076FC04F08EFCDFF8A028DFF8A038F6
:1018C00004F0B0FC04F080FD04002000002104F0CE
:1018D000C3FD02D827A003F0A3FC200004F0CEFD36
:1018E00040B204F0EDFD0500EDB20A2D03DA20A0B0
:1018F00003F096FC05E0EDB2642D02DA1DA003F0C2
:101900008FFC042221001AA003F0B8FC20E0072F6E
:101910001EDADFF8B40630F9170000B204F040FC1C
:1019200004F058FCDFF8A826DFF8A83604F07AFCAB
:1019300004F04AFD04002000002104F08DFD02D8CF
:101940000CA003F06DFC0422210009A003F096FC1A
:101950007F1CA0E7A2A003F063FC03F0D8FCDFF833
:101960005C07006804F0F4FB761C5EE7BDE8F18FCD
:10197000202000002000000020CC000868CE0008D5
:1019800010B504004FF40041DFF8B40C03F027FF5A
:1019900000BF4FF40041DFF8A80C03F01EFF10BD9C
:1019A00034010020202020000000000094CF000817
:1019B0002C01002004D200084A010020D0C90008F0
:1019C0002DE9F04FC5B08346DFF800090078012803
:1019D00006D0DFF8FC0803F023FC03F098FCFCE0E1
:1019E00004A84FF4807104F0D7FB5FF000095FF0AA
:1019F000000A0020039001200190012002900024A1
:101A000000255FF0010803A804F015F901A804F00F
:101A100012F902A804F00FF9039881465FFA89F9D8
:101A20000198401E19EB400082460120FEF7ECFBB6
:101A3000032002F0E7FE6F48007800282AD00199C1
:101A4000DFF8AC0A03F0FCFB0198012804D1DFF8B1
:101A5000A40A03F0E5FB03E0DFF89C0A03F0E0FBD7
:101A60005FFA89F94946DFF8940A03F0F8FB029916
:101A7000DFF88C0A03F0E4FB0298012804D1DFF8B8
:101A8000840A03F0CDFB03E0DFF87C0A03F0C8FB17
:101A900003F03DFC00260298864280F09B80574868
:101AA00000780028FBD00020544908705448007882
:101AB0000090692304AA5146C9B24846C0B204F056
:101AC00006FA4C480078002800F08280012701982F
:101AD000401C87427AD25FFA89F9781E19EB4000E0
:101AE0000400E4B2032C0ADA04A830F81710A5A009
:101AF00003F0B5FBDFF85C0B03F092FB64E0E4B2AB
:101B0000092C35DA04A830F9170000B204F048FBBC
:101B100004F060FBDFF84426DFF8443604F082FB73
:101B200004F052FC05002800002104F095FC02D8C6
:101B3000ADA003F075FB280004F0A0FC04F0C0FC8D
:101B400080465FFA88F8B8F10A0F03DAA7A003F01D
:101B500067FB07E05FFA88F8B8F1640F02DAA2A029
:101B600003F05EFB04222900A0A003F087FB2BE01A
:101B7000E4B20F2C1EDA04A830F9170000B204F00A
:101B80000FFB04F027FBDFF84824DFF8483404F0AB
:101B900049FB04F019FC05002800002104F05CFC5E
:101BA00002D291A003F03CFB042229008FA003F095
:101BB00065FB09E004A830F8171072A003F04FFB92
:101BC000DFF8900A03F02CFB7F1C80E703F09FFBFB
:101BD000761C60E7022002F015FE45B0BDE8F08FEC
:101BE000203E0000780700200000F03F00408F40BA
:101BF0000000E03F4901002048010020D5070020F7
:101C00004B0100202DE9F041C4B00400DFF8BC0610
:101C10000078012806D0DFF8B80603F001FB03F0D6
:101C200076FBACE004A84FF4807104F0B5FA042010
:101C30000390012002900A200190C8206D4908609D
:101C400003A803F0F8FF02A803F0F5FF01A803F0D2
:101C5000F2FF684803F0EFFF039D0298C0B215EB56
:101C60004000461E6348006801F0A2FF6149086019
:101C7000022002F0C7FD0120FEF7C6FA0020DFF8BF
:101C8000DC190870DFF8D8090078002832D00299F2
:101C9000DFF85C0803F0D4FA0298012804D1DFF8D9
:101CA000540803F0BDFA03E0DFF84C0803F0B8FA7B
:101CB000EDB22900DFF8440803F0D1FA0199DFF80A
:101CC000400803F0BDFA0198012804D1DFF8340878
:101CD00003F0A6FA03E0DFF8300803F0A1FA454864
:101CE0000168DFF8800903F0ABFA41A003F098FA2D
:101CF00003F00DFB00270198874233D2DFF85C091F
:101D000000780028FAD00020DFF850190870DFF8BA
:101D1000580900780090962304AA3100C9B228001F
:101D2000C0B204F0D4F8DFF838090078002814D0E5
:101D30005FF001080298401C80450CD204A830F8DE
:101D4000181010A003F08BFADFF8080903F068FA06
:101D500018F10108EEE703F0DAFA012004F0F8F9CF
:101D60007F1CC8E70020FEF74FFA022002F04AFD70
:101D70000A200190022001F01BFF1E49086044B0B8
:101D8000BDE8F081307800001CB50400DFF83C05A8
:101D90000078012806D0DFF8380503F041FA03F097
:101DA000B6FA20E0712001900F20009001A803F006
:101DB00042FF00A803F03FFF0099C9B20198C0B2EA
:101DC00004F038F9DFF89808007800280BD0009963
:101DD000DFF8980803F043FA0199DFF80C0D03F0DF
:101DE0003EFA03F094FA13BD20000000202000000A
:101DF00020487A00340100202DE9F043C3B00400EC
:101E0000DFF8C8040078012806D0DFF8C40403F026
:101E100007FA03F07CFAD3E002A84FF4807104F0D3
:101E2000BBF9002552265A2701200190022002F01A
:101E3000E9FC01A803F0FFFE0198FB2801D3FA207A
:101E400001905FF000080198804580F0B980FFB2F2
:101E5000F6B2B81B022190FBF1F0401C05005FF0C8
:101E60000009EDB2A94519D2DFF8FC07007800900F
:101E7000962302A810EB89024846C0B216EB400038
:101E8000411CC9B2F6B216EB4900C0B204F01FF80B
:101E9000012004F05DF919F10109E2E75FF00009A2
:101EA000B9F10C0F08DA02A830F81910A6A003F057
:101EB000D6F919F10109F3E7DFF8A4070078002843
:101EC00077D0B8F1000F29D1EDB22900DFF8200654
:101ED00003F0B6F9EDB2012D04D1DFF8180603F0D6
:101EE0009FF903E0DFF8100603F09AF9F6B231002B
:101EF000DFF87C0703F0B3F9019994A003F0A0F98F
:101F00000198012804D1DFF86C0703F089F903E098
:101F1000DFF8640703F084F903F0F9F9B8F1090F69
:101F200005D218F101018AA003F08AF90DE0B8F199
:101F3000630F05D218F1010186A003F081F904E0D6
:101F400018F1010180A003F07BF9DFF8300703F0FE
:101F500067F95FF00109EDB2681C814527DAB9F134
:101F6000030F09D15FEA490002A911EB4000418843
:101F700079A003F074F917E0B9F1040F0AD15FEA10
:101F8000490002A911EB400030F8061C6EA003F0D6
:101F900066F909E05FEA490002A911EB400030F858
:101FA000021C6DA003F05BF919F10109D3E703F0FE
:101FB000AEF94248006804F0CBF818F1010842E796
:101FC00043B0BDE8F0830000780400200CD2000884
:101FD000FCA9F1D24D62303F2DE9F04186B00400FA
:101FE00000250A2600A80021002200230EC00C387C
:101FF00003A80021002200230EC00C3800275FF048
:1020000055080A208DF8000009208DF801000820ED
:102010008DF8020007208DF8030006208DF80400DB
:1020200005208DF8050004208DF8060003208DF8AA
:10203000070002208DF8080001208DF809004746AE
:10204000FFB25FFA88F8B6B216EB0800874211DAE1
:10205000FFB25FFA88F8B7EB08000500ADB200A840
:10206000295C3800C0B203F0E5FFADB203A96854A3
:102070007F1CE5E7FFB23900DFF87C0A03F0EFF8D8
:1020800003F045F900200500ADB2B6B2B54211D259
:10209000ADB200A8295CDFF8640A03F0E0F8ADB245
:1020A00003A8295CDFF8D00A03F0D9F803F02FF970
:1020B0006D1CE9E706B0BDE8F081000030010020AA
:1020C0001CB50400032001904FF4FA70009001A8A1
:1020D00003F0B1FD00A803F0AEFD0198DFF89C1AF3
:1020E0000860DFF8980A0168DFF8140A03F0A8F81E
:1020F0000099DFF8100A03F0A3F8DFF80C0A03F0E8
:102100008FF8DFF8780A0068002815D0032004F063
:10211000F7FB0098400804F01BF8032004F0F7FBDD
:102120000098400804F014F8DFF8500A0068401ED8
:10213000DFF8481A0860E4E703F0E9F813BD10B5CA
:10214000040004F072FC10BD2000000029200000F3
:102150002020200020200000000000007B14AE475B
:10216000E17A743F2DE9F041C4B00400574800788B
:10217000012805D0564803F053F803F0C8F8A0E052
:1021800004A84FF4807104F007F8042003900120A4
:1021900002900A2001900220DFF8E419086003A8E9
:1021A00003F049FD02A803F046FD01A803F043FD3A
:1021B000DFF8CC0903F03FFD4FF47A70DFF8C01967
:1021C0000968B0FBF1F0DFF8BC190860039D0298C4
:1021D000C0B215EB4000461E0420DFF8A4190860C9
:1021E000022002F00FFBDFF87804007800282CD0E2
:1021F0000299BF4803F024F80298012803D1BD4892
:1022000003F00EF802E0BC4803F00AF8EDB2290032
:10221000BA4803F024F80199B94803F011F801987D
:10222000012803D1B74802F0FBFF02E0B64802F0F4
:10223000F7FFDFF84C090168DFF8280403F000F825
:1022400021A002F0EDFF03F062F800270198874219
:102250002CD2DFF8140400780090962304AA3100F1
:10226000C9B22800C0B203F032FEDFF8F4030078F0
:10227000002814D05FF001080298401C80450CD261
:1022800004A830F8181099A002F0E9FFDFF8C403A1
:1022900002F0C6FF18F10108EEE703F038F8DFF8A6
:1022A000E408006803F054FF7F1CCFE7022002F02F
:1022B000A9FA0A200190022001F07AFCDFF8C01888
:1022C000086044B0BDE8F08120487A004A0100204F
:1022D000D0C900082DE9F14F82B0DFF8AC080078D2
:1022E000012806D0DFF8A40802F09AFF03F00FF8E7
:1022F000FAE040248125EDB2681CE4B2001B022103
:1023000090FBF1F60120FDF77FFFDFF8840803F072
:1023100092FCDFF8700803F08EFC032002F072FAE2
:10232000CF48007800280BD0DFF854080368DFF8A6
:10233000600802682100C9B23000C0B201F0A2FCFE
:102340005FF0000ADFF848080068824580F0C68028
:10235000C24800780028FBD00020C0490870C2485D
:10236000007800906923DFF82C282900C9B22000EA
:10237000C0B203F0ACFDBA480078002800F0A68097
:102380005FF0000BF6B2701C834580F29D80BBF1BC
:10239000000F0AD1DFF8000802F042FF5146A7A063
:1023A00002F04EFF002081468BE0F6B2B34579DAA9
:1023B000BBF1010F05D102F0AAFFDFF8E00702F040
:1023C0002FFFBBF1070F05D102F0A1FFDFF8D00707
:1023D00002F026FFBBF10D0F05D102F098FFDFF8E8
:1023E000C40702F01DFFBBF1130F05D102F08FFFF0
:1023F000DFF8B40702F014FFBBF1190F05D102F0AA
:1024000086FFDFF8A80702F00BFFBBF11F0F05D115
:1024100002F07DFFDFF8980702F002FF5FFA89F90A
:10242000B9F1000F08D1DFF86C0730F81B00000489
:1024300007000120814644E05FFA89F9B9F1010FF4
:1024400028D1DFF8500730F81B00074300208146F1
:10245000BBF1130F04DAF809B0F5004080460BE039
:10246000BBF11F0F04DAB80BB0F50040804603E063
:102470003800B0F500408046390072A002F0EFFE4F
:102480000FFA88F8414670A002F0DAFE6BA002F065
:10249000C7FE16E0DFF8FC0630F81B106BA002F058
:1024A000DEFE0EE002F033FFDFF8CC0902F0B8FEEA
:1024B000DFF8E00630F81B1065A002F0D0FE02F055
:1024C00026FF1BF1010B5DE702F021FFDFF8B406E8
:1024D000006803F03DFE1AF1010A33E70020FDF722
:1024E00093FE022002F08EF9BDE8F78F30780000ED
:1024F000A0CF000814D200081CD2000834C5000880
:10250000ACCF000824D200082CD200082DE9F041FD
:1025100082B00400DFF870060078012806D0DFF8EA
:102520006C0602F07DFE02F0F2FE85E04325622695
:102530005FF000080120FDF767FEDFF8540603F0A6
:102540007AFBDFF8400603F076FB022002F05AF92E
:102550004548007800906923DFF838263100C9B279
:102560002800C0B203F0B3FC4FF4FA7003F0F0FDA2
:102570003D48007800906923DFF818263100C9B281
:102580002800C0B203F0A3FCDFF8F00802F048FE18
:10259000DFF80006008C070017F40060DFF8E01891
:1025A0000880DFF8DC080088002806D1DFF8D408AE
:1025B00002F036FE02F0ABFE31E0DFF8CC0802F0AC
:1025C0002FFE02F0A4FE2848007800906923DFF86F
:1025D000C4253100C9B22800C0B203F078FC18F15C
:1025E00001085FFA88F8B8F1040F04D10020804692
:1025F00019A002F015FEFA2003F0AAFDDFF89405F9
:10260000008C10F400600128DDDA02F080FE02F098
:102610007EFEDFF8700802F003FE02F078FE002074
:10262000FDF7F2FD642003F093FD0021002003F08C
:1026300001FD642003F08CFDBDE8F3812000000063
:102640000000024020202000203D2000202000002B
:102650000000000034D200082E000000D507002042
:10266000490100203CD200084B010020B8CF0008EF
:10267000F0C8000844D200084CD2000854D2000828
:102680002DE9F14F84B0DFF800050078012806D06D
:10269000DFF8F80402F0C4FD02F039FE1EE2432028
:1026A0008DF8050020208DF807009DF805009DF8A5
:1026B00007100818401E8DF806009DF80600401C03
:1026C0009DF80510401A022190FBF1F08DF80400EE
:1026D0000A20DFF8BC1408600220DFF8A4140860A8
:1026E000DFF8AC0403F0A7FADFF8940403F0A3FAD0
:1026F000DFF88C04006801F05BFADFF884140860EE
:102700005FF00008DFF8849700240025DFF88007D9
:10271000007800906923DFF87C243621362003F00E
:10272000D6FBDFF87004408880B2000AADF80C00D8
:10273000BDF80C10DFF85C0702F091FD02F0E7FD38
:102740000120FDF761FD022002F05CF8DFF8480788
:102750000078002839D09DF80410DFF8400702F017
:102760006FFD9DF80400012804D1DFF8340702F062
:1027700057FD03E0DFF82C0702F052FD9DF805102D
:10278000DFF8240702F06BFDDFF804040168DFF8CE
:102790001C0702F055FDDFF8F8030068012804D19A
:1027A000DFF80C0702F03CFD03E0DFF8080702F059
:1027B00037FDDFF8CC030168DFF8FC0602F040FDCE
:1027C000C8A002F02DFD02F0A2FD0027DFF8C00333
:1027D0000068874280F07481DFF8E0060078002806
:1027E000FAD00020DFF8D4160870DFF8A4060078CD
:1027F00000906923DFF89C239DF806109DF80500E2
:1028000003F065FBDFF890060078002800F05381A4
:1028100000269DF80400B042C0F24B81002E00F06B
:1028200046819DF80400864280F23781012E04D152
:102830000020DFF88C1680468946042E04D1002043
:10284000DFF8801680468946072E04D10020DFF885
:102850007816804689460A2E04D10020DFF86816D3
:10286000804689460D2E04D10020DFF86016804690
:102870008946DFF8200330F81600ADF80A00BDF9EC
:102880000A00ADF80800042E3ADABDF9080004F099
:1028900007F942464B4603F0C5FC04000D0020003A
:1028A00029000022002304F011F902D88FA002F0C1
:1028B000B7FCA246AB463BF0004B504659460022BF
:1028C000DFF80C3604F01AF903D289A002F0A8FC54
:1028D0000AE0504659460022DFF8F83504F00EF9B8
:1028E00002D282A002F09CFC042200922000290067
:1028F00003F06AFD0100009A7EA002F0BFFCD6E062
:10290000072E3ADABDF9080004F0CAF842464B46F1
:1029100003F088FC04000D002000290000220023A1
:1029200004F0D4F802D871A002F07AFCA246AB46BB
:102930003BF0004B504659460022DFF8943504F036
:10294000DDF803D26AA002F06BFC0AE0504659465B
:102950000022DFF8803504F0D1F802D263A002F043
:102960005FFC042200922000290003F02DFD0100ED
:10297000009A60A002F082FC99E00A2E1FDABDF9ED
:10298000080004F08DF842464B4603F04BFC04006F
:102990000D00200029000022002304F097F802D83F
:1029A00052A002F03DFC042292462000290003F0D0
:1029B0000BFD010052464FA002F060FC77E00D2EA7
:1029C0001FDABDF9080004F06BF842464B4603F0ED
:1029D00029FC04000D00200029000022002304F03F
:1029E00075F802D841A002F01BFC04229246200098
:1029F000290003F0E9FC010052463EA002F03EFC33
:102A000055E00D2E3AD1BDF9080004F049F84246D0
:102A10004B4603F007FC04000D00200029000022B3
:102A2000002304F053F802D830A002F0F9FBA246CC
:102A3000AB463BF0004B504659460022DFF890343D
:102A400004F05CF803D22AA002F0EAFB0AE0504648
:102A500059460022DFF87C3404F050F802D223A05B
:102A600002F0DEFB042200922000290003F0ACFCFF
:102A70000100009A1FA002F001FC18E00E2E05D103
:102A8000BDF80A101BA002F0DBFB10E0414830F853
:102A9000161018A002F0E3FB09E03E4830F81600DB
:102AA000ADF80A00BDF80A1012A002F0D8FB761C9F
:102AB000AFE602F02CFC012003F04AFB7F1C85E608
:102AC0000020FDF7A1FB022001F09CFE0A20304906
:102AD0000860022001F06CF82949086005B0BDE8E3
:102AE000F08F000020487A0058C500082000000040
:102AF000202000002020200070BD00085CD20008CB
:102B000078CE0008D0CF0008DCCF000870B50400F4
:102B10001D480078012805D01C4802F081FB02F016
:102B2000F6FB26E005250026032001F06BFE0020C1
:102B30000600B6B2ADB2AE4218D2B6B23100DFF87E
:102B40004C0E02F07DFB02F0E2FB0020FEF7B8F92C
:102B50000020FEF741FA0020FEF78EFA0020FFF772
:102B60008FFD0020FEF7F2F9761CE2E7022001F06B
:102B700049FE70BD00000000C4CF00088C07002093
:102B800034010020300100204A010020D0C9000893
:102B90002C01002078040020E8CF000864D200084F
:102BA0006CD2000874D2000888CE0008F4CF000868
:102BB00098CE00082DE9F14FC6B0DFF8700C007810
:102BC000012806D0DFF8680C02F02AFB02F09FFB18
:102BD0004AE106A84FF4807103F0DEFA0027FA20DC
:102BE00003905FF000095FF000080021502003F01F
:102BF00021FADFF8400C03F04EF9DFF83C0C02F04C
:102C00000FFB02F084FB00200600A1480078009032
:102C100040F2A91306AA5021502003F058F994A0BD
:102C200002F0FEFABDF81A000700761C039803F0C4
:102C30008FFABFB2F8B20B28E7D102F068FBDFF8D9
:102C4000640C02F0EDFA02F062FB4820814650204D
:102C500080468F48007800909623DFF84C2C414640
:102C6000C9B24846C0B203F032F9DFF83C0C4188E3
:102C700080A002F0F4FA02F04AFBDFF82C0C818805
:102C80007CA002F0ECFA02F042FBDFF81C0CC188D9
:102C900078A002F0E4FA02F03AFBDFF80C0C0189AC
:102CA00074A002F0DCFA02F032FBDFF8FC0B418981
:102CB00070A002F0D4FA02F02AFB0022DFF8EC3B0D
:102CC00000205FF0804104F04AF904000D00DFF8B5
:102CD000D80BB0F9020000B203F062FA03F07AFAFE
:102CE0000022DFF8B03C03F09DFA82468B462000BC
:102CF000290003F069FB03F06DFA02000B00504657
:102D0000594603F091FC03F05FFB04900022DFF8CA
:102D10009C3B00205FF0804104F021F904000D008D
:102D2000DFF8840BB0F9040000B203F039FA03F0C5
:102D300051FA0022DFF85C3C03F074FA82468B46BD
:102D40002000290003F040FB03F044FA02000B00CE
:102D50005046594603F068FC03F036FB059000220C
:102D6000DFF8483B00205FF0804104F0F8F80400F1
:102D70000D00DFF8340BC08803F01CFA03F02AFAC8
:102D800000225FF0804303F04DFA82468B4620001C
:102D9000290003F019FB03F01DFA02000B00504656
:102DA000594603F041FC03F00FFB02900022DFF8CC
:102DB000E83B00205FF0804104F0D1F804000D00F2
:102DC000DFF8E40AB0F9080000B203F0E9F903F013
:102DD00001FADFF8A82CDFF8A83C03F023FA8246BA
:102DE0008B46200029000022DFF8983C03F06CFBA2
:102DF00003F0EAFA03F0EEF902000B0050465946E0
:102E000003F012FC0022DFF8803C03F00BFADFF83D
:102E10006C2CDFF8783C03F007FC03F0D5FA019046
:102E200004220499DFF8680C02F028FA02F06FFA25
:102E300004220599DFF85C0C02F020FA02F067FA30
:102E400004220299DFF8500C02F018FA02F05FFA3F
:102E500004220199DFF8340D02F010FA02F057FA5B
:102E60000021002003F0E6F847B0BDE8F08F000035
:102E70002E000000307800007CD2000804CD00084D
:102E8000C80700207CC50008A0C500080000F03F6E
:102E90004B01002000D000084901002018CD000897
:102EA00084D200088CD2000838CC0008ACCF0008CF
:102EB00024D200082CD200083CD20008D5070020FC
:102EC0000080763F00B0933F0000343F0000693F30
:102ED00000002440000059402DE9F14F8CB0DFF88C
:102EE0004C090078012807D0DFF8440902F098F96E
:102EF00002F00DFA00F097BC09A8DFF8941C0A68EC
:102F0000026008A8DFF88C1C0A68026002A8DFF8DB
:102F1000881C0A6802600BA8DFF8801C0A6802603F
:102F20000020032814DA02A9415C0BAA825C511824
:102F3000491E03AA815403A9415C491C02AA825C70
:102F4000891A022291FBF2F107AA8154401CE8E79A
:102F500001208DF804005FF0000A05A8DFF8401C8E
:102F60000CC90CC0083908380320049004A802F0EA
:102F700062FE05A802F05FFE06A802F05CFE04985F
:102F80004FF6DD71884202D34FF6DC70049005984D
:102F90004FF6DD71884202D34FF6DC70059006983B
:102FA0004FF6DD71884202D34FF6DC7006900020A8
:102FB000DFF8F01B08705FF00A09022001F022FC24
:102FC000012000F03BFC4FF4FA7003F0C1F801203F
:102FD000FDF71AF9C82003F0BBF8DFF8CC0B02F0BC
:102FE0001FF902F094F90120DFF8081D08804FF462
:102FF0000040DFF8041D08800420DFF8F81C08807A
:103000004FF4FA6003F0A4F8DFF8A00B02F008F91F
:1030100002F07DF90120DFF8E41C08804FF4C8704D
:1030200003F096F80420DFF8D41C088002F06FF952
:10303000DFF8CC0C02F0F4F802F069F9642003F038
:1030400087F800F0ABFC002641F288300A90DFF8E8
:10305000B80C02F0E5F802F05AF94FF4FA7003F0F8
:1030600077F802F054F9DFF8A40C02F0D9F802F076
:103070004EF94FF4FA7003F06BF80020DFF8241BD0
:1030800008705FF00008B8F1640F80F28B81DFF800
:10309000140B00780028FAD00020DFF8081B087015
:1030A000DFF89C0D007800906923DFF8FC279DF87D
:1030B0000C109DF8080002F00AFFDFF8840D00787C
:1030C00000906923DFF8482C9DF80D109DF8090049
:1030D00002F0FDFEDFF8680D007800906923DFF84C
:1030E000342C9DF80E109DF80A0002F0F0FE19F144
:1030F00001095FFA89F9B9F10A0FC0F24D81002088
:10310000814601279DF81C00401C874280F2DC802C
:10311000042F32DADFF8900730F9170000B203F01D
:103120003FF803F057F80022DFF8EC3B03F07AF8A1
:1031300003F04AF904002000002103F08DF902D8C1
:10314000DDA002F06DF8200003F098F940B203F022
:10315000B7F90500EDB20A2D03DAD8A002F060F845
:1031600005E0EDB2642D02DAD3A002F059F8042292
:103170002100D2A002F082F8A4E0072F32DADFF8B3
:10318000280730F9170000B203F00AF803F022F81C
:103190000022DFF8B43C03F045F803F015F9040011
:1031A0002000002103F058F902D8C3A002F038F83B
:1031B000200003F063F940B203F082F90500EDB29C
:1031C0000A2D03DABDA002F02BF805E0EDB2642D64
:1031D00002DAB9A002F024F804222100B7A002F01C
:1031E0004DF86FE00A2F1EDADFF8BC0630F9170041
:1031F00000B202F0D5FF02F0EDFF0022DFF84C3CF8
:1032000003F010F803F0E0F804002000002103F0C0
:1032100023F902D8A8A002F003F804222100A7A0F5
:1032200002F02CF84EE00D2F1EDADFF87C0630F9A4
:10323000170000B202F0B4FF02F0CCFF0022DFF86A
:103240000C3C02F0EFFF03F0BFF804002000002167
:1032500003F002F902D898A001F0E2FF0422210055
:1032600096A002F00BF82DE00E2F1ADA04229346F6
:10327000DFF8340630F9170000B202F091FF02F0D7
:10328000A9FF0022DFF8C83B02F0CCFF03F09CF856
:1032900001005A4689A001F0F1FF88A001F0C0FFAB
:1032A00010E0102F07DADFF8000630F8171084A0BE
:1032B00001F0D5FF06E0DFF8F00530F817107FA029
:1032C00001F0CDFF7F1C1DE7DFF8DC05B0F924001D
:1032D00000B202F065FF02F07DFFDFF8842CDFF81A
:1032E000843C02F09FFF03F06FF8040020000021EF
:1032F00003F0B2F802D870A001F092FF200003F0B2
:10330000BDF840B203F0DCF80500EDB20A2D03DA97
:103310006AA001F085FF05E0EDB2642D02DA66A037
:1033200001F07EFF0422210064A001F0A7FFDFF876
:103330007805B0F9280000B202F032FF02F04AFF2F
:10334000DFF81C2CDFF81C3C02F06CFF03F03CF8AB
:1033500004002000002103F07FF802D856A001F0FD
:103360005FFF200003F08AF840B203F0A9F80500DF
:10337000EDB20A2D03DA51A001F052FF05E0EDB2E3
:10338000642D02DA4CA001F04BFF042221004BA077
:1033900001F074FF01F0BBFF012002F0D9FE18F12B
:1033A000010870E65FF0000B1FFA8BFB0498BBEB83
:1033B000400F80F01C829DF80400401C8DF8040032
:1033C0009DF80400022802DB00208DF8040001F0C3
:1033D0009EFF9DF80400002805D10599DFF8900BA9
:1033E00001F02EFF04E00699DFF8880B01F028FFBA
:1033F0001FFA8BFB1BF10101DFF87C0B01F020FFB2
:1034000004984100C1A001F01BFFDFF8700B01F030
:1034100007FF4FF4FA7002F09BFE9DF8040008A924
:1034200031F810309DF8040009A931F810209DF8FA
:10343000040005A951F8201089B29DF8040000F09D
:103440002DFB0020DFF85C1708705FF00008B8F172
:10345000640F80F2C981DFF84C070078002844D15E
:10346000761C012002F074FE0A98B042F3D29DF857
:103470000400002826D1DFF8F80B01F0D1FE01F09E
:1034800046FFDFF8F00B01F0CBFE322002F060FEC9
:10349000012000F0D3F9322002F05AFEBDF82030AE
:1034A000BDF824200121002000F0F8FA4FF4FA6062
:1034B00002F04EFE13E000BF2000000020200000BC
:1034C00000000000DFF8B00B01F0AAFE322002F08D
:1034D0003FFE012000F0B2F9322002F039FE01F087
:1034E00016FF01F014FF1AF1010A0020DFF8B416EC
:1034F000087000200600DFF8480900780090692372
:10350000DFF8A4239DF80C109DF8080002F0DFFC02
:10351000DFF82C09007800906923DFF8F4279DF884
:103520000D109DF8090002F0D2FCDFF814090078B4
:1035300000906923DFF8DC279DF80E109DF80A0043
:1035400002F0C5FC19F101095FFA89F9B9F10A0F16
:10355000C0F244810020814601279DF81C00401CD8
:10356000874280F2D580042F31DACF4830F9170036
:1035700000B202F015FE02F02DFE0022DFF89837AF
:1035800002F050FE02F020FF04002000002102F0B3
:1035900063FF02D8C1A001F043FE200002F06EFFDD
:1035A00040B202F08DFF0500EDB20A2D03DABCA097
:1035B00001F036FE05E0EDB2642D02DAB7A001F0AD
:1035C0002FFE04222100B6A001F058FE9BE0072F39
:1035D00031DAB54830F9170000B202F0E1FD02F02F
:1035E000F9FD0022DFF8603802F01CFE02F0ECFE6C
:1035F00004002000002102F02FFF02D8A7A001F054
:103600000FFE200002F03AFF40B202F059FF050021
:10361000EDB20A2D03DAA2A001F002FE05E0EDB240
:10362000642D02DA9DA001F0FBFD042221009CA084
:1036300001F024FE67E00A2F1DDA9B4830F91700DD
:1036400000B202F0ADFD02F0C5FD0022DFF8FC374C
:1036500002F0E8FD02F0B8FE04002000002102F0B4
:10366000FBFE02D88DA001F0DBFD04222100C8A0E2
:1036700001F004FE47E00D2F1DDA8B4830F91700EA
:1036800000B202F08DFD02F0A5FD0022DFF8BC378C
:1036900002F0C8FD02F098FE04002000002102F0B4
:1036A000DBFE02D87DA001F0BBFD04222100B8A002
:1036B00001F0E4FD27E00E2F16DA042200927A488A
:1036C00030F9170000B202F06BFD02F083FD00221A
:1036D000DFF87C3702F0A6FD02F076FE0100009ACA
:1036E000ABA001F0CBFD0EE0102F06DA6E4830F8EB
:1036F0001710A7A001F0B3FD05E06B4830F81710D4
:10370000A3A001F0ACFD7F1C27E700BF2F00000045
:103710006548B0F9240000B202F042FD02F05AFD03
:10372000DFF83C28DFF83C3802F07CFD02F04CFE6C
:1037300004002000002102F08FFE02D857A001F003
:103740006FFD200002F09AFE40B202F0B9FE0500C3
:10375000EDB20A2D03DA52A001F062FD05E0EDB2F0
:10376000642D02DA4DA001F05BFD042221004CA083
:1037700001F084FD4C48B0F9280000B202F010FDC1
:1037800002F028FDDFF8D827DFF8D83702F04AFD2D
:1037900002F01AFE04002000002102F05DFE02D8B3
:1037A0003EA001F03DFD200002F068FE40B202F0B4
:1037B00087FE0500EDB20A2D03DA39A001F030FDD5
:1037C00005E0EDB2642D02DA34A001F029FD0422F7
:1037D000210033A001F052FD01F099FD012002F01B
:1037E000B7FC18F1010832E61BF1010BDCE501F032
:1037F0008EFDDFF8E00B01F013FD5146DFF8D80B2A
:1038000001F01EFD9CA001F00BFD01F080FD01F018
:103810007EFD4FF4FA7002F09BFC022000F0F2FFF4
:103820000020FCF7F1FC0DB0BDE8F08F4A0100204C
:10383000D0C90008003C00402CCD000830B5A3B032
:10384000040001A8842102F0A7FCDFF8F405007849
:103850000090962301AA5621562002F038FBE4B2CC
:10386000002C16D0BDF8060043F61001884206D1A0
:10387000DFF8680B01F0D4FC0120050005E0DFF85B
:103880008C0C01F0CDFC0020050001F040FD01F0A2
:103890003EFD2800C0B223B030BD00002000000073
:1038A0002020000040CD00087804002000003040B7
:1038B00010B5A2B001A8842102F06EFCDFF88005EB
:1038C0000078009040F2A91301AA3C213C2002F0AC
:1038D000FEFA00200400A4B2652C01DA641CFAE7A9
:1038E000DFF85C050078009040F2A91301AA3421AA
:1038F000342002F0ECFA00200400A4B2652C01DAB6
:10390000641CFAE7DFF838050078009040F2A9134C
:1039100001AA5621562002F0DAFA00200400A4B2CF
:10392000652C01DA641CFAE7DFF8140500780090D2
:1039300040F2A91301AA3621362002F0C8FA00206D
:103940000400A4B2652C01DA641CFAE7DFF8F00485
:103950000078009040F2A91301AA3821382002F023
:10396000B6FA00200400A4B2652C01DA641CFAE760
:103970000321372002F05EFB00200400A4B2B4F55E
:10398000BE7F01DC641CF9E722B010BD94D20008B0
:10399000202020000000344000002E4010B5A2B0CE
:1039A00001A8842102F0F8FBDFF89404007800906D
:1039B00040F2A91301AA3C213C2002F088FA002021
:1039C0000400A4B2652C01DA641CFAE7DFF8700485
:1039D0000078009040F2A91301AA3421342002F0AB
:1039E00076FA00200400A4B2652C01DA641CFAE720
:1039F000DFF84C040078009040F2A91301AA562188
:103A0000562002F064FA00200400A4B2652C01DA0A
:103A1000641CFAE7DFF828040078009040F2A9134C
:103A200001AA3621362002F052FA00200400A4B286
:103A3000652C01DA641CFAE7DFF8040400780090D2
:103A400040F2A91301AA3821382002F040FA0020E0
:103A50000400A4B2652C01DA641CFAE706213720C1
:103A600002F0E8FA00200400A4B2B4F5BE7F01DC45
:103A7000641CF9E722B010BD29000000182D445441
:103A8000FB2119400000F0BF00806640FB21094087
:103A900054CD000868CD000894CA00082DE9F84309
:103AA00004000D0016001F005FF000085FF0000921
:103AB000ADB2A94565DAE4B2002C03D104208D49EA
:103AC000088004E04FF40040DFF84C1A0880B6B2DA
:103AD000300002F03DFBE4B2002C03D10420874902
:103AE000088003E04FF4004083490880BFB23800EB
:103AF00002F02EFBB8F10A0F03D282A001F090FB76
:103B000036E0B8F1640F06D27EA001F089FB7DA0FB
:103B100001F086FB2CE0B8F57A7F09D279A001F09C
:103B20007FFB78A001F07CFB76A001F079FB1FE021
:103B300042F2107080450CD272A001F071FB71A0AE
:103B400001F06EFB6FA001F06BFB6EA001F068FB53
:103B50000EE06CA001F064FB6AA001F061FB69A0BB
:103B600001F05EFB67A001F05BFB66A001F058FB73
:103B700018F101084146B3A001F062FB19F10109F7
:103B800096E701F0C4FBBDE8F18300007CCD00089E
:103B90008CD3000890D3000894D3000898D3000871
:103BA0009CD20008D5070020E8BE0008D8BB00085A
:103BB00010B50400962C06D3C8200400012137203C
:103BC00002F038FA58E04B2C06D36420040002219E
:103BD000372002F02FFA4FE0252C06D332200400C4
:103BE0000321372002F026FA46E0172C06D31920CD
:103BF00004000421372002F01DFA3DE00F2C06D30B
:103C0000142004000521372002F014FA34E0082CB7
:103C100006D30A2004000621372002F00BFA2BE01D
:103C2000052C06D3052004000721372002F002FAF4
:103C300022E0032C06D3042004000821372002F0E0
:103C4000F9F919E0022C06D30220040009213720DB
:103C500002F0F0F910E0002C06D0012004000A2147
:103C6000372002F0E7F907E0002C05D1002004001E
:103C70000021372002F0DEF9200010BD002800D519
:103C800040427047F8B504000D0016001F00E4B272
:103C90002100DFF8540A01F0D3FAE4B2012C04D178
:103CA000DFF8480A01F0BCFA03E0DFF8440A01F04B
:103CB000B7FAEDB22900DFF83C0A01F0D0FA310082
:103CC000DFF8340A01F0BCFA012E04D1DFF82C0A27
:103CD00001F0A6FA03E0DFF8280A01F0A1FA3900A2
:103CE000DFF8200A01F0ACFA9BA001F099FA01F08C
:103CF0000EFBF1BD1A1002401800024018100240DD
:103D000090C8000808000000F0CB0008A4C4000818
:103D10009A0400209E0400200080763F2DE9F041A7
:103D200004000127DFF8D40A0078401C874280F2A3
:103D30008280DFF8CC0A0078012805D134F817100A
:103D400086A001F08CFA74E0012F05D134F8171029
:103D50003CA001F084FA6CE0052F2FDA34F917004B
:103D600000B202F01DFA02F035FA7D4A7D4B02F0F6
:103D700059FA02F029FB05002800002102F06CFB33
:103D800002D879A001F04CFA280002F077FB40B28B
:103D900002F096FB0600F6B20A2E03DA73A001F0D9
:103DA0003FFA05E0F6B2642E02DA6FA001F038FAAD
:103DB000042229006DA001F061FA3AE0082F1DDA13
:103DC00034F9170000B202F0EBF902F003FADFF861
:103DD000D02ADFF8D03A02F025FA02F0F5FA050011
:103DE0002800002102F038FB02D85FA001F018FA89
:103DF000042229009DA001F041FA1AE00422904615
:103E000034F9170000B202F0CBF902F0E3F9DFF861
:103E1000982ADFF8983A02F005FA0022DFF8903A83
:103E200002F052FB02F0D0FA010042468FA001F0EE
:103E300025FA7F1C76E701F06AFABDE8F081000000
:103E40004B0100200000000000B0933F0000343F11
:103E50000000693F2DE9F04104005FF00008DFF841
:103E60009C090078401C804572DADFF894090078DC
:103E7000012805D134F8181038A001F0F0F964E0F9
:103E8000B8F1000F02D1002005005EE0DFF86C09F8
:103E90000078804554DAEDB2002D06D134F81800D0
:103EA00000040600012005004FE0EDB2012D4CD1C9
:103EB00034F81800064300200500B8F10D0F04DAAD
:103EC000F009B0F5004007000BE0B8F1190F04DA73
:103ED000B00BB0F50040070003E03000B0F5004043
:103EE00007003FB2002F02D41FA001F099F93FB2A2
:103EF0003800FFF7C3FEB0F57A7F03DB1AA001F0AC
:103F00008FF917E03FB23800FFF7B8FE642803DBF3
:103F100016A001F085F90DE03FB23800FFF7AEFEC4
:103F20000A2803DB51A001F07BF903E0DFF8BC0AAB
:103F300001F076F93FB239004CA001F081F904E0BC
:103F400034F8181049A001F08AF918F1010886E741
:103F500001F0DDF9BDE8F08120487A0020307800DA
:103F60007B14AE47E17A743F20000000202000005F
:103F700028CE000838CE0008C8C40008F4D10008D4
:103F80002DE9F84F07000024DFF8905A5FF0000891
:103F90005FF000090026DFF864080078401C8642C4
:103FA00060DADFF85C080078012805D137F81610D0
:103FB000BAA001F054F953E0002E51D0DFF83C08CC
:103FC0000078864247DA012E04D10020DFF88C1AEF
:103FD00004000D00042E04D10020DFF8841A040030
:103FE0000D00072E04D10020DFF8701A04000D0028
:103FF0000A2E04D10020DFF8D01A04000D0037F893
:1040000016008246ADF800A00E2E15DABDF90000AC
:1040100002F046FD22002B0002F004F9804689469A
:10402000042293464046494602F0CEF901005A4622
:104030009BA001F023F913E00E2E06D11FFA8AFA95
:10404000514697A001F0FCF80AE037F8161094A04A
:1040500001F005F904E037F8161091A001F0FFF81F
:10406000761C98E701F053F9BDE8F18F202020007D
:10407000ECC40008F0C0000810C500082DE9F04F9E
:1040800083B00700002400255FF00008DFF88C995A
:104090000026DFF868070078401C864280F2F9802D
:1040A000DFF85C070078012805D137F816107BA0EF
:1040B00001F0D5F8EBE0002E00F0E980DFF83C07D6
:1040C0000078864280F2D380012E05D10020DFF8EF
:1040D0008C198046894618E0042E05D10020DFF8AF
:1040E00080198046894610E0072E05D10020DFF8B0
:1040F000D8198046894608E00A2E05D10020DFF84D
:10410000C8198046894600E00B2E37F81600ADF836
:104110000400BDF90400ADF80600042E1FDABDF955
:10412000060002F0BDFC42464B4602F07BF804005C
:104130000D00200029000022002302F0C7FC02D855
:10414000A2A001F06DF8042292462000290002F09E
:104150003BF9010052469EA001F090F897E0072E2F
:104160003ADABDF9060002F09BFC42464B4602F0EB
:1041700059F804000D00200029000022002302F05D
:10418000A5FC02D891A001F04BF8A246AB463BF04B
:10419000004B504659460022DFF8983A02F0AEFC38
:1041A00003D23FA001F03CF80AE0504659460022F5
:1041B000DFF8C43A02F0A2FC02D284A001F030F889
:1041C000042200922000290002F0FEF80100009A6B
:1041D0007FA001F053F85AE00B2E3ADABDF9060041
:1041E00002F05EFC42464B4602F01CF804000D0053
:1041F000200029000022002302F068FC02D873A0EE
:1042000001F00EF8A246AB463BF0004B5046594633
:104210000022DFF8203A02F071FC03D220A000F067
:10422000FFFF0AE0504659460022DFF84C3A02F000
:1042300065FC02D265A000F0F3FF0422009220008A
:10424000290002F0C1F80100009A61A001F016F8FF
:104250001DE00B2E05D1BDF804105DA000F0F0FFAD
:1042600015E037F816105AA000F0F9FF0FE037F804
:104270001600ADF80400BDF8041055A000F0EFFFE3
:10428000BDF8040010F40060DFF8881D0880761C7B
:10429000FFE601F03CF8BDE8F78F00002030780021
:1042A000202000002DE9F04104000127DFF84C0533
:1042B0000078401C874280F28480DFF84405007853
:1042C000012805D134F8171091A000F0C8FF76E05E
:1042D000012F05D134F817108EA000F0C0FF6EE05A
:1042E000052F31DA34F9170000B201F059FF01F05F
:1042F00071FFDFF8C02ADFF8C03A01F093FF02F047
:1043000063F805002800002102F0A6F802D82FA0CB
:1043100000F086FF280002F0B1F840B202F0D0F8B9
:104320000600F6B20A2E03DA2DA000F079FF05E0B0
:10433000F6B2642E02DA25A000F072FF04222900F2
:1043400027A000F09BFF3AE0082F1DDA34F9170090
:1043500000B201F025FF01F03DFFDFF84425DFF852
:10436000443501F05FFF02F02FF80500280000211E
:1043700002F072F802D815A000F052FF04222900C2
:1043800013A000F07BFF1AE00422904634F91700D6
:1043900000B201F005FF01F01DFFDFF80C25DFF88A
:1043A0000C3501F03FFF0022DFF8043502F08CF8F5
:1043B00002F00AF80100424605A000F05FFF7F1CF2
:1043C00074E700F0A4FFBDE8F081000020000000C9
:1043D00020202000B0C8000808CC000890CD0008BC
:1043E000202000002DE9F04104000127DFF80C0433
:1043F0000078401C874280F28480DFF80404007853
:10440000012805D134F8171041A000F028FF76E00C
:10441000012F05D134F817103EA000F020FF6EE008
:10442000052F31DA34F9170000B201F0B9FE01F0BE
:10443000D1FEDFF88029DFF8803901F0F3FE01F0CA
:10444000C3FF05002800002102F006F802D896A05C
:1044500000F0E6FE280002F011F840B202F030F859
:104460000600F6B20A2E03DA90A000F0D9FE05E0AD
:10447000F6B2642E02DA8CA000F0D2FE04222900EB
:104480008AA000F0FBFE3AE0082F1DDA34F917008D
:1044900000B201F085FE01F09DFEDFF80424DFF894
:1044A000043401F0BFFE01F08FFF05002800002159
:1044B00001F0D2FF02D87CA000F0B2FE0422290055
:1044C000CDA000F0DBFE1AE00422904634F917007C
:1044D00000B201F065FE01F07DFEDFF8CC23DFF8CD
:1044E000CC3301F09FFE0022DFF8C43301F0ECFF73
:1044F00001F06AFF01004246BFA000F0BFFE7F1C32
:1045000074E700F004FFBDE8F0810000A4CD0008CE
:1045100020307800000000001A0002402DE9F04130
:1045200004000127B5480078401C87427DDAB44872
:104530000078012805D134F8171069A000F08FFE2B
:1045400071E0012F05D134F8171066A000F087FE46
:1045500069E0052F31DA34F9170000B201F020FECE
:1045600001F038FEDFF84C28DFF84C3801F05AFE35
:1045700001F02AFF05002800002101F06DFF02D89C
:1045800049A000F04DFE280001F078FF40B201F094
:1045900097FF0600F6B20A2E03DA44A000F040FEB0
:1045A00005E0F6B2642E02DA3FA000F039FE0422E4
:1045B00029003EA000F062FE35E0082F1BDA34F936
:1045C000170000B201F0ECFD01F004FEB44AB54B57
:1045D00001F028FE01F0F8FE05002800002101F09E
:1045E0003BFF02D830A000F01BFE0422290082A06D
:1045F00000F044FE17E00422904634F9170000B2A0
:1046000001F0CEFD01F0E6FDA74AA84B01F00AFE3D
:104610000022A74B01F058FF01F0D6FE01004246F0
:1046200075A000F02BFE7F1C7CE700F070FEBDE85B
:10463000F08110B50400002071490870DFF8D80A35
:1046400000F0EEFD00F063FE10BD10B50400DFF8D1
:10465000CC0A0078012806D0DFF8C40A00F0E0FD9B
:1046600000F055FE08E0012065490870DFF8B40A43
:1046700000F0D6FD00F04BFE10BD10B50400DFF8D1
:104680009C0A0078012806D0DFF8940A00F0C8FDE3
:1046900000F03DFE07E00020DFF88C1A0870DFF81C
:1046A0008C0A00F0BDFD10BD20000000202000009D
:1046B00010B50400DFF8640A0078012806D0DFF89E
:1046C000600A00F0ADFD00F022FE07E00120DFF8F7
:1046D000581A0870DFF8580A00F0A2FD10BD00005B
:1046E0002030780000000000A0CF000884D200082D
:1046F0008CD2000838CC0008ACCF000824D20008C7
:104700002CD200083CD2000810B582B00400DFF8BB
:104710000C0A0078012806D0DFF8040A00F080FDBA
:1047200000F0F5FD66E05FF08040009000A801F029
:1047300096FA03220099DFF8FC0900F09FFD00F0D3
:10474000E6FD0098DFF8F01902F022FE08D2DFF84B
:10475000EC0901F0B5FBDFF8E80900F061FD49E084
:104760000098DFF8E01902F013FE08D2DFF8CC0958
:1047700001F09FFBDFF8D00900F052FD3AE000980D
:10478000DFF8C81902F004FE08D2DFF8B00901F022
:1047900089FBDFF8BC0900F043FD2BE00098DFF84F
:1047A000B41902F0F5FD08D2DFF8900901F073FBAF
:1047B000DFF8A40900F034FD1CE00098DFF89C1934
:1047C00002F0E6FD08D2DFF8740901F05DFBDFF8C6
:1047D000900900F025FD0DE00098DFF8881902F03F
:1047E000D7FD07D2DFF8540901F047FBDFF878095D
:1047F00000F016FD13BD000020202000D30700208C
:10480000D407002010B50400E4B2002C04D1DFF876
:104810002C0901F04EFB1BE0E4B2012C04D1DFF8BF
:104820001C0901F03FFB13E0E4B2022C04D1DFF8D5
:104830000C0901F030FB0BE0E4B2032C04D1DFF8EB
:10484000FC0801F021FB03E0DFF8F00801F023FB96
:1048500010BD10B50400DFF8C4080078012806D0A8
:10486000DFF8BC0800F0DCFC00F051FD03E00120A3
:10487000DFF8F818087010BD10B50400DFF89C08C8
:104880000078012806D0DFF8980800F0C9FC00F095
:104890003EFD03E00020DFF8D418087010BD0000D2
:1048A000FCA9F1D24D62303F764B5CF069B7B23F64
:1048B00000003F4010B582B00400DFF860080078C7
:1048C000012806D0DFF8580800F0AAFC00F01FFD10
:1048D00017E04FF47A70009000A801F0ACF942F2B2
:1048E00010700099B0FBF1F0DFF88418088000998F
:1048F000DFF8800800F0A4FCCDA000F091FC00F0EF
:1049000006FD13BD10B50400DFF81008007801287B
:1049100006D0DFF80C0800F083FC00F0F8FC64E03F
:10492000C820FFF745F9DFF8501808600020DFF8CD
:104930004C1808800020DFF8481808800020DFF8B5
:10494000441808800120DFF8401808700120FBF7A8
:104950005BFC4FF47A7001F0FBFB0020DFF82818B5
:1049600008700020FBF750FCDFF814080188DFF81E
:104970001C0800F065FCDFF804080188DFF8100867
:1049800000F05EFCDFF8F8070088002821D0DFF88F
:10499000EC07008800281CD0DFF8E407008880B20C
:1049A000DFF8D8170988491E05225143884210DBD9
:1049B000DFF8C807008880B2801C05214843DFF873
:1049C000C0170988884204DBDFF8C80700F028FC1C
:1049D00003E0DFF8C40700F023FC00F098FC02209D
:1049E000FFF7E6F8DFF89017086010BD34D2000832
:1049F00010B5040001F0A0FFDFF8A00700F010FCE4
:104A000000F085FC10BD10B5040001F08EFFDFF84A
:104A1000900700F005FC00F07AFC10BD0000F03FAC
:104A20001CB5040001208DF8040000208DF806005C
:104A300001208DF8070002208DF80500402000902D
:104A400000A9DFF8600700F067FE2200D2B2402123
:104A5000DFF8500700F0C5FE13BD00000000343F32
:104A600000B0933F1CB5040001F05FFF0020DFF8A9
:104A7000381708700020FBF7C7FB00208DF80400F2
:104A800000208DF8060000208DF8070002208DF828
:104A900005004FF4E050009000A9DFF8080700F08F
:104AA0003BFE0020FFF7BCFF642001F051FB01F04A
:104AB00043FF0020DFF864160870DFF8F00600F00E
:104AC000AFFB00F024FC13BD0000693F10B50400EB
:104AD00001F02BFF0120FFF7A3FF642001F038FB5A
:104AE00001F02AFF642001F033FB02F063FC01F0C7
:104AF0009CFFDFF8480601F0CEF90120DFF8A81688
:104B000008700120DFF814160870DFF8A40600F022
:104B100087FB00F0FCFB10BD10B50400DFF8940625
:104B200000F07EFB00F0F3FB10BD10B504009621F1
:104B3000032001F07FFA4FF47A7001F009FB78212D
:104B4000032001F077FADFF8700600F069FB00F04F
:104B5000DEFB10BD10B588B0040001A8182101F0DB
:104B60001BFBDFF8C405007800904FF4FA7301AA2C
:104B70000121012001F0ABF9DFF8400600F050FB05
:104B8000BDF80610D8A000F06AFB00F0C0FB08B02A
:104B900010BD10B504001F21012001F04BFADFF811
:104BA000200600F03DFB00F0B2FB10BD10B5040084
:104BB0001F21022001F03EFADFF8040600F030FB6E
:104BC00000F0A5FB10BD10B588B0040001A81821A5
:104BD00001F0E2FADFF85005007800904FF4FA7324
:104BE00001AA2021202001F072F9DFF8D80500F099
:104BF00017FBBDF80610BCA000F031FB00F087FBEE
:104C000008B010BD10B504006421202001F012FA94
:104C10004FF47A7001F09CFA0121212001F00AFA88
:104C2000DFF8A40500F0FCFA00F071FB10BD0000F5
:104C300020485A000000244010B588B0040001A8A4
:104C4000182101F0A9FADFF8E004007800904FF491
:104C5000FA7301AA2221222001F039F9DFF86C054C
:104C600000F0DEFABDF806109FA000F0F8FA00F0A0
:104C70004EFB08B010BD00000000594010B5040004
:104C80006421222001F0D6F94FF47A7001F060FA25
:104C90000121232001F0CEF9DFF8340500F0C0FA3D
:104CA00000F035FB10BD10B588B0040001A8182134
:104CB00001F072FADFF87004007800904FF4FA7394
:104CC00001AA2421242001F002F9DFF8080500F0F0
:104CD000A7FABDF8061084A000F0C1FA00F017FB97
:104CE00008B010BD10B504006421242001F0A2F921
:104CF0004FF47A7001F02CFAFF21252001F09AF987
:104D0000DFF8D40400F08CFA00F001FB10BD10B500
:104D100088B0040001A8182101F03EFADFF8080469
:104D2000007800904FF4FA7301AA2621262001F0A2
:104D3000CEF8DFF8A80400F073FABDF806106AA0F8
:104D400000F08DFA00F0E3FA08B010BD10B50400D1
:104D50006421262001F06EF94FF47A7001F0F8F921
:104D6000FF21272001F066F9DFF8740400F058FAFB
:104D700000F0CDFA10BD10B588B0040001A81821CC
:104D800001F00AFAE848007800904FF4FA7301AA9B
:104D90002821282001F09BF8DFF8480400F040FAB1
:104DA000BDF8061050A000F05AFA00F0B0FA08B0B2
:104DB00010BD00007B14AE47E17A743F10B50400CB
:104DC0006421282001F036F94FF47A7001F0C0F91F
:104DD000FF21292001F02EF9DFF80C0400F020FA61
:104DE00000F095FA10BD10B588B0040001A8182194
:104DF00001F0D2F9CC48007800904FF4FA7301AA80
:104E00002A212A2001F063F8DFF8E00300F008FA15
:104E1000BDF8061034A000F022FA00F078FA08B0CD
:104E200010BD10B5040064212A2001F003F94FF4ED
:104E30007A7001F08DF9FF212B2001F0FBF8EC488E
:104E400000F0EEF900F063FA10BD10B588B0040070
:104E500001A8182101F0A0F9B348007800904FF4A0
:104E6000FA7301AA2C212C2001F031F8E14800F05E
:104E7000D7F9BDF806101CA000F0F1F900F047FAD0
:104E800008B010BD10B5040064212C2001F0D2F848
:104E90004FF47A7001F05CF9FF212D2001F0CAF87F
:104EA000D54800F0BDF900F032FA10BD10B588B059
:104EB000040001A8182101F06FF99B4800780090C8
:104EC0004FF4FA7301AA2E212E2001F000F8CB48EE
:104ED00000F0A6F9BDF8061003A000F0C0F900F03C
:104EE00016FA08B010BD00003078000010B50400BC
:104EF00064212E2001F09EF84FF47A7001F028F919
:104F0000FF212F2001F096F8BD4800F089F900F04C
:104F1000FEF910BD10B588B0040001A8182101F0F9
:104F20003BF98148007800904FF4FA7301AA3021D0
:104F3000302000F0CCFFB34800F072F9BDF8061045
:104F400074A000F08CF900F0E2F908B010BD10B5C3
:104F500004006421302001F06DF84FF47A7001F004
:104F6000F7F8FF21312001F065F8A74800F058F963
:104F700000F0CDF910BD10B588B0040001A81821CB
:104F800001F00AF96848007800904FF4FA7301AA1A
:104F90003221322000F09BFF9C4800F041F9BDF81F
:104FA00006105CA000F05BF900F0B1F908B010BD8C
:104FB00010B504006421322001F03CF84FF47A70FF
:104FC00001F0C6F8FF21332001F034F8904800F0DA
:104FD00027F900F09CF910BD10B588B0040001A8B5
:104FE000182101F0D9F85048007800904FF4FA7376
:104FF00001AA3C213C2000F06AFF864800F010F92D
:10500000BDF8061043A000F02AF900F080F908B0BE
:1050100010BD0000CA07002010B504000121762051
:1050200001F008F84FF47A7001F092F82021762010
:1050300001F000F84FF47A7001F08AF8222176200E
:1050400000F0F8FF4FF47A7001F082F82421762006
:1050500000F0F0FF4FF47A7001F07AF82621762004
:1050600000F0E8FF4FF47A7001F072F82821762002
:1050700000F0E0FF4FF47A7001F06AF82A21762000
:1050800000F0D8FF4FF47A7001F062F82C217620FE
:1050900000F0D0FF4FF47A7001F05AF82E217620FC
:1050A00000F0C8FF4FF47A7001F052F830217620FA
:1050B00000F0C0FF4FF47A7001F04AF832217620F8
:1050C00000F0B8FF4FF47A7001F042F8524800F057
:1050D000A7F800F01CF910BD10B588B0040001A8B5
:1050E000182101F059F81048007800904FF4FA7335
:1050F00001AA3721372000F0EAFE484800F090F876
:10510000BDF8061003A000F0AAF800F000F908B0FE
:1051100010BD00003078000018C100084A010020CE
:10512000D0C9000814BF00084B01002050CC000873
:10513000B0CA0008B8CD0008CDCC4C3E003C0040C1
:10514000C4C500089A99993ECCCA00089A99193F9B
:10515000E8CA0008CDCC8C3F40C100086766064015
:10516000E8C500083433834004CB00084801002020
:1051700044010020A8CE000834010020C60700200A
:10518000CC070020CE070020D707002068C1000808
:1051900068CC00080CD0000818D0000824D0000803
:1051A00030D0000800080240D8070020B8CE000820
:1051B000C8CE00083CD000080CC6000880CC00080F
:1051C00020CB00083CCB000810C9000830C90008FB
:1051D00050C9000870C9000830C6000890C1000816
:1051E000B8C1000854C60008E0C1000878C600082D
:1051F0009CC60008C0C60008E4C6000808C700082E
:105200002CC7000808C2000840BF000830C20008D0
:1052100058C2000890C9000850C70008A4D200086E
:1052200010B50400002C0AD02078002807D0207880
:105230007E2802DA207802F04AF9641CF2E710BDF9
:105240003EB504000D002000FFF7EAFF0A2200A986
:10525000280000F06BF800A8FFF7E2FF37BD3EB56D
:1052600004000D002000FFF7DBFF102200A928003A
:1052700000F05CF800A8FFF7D3FF37BDF8B50400D5
:105280000D0016002000FFF7CBFF280001F0F6F814
:105290000700002F07D12800002102F079F802D280
:1052A0001DA0FFF7BDFF39001CA0FFF7C9FF3800A4
:1052B00000F076FF0100280002F0D2F90500280076
:1052C000002102F065F801D295F000450B2E01D3C4
:1052D0000A20060012A0FFF7A3FF002E16D01248E6
:1052E000290002F031FA0500761E280001F0C6F808
:1052F0000700390009A0FFF7A3FF380000F050FFB6
:105300000100280002F0ACF90500E6E7F1BD80B528
:1053100004A0FFF785FF01BD2D0000000000000084
:105320002E0000000D0A000000002041FEB400AE77
:105330000A2A03D1002801D5012400E00024E4B2A8
:10534000002C02D047423D0000E00500002D02D1B4
:1053500000AFBE4212D1B5FBF2F702FB17573B007C
:10536000B5FBF2F50A2B04DA13F130073770761C1F
:10537000ECE713F137073770761CE7E70A2A06D007
:1053800001AFBE4203D230273770761CF8E7002CFD
:1053900002D02D270F70491C00AFB74204D2761EF1
:1053A00037780F70491CF7E700270F70F7BC70477C
:1053B000DFF81C03006850F00100DFF814130860E8
:1053C0000020DFF810130860DFF804030068DFF83E
:1053D00008130840DFF8F8120860DFF80003DFF870
:1053E00000130860DFF8E802006830F48020DFF87E
:1053F000E01208600020DFF8EC120860704700211E
:10540000DFF8E4221170DFF8E0120870704738B559
:105410000020009000240025312000F030F9050024
:105420000098401C00900098B0F5A06F02D0EDB23B
:10543000002DF1D0312000F022F9002802D0012007
:10544000040001E0002004002000C0B232BD70B4AE
:10545000039C51EA82159E1EF603360C3604354332
:10546000054355EA0465DFF87862356070BC704723
:10547000C0B2DFF87C12086070470021DFF85422C8
:1054800012681100890889000143DFF84822116081
:105490007047DFF84002006810F00C0070470021F0
:1054A000DFF830221268110031F0F0010143DFF81B
:1054B0002422116070470021DFF8182212681100C1
:1054C00031F4E0510143DFF80C22116070470021F4
:1054D000DFF800221268110031F4604151EAC00186
:1054E000DFF8F02111607047F0B4002100220023A2
:1054F000022400250226DFF8DC713F6817F00C0754
:1055000039000F00002F04D0042F06D0082F08D038
:105510003CE0DFF8E07107603BE0DFF8DC7107603A
:1055200037E0DFF8BC713F68C7F380573D00DFF814
:10553000B0713F6817F03F073E00002D0DD0DFF837
:10554000B871B7FBF6F7DFF898C1DCF800C0CCF310
:10555000881C0CFB07F73B000CE0DFF89871B7FBE9
:10556000F6F7DFF87CC1DCF800C0CCF3881C0CFB3C
:1055700007F73B00DFF868713F68C7F301477F1CFE
:105580007F003C00B3FBF4F7076002E0DFF86471D2
:105590000760DFF840713F6817F0F007390009092C
:1055A000DFF85871CF5D3A000768D7404760DFF8F1
:1055B00024713F6817F4E0573900890ADFF83C711D
:1055C000CF5D3A004768D7408760424F3F6817F485
:1055D00060473900490BDFF82471CF5D3A00476816
:1055E000D740C760F0BC7047C9B2002905D0444A13
:1055F00012680243424B1A6004E0414A1268824337
:105600003F4B1A607047C9B2002905D03D4A126865
:1056100002433C4B1A6004E03A4A12688243394B19
:105620001A607047C9B2002905D0374A1268024390
:10563000354B1A6004E0344A12688243324B1A60D8
:105640007047C9B2002905D0304A126802432F4B77
:105650001A6004E02D4A126882432C4B1A6070478E
:10566000C9B2002905D02A4A12680243284B1A60A1
:1056700004E0274A12688243254B1A60704710B431
:105680000100002200230020C9B24C09E4B222002C
:10569000012A03D10E4C2468230008E0022A03D11A
:1056A000124C2468230002E01A4C24682300C9B27B
:1056B00011F01F04220033FA02F4E40702D501249A
:1056C000200001E000242000C0B210BC70470000A0
:1056D0000038024008380240FFFFF6FE1030002478
:1056E000043802400C380240023802407038024050
:1056F000600047420024F40040787D010C01002046
:1057000030380240403802404438024020380240DD
:105710002438024074380240F0B4002200230024F0
:1057200000252A00102A4AD2012595402B000D6839
:105730001D402C009C4240D1056803261700FFB293
:105740007F00BE40B543056005680E791700FFB2C3
:105750007F00BE40354305600D79012D02D00D79E3
:10576000022D1AD1856803261700FFB27F00BE40C4
:10577000B543856085684E791700FFB27F00BE4053
:1057800035438560456801269640B54345604568C8
:105790008E799640B6B235434560C568032617003A
:1057A000FFB27F00BE40B543C560C568CE79170023
:1057B000FFB27F00BE403543C560521CB2E7F0BC6B
:1057C00070474FF6FF7101600021017100214171A6
:1057D000002181710021C1717047018370474183AD
:1057E0007047D2B2002A01D0018300E041837047A4
:1057F000F0B400230024D2B211F00705EDB2AD00E1
:1058000012FA05F52B0089B2CD1010EB850589B28F
:10581000CE1010EB8606366A0F2711F0070C5FFAE0
:105820008CFC5FEA8C0C17FA0CF7BE432E6289B22F
:10583000CD1010EB85052D6A1D432C0089B2CD10CB
:1058400010EB85052C62F0BC704750F8041B61B169
:1058500050F8042BD30744BFA9F101039A18002381
:1058600042F8043B091FFAD1EFE7704730B4002239
:105870000F2311F00304E4B2A400A3401A00C9B23C
:105880008B100E4C54F823309343C9B28C100B4D3F
:1058900045F82430C9B28B10084C54F82330C0B2FC
:1058A00011F00304E4B2A40010FA04F42343C9B2D3
:1058B0008C10024D45F8243030BC70470838014048
:1058C0000021314A11008279002A36D02E4A12680E
:1058D00003689A432C4B1A602C4A126803689A4357
:1058E0002A4B1A60027951180A6803681A430A6041
:1058F000274A126803689A43254B1A60254A1268A2
:1059000003689A43234B1A604279102A0CD1204A2B
:10591000126803681A431E4B1A601E4A1268036815
:105920001A431C4B1A600EE0174A110042795118B5
:105930000A6803681A430A6005E0027951180A6888
:1059400003689A430A6070470021016000210171D9
:105950000C2141710021817170470100002000225B
:10596000094B1B680B401A000B4B1B680B4204D001
:10597000002A02D00123180001E000231800C0B261
:105980007047054908607047003C0140043C0140F5
:10599000083C01400C3C0140143C014070B4002321
:1059A00000210F22C478002C21D0174C246814F455
:1059B000E064D4F5E064240A2300D3F10404210058
:1059C000D2B21A4144788C40230084781440234397
:1059D0001B0104780D4D63550124057815F01F0552
:1059E000AC4005786D110A4E46F8254009E00124C7
:1059F000057815F01F05AC4005786D11054E46F889
:105A0000254070BC704700000CED00E000E400E0B1
:105A100000E100E080E100E009480068401C08491E
:105A2000086072B67047000005480068401E0449CF
:105A3000086003480068002800D162B67047000083
:105A40009007002030B587B004000D0001A8182190
:105A500000F0A2FB012000904FF4FA7301AA290084
:105A6000C9B22000C0B200F032FABDF8061087A01B
:105A7000FFF7F5FB07B030BD70B588B004000D002E
:105A8000160001A8182100F087FB3100C9B22000E0
:105A9000C0B200F0CFFA0A2000F05AFB01200090BB
:105AA0004FF4FA7301AA2900C9B22000C0B200F075
:105AB0000EFABDF8061075A0FFF7D1FB08B070BD57
:105AC00080B57548018872A0FFF7BAFB724800885C
:105AD000401C714908806FA0FFF7A2FB01BD80B593
